:10000000C0C00000DAC00000D8C00000D6C00000A8
:10001000D4C00000D2C00000D0C00000DBC500008A
:10002000CCC000007AC500002DC70000F6C7000054
:10003000C4C00000C2C00000C0C00000BEC00000BC
:10004000BCC00000BAC00000B8C00000B6C00000CC
:10005000B4C0000015C50000B0C00000AEC0000074
:10006000ACC00000AAC00000A8C00000A6C00000EC
:10007000A4C00000A2C00000A0C000009EC00000FC
:100080009CC000009AC0000098C0000096C000000C
:1000900094C0000092C0000090C000008EC000001C
:1000A0008CC000008AC0000088C00000180A3F0A07
:1000B000300B3F0A300B8A0AAC0A300B000B0F0BD7
:1000C00038034D00450047004E0035003400300035
:1000D00020004C0061006200200050006F006C00A6
:1000E0006F006C00750020005A0075006D006F00F5
:1000F00020004300610072000000320343006F00E3
:100100006C006F007200610064006F0020005300FB
:10011000630068006F006F006C0020006F006600D5
:1001200020004D0069006E006500730000000403AC
:10013000090409023E0002010080320904000001A6
:100140000202010005240010010424020605240611
:100150000001070583030800FF09040100020A00EB
:1001600000000705020210000507058102100005C6
:100170001201100102000008FB1F00230100010210
:10018000DC0111241FBECFEFDAE0DEBFCDBF11E0EE
:10019000A0E0B1E0E4EDFAE102C005900D92A431D7
:1001A000B107D9F725E0A4E1B1E001C01D92A13962
:1001B000B207E1F70DD00C94680D22CF07D32EEDD6
:1001C00030E040E050E060E87FEB80E595E06FC311
:1001D00060E070E0CB01F2DF1DD260E070E0CB01A7
:1001E00007D083E495E0A0D380E595E09DD3F4CFDC
:1001F0001F93CF93DF93CDB7DEB72D970FB6F8944B
:10020000DEBF0FBECDBFA5D2882309F4A1C1A4D201
:10021000182F8FE38D87133509F44AC1E8F41F3294
:1002200009F44AC050F41B3209F459C01D3209F4D4
:1002300069C01A3209F07FC12CC0153409F4D5C049
:1002400020F4123409F4EFC076C1103509F412C15C
:10025000113509F458C16FC1103709F4FCC050F4CE
:10026000123609F4DAC0153609F4B9C0143509F0AC
:1002700062C180C0133709F41BC120F4113709F49F
:1002800023C159C1143709F457C01E3709F44DC0B2
:1002900052C15FD2893008F45BC16AD268E0CE01F6
:1002A000019670D22D813E814F81588569817A8176
:1002B0008B819C81E5D449C14CD2893008F448C176
:1002C00057D268E0CE0101965DD22D813E814F81EB
:1002D000588569817A818B819C81ECD436C139D271
:1002E000893008F435C144D268E0CE0101964AD283
:1002F0002D813E814F81588569817A818B819C81D6
:10030000F3D423C126D2893008F422C131D268E067
:10031000CE01019637D22D813E814F81588569816A
:100320007A818B819C81FAD410C113D2882309F47D
:100330000FC180E595E0FDC00CD2823008F408C101
:1003400017D261E0CE0101961DD28981803339F048
:10035000813351F480E090E0A0E8BFEB2DC080E055
:1003600090E0A0E8BFEB1DC021E0AE01435F5F4F0E
:1003700064E732C0EED1863008F4EAC0F9D165E016
:10038000CE010196FFD18981803339F08133F9F4B0
:100390008A819B81AC81BD810FC08A819B81AC81A8
:1003A000BD8180932A0390932B03A0932C03B093D9
:1003B0002D0389E293E0BDC080932A0590932B051D
:1003C000A0932C05B0932D0589E295E0B2C021E001
:1003D000AE01435F5F4F64E587E091E092C0B9D121
:1003E000882309F4B5C0C4D115C0B3D1853008F451
:1003F000AFC0BED164E0CE010196C4D189819A819B
:10040000AB81BC8180931D0590931E05A0931F05B1
:10041000B09320058CE195E08CC09BD1882309F432
:1004200097C0A6D115C095D1853008F491C0A0D150
:1004300064E0CE010196A6D189819A81AB81BC810D
:100440008093780590937905A0937A05B0937B0506
:1004500087E795E06EC07DD1853008F479C088D1FA
:1004600064E0CE0101968ED189819A817FD08B8103
:100470009C8128C06ED1882309F46AC079D168E0D4
:10048000CE0101967FD189819A8170D08B819C8128
:100490008CD08D819E81AF81B885809337059093F4
:1004A0003805A0933905B0933A0586E395E041C03D
:1004B00050D1882309F44CC05BD180E090E056D045
:1004C00080E090E072D041C044D1882309F440C05C
:1004D0004FD176D269837A838B839C837DD09E8330
:1004E0008D8389D098878F8302D37A8769870AD3CF
:1004F0007C876B872CE0AE014F5F5F4F61E78AE03E
:1005000091E005D122C025D1853010F131D164E0D0
:10051000CE01019637D189819A81AB81BC818093CC
:100520005E0590935F05A0936005B09361058DE52E
:1005300095E0CCD10AC01CD121E0AE01435F5F4FF2
:10054000612F87E091E0E3D003C086E393E0BED162
:100550002D960FB6F894DEBF0FBECDBFDF91CF91C1
:100560001F9108958091810081700895CF93DF934A
:10057000EC01892B51F08091810081608093810092
:100580001C161D062CF42A9809C0ECDF882399F369
:100590002A9AD7FF03C0D195C195D109D0938B007A
:1005A000C0938A00DF91CF910895009751F0209178
:1005B00081002160209381001816190614F42998EF
:1005C00006C0299A97FF03C0919581959109909350
:1005D00089008093880008952A9B08C080918A0032
:1005E00090918B00919581959109089580918A0051
:1005F00090918B000895299B08C08091880090916C
:100600008900919581959109089580918800909134
:10061000890008951F93CF93DF9343D5809185057B
:100620008430F9F482E08093E9008091E80082FF51
:1006300018C08091F300C091F200D0E0D82B10E0F8
:10064000812F90E08C179D0738F46091F10086E1CE
:1006500092E08DD31F5FF4CF8091E8008B77809379
:10066000E800809185058430F9F481E08093E90009
:100670008091E80080FF18C0C0E084E191E06ED373
:10068000C81738F484E191E084D38093F100CF5F00
:10069000F4CF8091E8008E778093E80070D5809148
:1006A000E8008E778093E800DF91CF911F91089545
:1006B000682F84E191E05BC30F931F93CF93DF9387
:1006C000EC018C01060F111DC017D10719F089919B
:1006D000EFDFFACFDF91CF911F910F9108951F9314
:1006E000CF93DF93EC0180E011E0180FFE01E80FDB
:1006F000F11D8081DDDF812FFE01E10FF11D908171
:100700009111F2CF80E0DF91CF911F91D1CFEF9285
:10071000FF920F931F93CF93DF93EC01062F7A0183
:10072000122FFC0101900020E9F73197E81BF90B2B
:1007300082E0820F8E0FBCDFCE01D1DF802FB8DFC9
:10074000612FC701DF91CF911F910F91FF90EF9023
:10075000B3CF86E192E002C386E192E0FFD2882324
:1007600029F06091160386E192E026C380E00895A7
:1007700086E192E0F3D2882319F086E192E009C382
:1007800080E00895FF920F931F93CF93DF93F82E8D
:10079000092F162F86E192E0E1D2811780F0CF2D4C
:1007A000D02FCE01810F911D8C01C017D10729F0E8
:1007B00086E192E0EED28993F8CF81E001C080E03B
:1007C000DF91CF911F910F91FF90089586E192E004
:1007D000BFD284E191E0BCD284B7877F84BF0FB6DB
:1007E000F894A895809160008861809360001092D1
:1007F00060000FBE90E080E80FB6F894809361002F
:10080000909361000FBE21D37894089508950895C0
:1008100042E161E881E05FD442E160E882E05BD4DC
:1008200042E061EC83E057D4109200011092010184
:100830001092020110920301089580918705813280
:1008400029F0823249F1803289F512C08091860503
:10085000813A61F58091E800877F8093E80067E046
:1008600070E080E091E0BED48091E8008B7711C009
:10087000809186058132D1F48091E800877F809352
:10088000E80067E070E080E091E00AD58091E80040
:100890008E778093E800089580918605813231F447
:1008A0008091E800877F8093E8004AC40895FC01A6
:1008B000108241835283638374831286118615826A
:1008C000168217821086348723870895CF93DF938B
:1008D000EC0181E08883B5D09A878987A9D06D83A0
:1008E0007E838F839887DF91CF910895CF93DF9395
:1008F000EC0120E030E0A90169817A818B819C8143
:1009000062D787FD0BC0CE010596A1D029813A811F
:100910004B815C810E94010D87FD02C0888101C06E
:1009200080E0DF91CF9108958F929F92AF92BF9216
:10093000EF92FF921F93CF93DF93EC01D7DF182F35
:10094000882399F1EB84FC84E114F10469F1698551
:100950007A8580E090E0A3D72FE632E143E85AE3BE
:100960000E94050D4B015C016D817E818F81988510
:1009700096D79B01AC01C501B401C1D6F701099519
:1009800060D09A87898754D06D837E838F839887C0
:1009900020E030E0A90169817A818B819C8113D7A5
:1009A00087FF03C0188201C010E0812FDF91CF9133
:1009B0001F91FF90EF90BF90AF909F908F90089500
:1009C0008F929F92AF92BF92CF92DF92EF92FF925F
:1009D0008090180390901903A0901A03B0901B0305
:1009E00066B584E0689FB0011124072E000C880BC7
:1009F000990B57D72DEB37E346E855E30E94050DD9
:100A00006B017C01C501B4014AD72FE632E143E80E
:100A10005AE3FBD79B01AC01C701B60170D6FF902A
:100A2000EF90DF90CF90BF90AF909F908F90089500
:100A3000609118037091190380911A0390911B0320
:100A4000089586B524E0829FC001112408950F9374
:100A50001F93FC018091180390911903A0911A0330
:100A6000B0911B030081118122813381BC01CD0132
:100A7000601B710B820B930B12D71F910F9108957E
:100A80001F920F920FB60F9211248F939F93AF93E3
:100A9000BF9316BC8091180390911903A0911A037B
:100AA000B0911B030196A11DB11D80931803909373
:100AB0001903A0931A03B0931B03BF91AF919F91A9
:100AC0008F910F900FBE0F901F9018959CB18FB112
:100AD00096FB992790F981708927089583B19CB17D
:100AE00092FB992790F98295817089270895F8944F
:100AF0006091200370912103809122039091230340
:100B000078940895F89460911C0370911D0380916E
:100B10001E0390911F03789408951F920F920FB6B1
:100B20000F9211242F933F934F935F936F937F9373
:100B30008F939F93AF93BF93EF93FF9383B1909164
:100B40002403829581709817A1F1C8DF9091250345
:100B5000209126033CB140912003509121036091E4
:100B6000220370912303892790E032FB332730F969
:100B70002327821B9109092E000CAA0BBB0B840FA3
:100B8000951FA61FB71F8093200390932103A09366
:100B90002203B093230383B1829581708093240351
:100BA0009DDF809326038CB182FB882780F9809398
:100BB0002503FF91EF91BF91AF919F918F917F910D
:100BC0006F915F914F913F912F910F900FBE0F90BA
:100BD0001F9018951F920F920FB60F9211241F931A
:100BE0002F933F934F935F936F937F938F939F9335
:100BF000AF93BF93CF93DF93EF93FF9367DF182FEC
:100C0000C0912703D091280361DF40911C035091CC
:100C10001D0360911E0370911F03C1272C2F30E02C
:100C20008D27F901E81BF109CF01092E000CAA0B51
:100C3000BB0B840F951FA61FB71F80931C039093B7
:100C40001D03A0931E03B0931F0340DF809328036E
:100C50008FB1817080932703FF91EF91DF91CF9146
:100C6000BF91AF919F918F917F916F915F914F91C4
:100C70003F912F911F910F900FBE0F901F901895CD
:100C8000CF93DF9300D000D0CDB7DEB7BED6698357
:100C90007A838B839C8324E0AE014F5F5F4F6AE2CF
:100CA00081E191E034DD0F900F900F900F90DF9174
:100CB000CF910895CF93DF9300D000D0CDB7DEB7AA
:100CC00086D569837A838B839C8324E0AE014F5F52
:100CD0005F4F6FE281E191E01ADD0F900F900F906E
:100CE0000F90DF91CF910895CF93DF9300D000D084
:100CF000CDB7DEB704D569837A838B839C8324E0E8
:100D0000AE014F5F5F4F6BE281E191E000DD0F903C
:100D10000F900F900F90DF91CF910895CF93DF93B5
:100D200000D000D0CDB7DEB7E9D469837A838B8356
:100D30009C8324E0AE014F5F5F4F6DE281E191E063
:100D4000E6DC0F900F900F900F90DF91CF910895F8
:100D5000FC01F3951082319610820895DC01AF5F9B
:100D6000BE4FFC01F3958C919081891B0895FC0185
:100D7000EF5FFE4F2081DC01A20FB11D6C9331E0CB
:100D8000320F308331978081381302C02E5F208369
:100D900008959C01FC01F3959081D901AF5FBE4F8E
:100DA0008C91891739F0D901A90FB11D8C919F5FE2
:100DB0009083089580E00895FC01F3952081620FEF
:100DC000FC01E60FF11D808108950F931F93CF93CF
:100DD000DF934BD052D0C8EDD0E088818F778883E5
:100DE00088818068888388818F7D888319BC109270
:100DF000850510928E051092900510928F0500EED9
:100E000010E0F80180818B7F8083888181608883F6
:100E100042E060E080E05FD1E1EEF0E080818E7F33
:100E20008083E2EEF0E08081816080838081886051
:100E30008083F80180818E7F8083888180618883B0
:100E4000DF91CF911F910F910895E8EDF0E080813F
:100E50008F7E8083E7EDF0E080818160808384E095
:100E600082BF81E080938405B0CFE8EDF0E080811F
:100E70008E7F80831092E20008951092DA00109223
:100E8000E10008951F920F920FB60F9211242F9335
:100E90003F934F935F936F937F938F939F93AF9302
:100EA000BF93EF93FF938091E10082FF0AC080918E
:100EB000E20082FF06C08091E1008B7F8093E10019
:100EC000EFD08091DA0080FF1DC08091D80080FFB4
:100ED00019C08091DA008E7F8093DA008091D9006A
:100EE00080FF0CC080E189BD82E189BD09B400FEAC
:100EF000FDCF81E08093850589DC04C019BC109288
:100F0000850585DC8091E10080FF18C08091E200BA
:100F100080FF14C08091E2008E7F8093E200809178
:100F2000E20080618093E2008091D800806280932B
:100F3000D80019BC85E080938505B2D08091E1008E
:100F400084FF2FC08091E20084FF2BC080E189BD27
:100F500082E189BD09B400FEFDCF8091D8008F7D6C
:100F60008093D8008091E1008F7E8093E100809192
:100F7000E2008F7E8093E2008091E20081608093A6
:100F8000E20080918E05882311F084E007C08091F3
:100F9000E30087FD02C081E001C083E08093850506
:100FA0007FD08091E10083FF27C08091E20083FF22
:100FB00023C08091E100877F8093E10082E08093ED
:100FC000850510928E058091E1008E7F8093E1006F
:100FD0008091E2008E7F8093E2008091E200806148
:100FE0008093E20042E060E080E075D08091F00004
:100FF00088608093F00054D0FF91EF91BF91AF9142
:101000009F918F917F916F915F914F913F912F9120
:101010000F900FBE0F901F9018951F920F920FB652
:101020000F9211242F933F934F935F936F937F936E
:101030008F939F93AF93BF93CF93DF93EF93FF93E0
:10104000C091E900CF708091EC00D82FD17080FD65
:10105000D0E81092E9008091F000877F8093F00043
:101060007894BFD11092E9008091F000886080935D
:10107000F000CD2BCF70C093E900FF91EF91DF918D
:10108000CF91BF91AF919F918F917F916F915F9120
:101090004F913F912F910F900FBE0F901F90189579
:1010A0000895CF9380918505882399F0C091E90038
:1010B000CF709091EC00892F817090FD80E8C82B53
:1010C0001092E9008091E80083FD8BD1CF70C0932E
:1010D000E900CF910895982F973068F59093E90033
:1010E000981739F07091EC002091ED005091F000CC
:1010F00003C0242F762F50E021FD02C09F5FECCF6C
:101100003091EB003E7F3093EB003091ED003D7F5E
:101110003093ED003091EB0031603093EB00709331
:10112000EC002093ED005093F0002091EE0027FD9D
:10113000E5CF80E008958F708093E90081E0089505
:101140008091860587FF11C08091E80082FD05C06F
:10115000809185058111F8CF11C08091E8008B77CF
:101160000BC080918505882349F08091E80080FFBD
:10117000F8CF8091E8008E778093E8000895209161
:10118000E4003091E50095E64091EC00842F8170F9
:1011900040FF23C08091E80080FD1DC0809185053F
:1011A000882399F0853099F08091EB0085FD11C07E
:1011B0004091E4005091E5002417350729F3915040
:1011C00011F09A01E1CF84E0089582E0089583E070
:1011D000089581E0089580E008954091E80042FF7D
:1011E000DDCF089520918C0530918D0526173707A6
:1011F00048F06115710539F42091E8002E772093AD
:10120000E80001C0B901FC0120E06115710579F128
:10121000809185058823F1F18530F1F18091E80016
:1012200083FD3CC08091E80082FD2EC08091E800E3
:1012300080FFEBCF2091F3008091F20090E0922BA1
:101240006115710551F08830910538F42191209392
:10125000F100615071090196F3CF21E0089709F080
:1012600020E08091E8008E778093E800CECF2111B6
:10127000CFCF0AC080918505882361F0853061F069
:101280008091E80083FD0AC08091E80082FFF2CFE0
:1012900080E0089582E0089583E0089581E0089554
:1012A0006115710529F42091E8002B772093E8005F
:1012B000FC016115710541F180918505882361F17B
:1012C000853061F18091E80083FD24C08091E800C1
:1012D00082FFEFCF2091F3008091F20090E0922BFB
:1012E000892B31F08091F10081936150710991F760
:1012F0008091E8008B778093E800DBCF80918505B3
:10130000882351F0853051F08091E80080FFF6CFBE
:1013100080E0089581E0089582E0089583E00895D3
:1013200020918C0530918D052617370748F06115FF
:10133000710539F42091E8002E772093E80001C070
:10134000B901FC0120E06115710591F180918505DD
:10135000882309F440C0853009F43FC08091E8003B
:1013600083FD3DC08091E80082FD2FC08091E800A0
:1013700080FFE9CF2091F3008091F20090E0922B62
:101380006115710559F08830910540F4249120933E
:10139000F1003196615071090196F2CF21E0089772
:1013A00009F020E08091E8008E778093E800CBCFB1
:1013B0002111CCCF0AC080918505882361F085304A
:1013C00061F08091E80083FD0AC08091E80082FF0F
:1013D000F2CF80E0089582E0089583E0089581E0EF
:1013E00008951F93CF93DF93CDB7DEB7AA970FB6BB
:1013F000F894DEBF0FBECDBFE6E8F5E08091F100C6
:10140000819325E0EE38F207C9F717DA8091E800FA
:1014100083FF26C18091860590918705492F50E072
:101420004A30510508F01CC1FA01EA5AFF4F60C169
:10143000803821F0823809F013C108C080918F05EF
:1014400090919005992389F082600FC080918A0560
:101450008F70873008F004C18093E9008091EB0021
:1014600085FB882780F91092E9009091E800977F2A
:101470009093E8008093F1001092F100CCC0282FE7
:101480002D7F09F0EDC0882319F0823061F0E8C0AB
:1014900080918805813009F0E3C0933009F080E045
:1014A000809390052EC08091880581112AC080917B
:1014B0008A058F702FEF280F263008F0D1C0809357
:1014C000E9002091EB0020FF1CC0933021F48091B3
:1014D000EB00806214C09091EB0090619093EB0060
:1014E00021E030E0A90102C0440F551F8A95E2F7C0
:1014F0004093EA001092EA008091EB0088608093AC
:10150000EB001092E9008091E800877F8093E8006B
:1015100017DEA6C08111A4C0109188051F778091A5
:10152000E3008078812B8093E3008091E800877F3F
:101530008093E80005DE8091E80080FFFCCF809179
:10154000E30080688093E300111102C082E001C0D3
:1015500083E08093850584C08058823008F080C085
:1015600080918805909189058C3D53E0950771F530
:1015700083E08A838AE289834FB7F894DE01139669
:1015800020E03EE051E2E32FF0E050935700E49179
:1015900020FF03C0E295EF703F5FEF708E2F90E069
:1015A000EA3010F0C79601C0C0968D939D932F5FCF
:1015B000243149F74FBF8091E800877F8093E8008E
:1015C0006AE270E0CE0101960DDE14C060918A05DA
:1015D00070918B05AE014F5F5F4F5AD0BC01892BD4
:1015E00009F43EC09091E800977F9093E8008981CC
:1015F0009A8196DE8091E8008B778093E80030C076
:10160000803871F58091E800877F8093E8008091B1
:101610008E058093F1008091E8008E7777CF81115D
:101620001FC0809188059091890599270297C4F47D
:101630008091E800877F8093E800809188058093FF
:101640008E057EDD80918E05811106C08091E300BC
:1016500087FD02C081E001C084E080938505D8D871
:101660008091E80083FF0AC08091E800877F809323
:10167000E8008091EB0080628093EB00AA960FB6A1
:10168000F894DEBF0FBECDBFDF91CF911F910895BB
:10169000292F33272230310559F02330310569F0E5
:1016A00021303105E9F482E190E020E731E01CC00F
:1016B0008EE390E022E331E017C099278130910555
:1016C00049F028F0029761F4E0ECF0E005C0EEE2AA
:1016D000F1E002C0EAEFF0E0849190E09F0104C0E5
:1016E00080E090E020E030E0FA013183208308952B
:1016F000EE0FFF1F0590F491E02D09945058BB2781
:10170000AA270ED044C135D130F03AD120F031F4BF
:101710009F3F11F41EF42AC10EF4E095E7FB20C1AF
:10172000E92F46D180F3BA1762077307840795073C
:1017300018F071F49EF55EC10EF4E0950B2EBA2FF1
:10174000A02D0B01B90190010C01CA01A0011124C7
:10175000FF27591B99F0593F50F4503E68F11A1673
:10176000F040A22F232F342F4427585FF3CF469504
:1017700037952795A795F0405395C9F77EF41F1626
:10178000BA0B620B730B840BBAF09150A1F0FF0FF0
:10179000BB1F661F771F881FC2F70EC0BA0F621FDC
:1017A000731F841F48F4879577956795B795F795CC
:1017B0009E3F08F0B3CF9395880F08F09927EE0F5E
:1017C000979587950895A8D008F481E008950CD0E6
:1017D000DEC0D6D040F0CDD030F021F45F3F19F01C
:1017E000BFC0511108C1C2C0E3D098F39923C9F317
:1017F0005523B1F3951B550BBB27AA276217730717
:10180000840738F09F5F5F4F220F331F441FAA1FCA
:10181000A9F333D00E2E3AF0E0E830D0915050408A
:10182000E695001CCAF729D0FE2F27D0660F771F38
:10183000881FBB1F261737074807AB07B0E809F01A
:10184000BB0B802DBF01FF2793585F4F2AF09E3FAF
:10185000510568F085C0CFC05F3FECF3983EDCF3E4
:10186000869577956795B795F7959F5FC9F7880F28
:10187000911D9695879597F90895E1E0660F771F7A
:10188000881FBB1F621773078407BA0720F0621B0B
:10189000730B840BBA0BEE1F88F7E0950895E8945C
:1018A00009C097FB3EF490958095709561957F4FA8
:1018B0008F4F9F4F9923A9F0F92F96E9BB27939556
:1018C000F695879577956795B795F111F8CFFAF466
:1018D000BB0F11F460FF1BC06F5F7F4F8F4F9F4F97
:1018E00016C0882311F096E911C0772321F09EE8F5
:1018F000872F762F05C0662371F096E8862F70E05B
:1019000060E02AF09A95660F771F881FDAF7880F34
:101910009695879597F90895990F0008550FAA0B8A
:10192000E0E8FEEF16161706E807F907C0F01216F2
:101930001306E407F50798F0621B730B840B950BF5
:1019400039F40A2661F0232B242B252B21F408954A
:101950000A2609F4A140A6958FEF811D811D0895E7
:1019600097F99F6780E870E060E008959FEF80EC52
:10197000089500240A9416161706180609060895F5
:1019800000240A9412161306140605060895092E5B
:101990000394000C11F4882352F0BB0F40F4BF2BCA
:1019A00011F460FF04C06F5F7F4F8F4F9F4F08950A
:1019B00057FD9058440F551F59F05F3F71F0479500
:1019C000880F97FB991F61F09F3F79F087950895E5
:1019D000121613061406551FF2CF4695F1DF08C004
:1019E000161617061806991FF1CF86957105610521
:1019F00008940895E894BB2766277727CB0197F9C9
:101A000008958ADF08F48FEF08950BD0C0CFB1DFBF
:101A100028F0B6DF18F0952309F0A2CFA7CF112444
:101A2000EACFC6DFA0F3959FD1F3950F50E0551F85
:101A3000629FF001729FBB27F00DB11D639FAA2723
:101A4000F00DB11DAA1F649F6627B00DA11D661F72
:101A5000829F2227B00DA11D621F739FB00DA11D93
:101A6000621F839FA00D611D221F749F3327A00D4D
:101A7000611D231F849F600D211D822F762F6A2FE9
:101A800011249F5750408AF0E1F088234AF0EE0F6E
:101A9000FF1FBB1F661F771F881F91505040A9F77B
:101AA0009E3F510570F05CCFA6CF5F3FECF3983EB0
:101AB000DCF3869577956795B795F795E7959F5FE2
:101AC000C1F7FE2B880F911D9695879597F908957C
:041AD000F894FFCFB8
:101AD40000000000000008636300636668686868CB
:041AE4000063660035
:00000001FF
