:10000000C0C00000DAC00000D8C00000D6C00000A8
:10001000D4C00000D2C00000D0C00000AEC20000BA
:10002000CCC000004DC200000C94CB0B0C94960C7D
:10003000C4C00000C2C00000C0C00000BEC00000BC
:10004000BCC00000BAC00000B8C00000B6C00000CC
:10005000B4C000000C94E00AB0C00000AEC00000C4
:10006000ACC00000AAC00000A8C00000A6C00000EC
:10007000A4C00000A2C00000A0C000009EC00000FC
:100080009CC000009AC0000098C0000096C000000C
:1000900094C0000092C0000090C000008EC000001C
:1000A0008CC000008AC0000088C00000A10EC80EED
:1000B000B90FC80EB90F130F350FB90F890F980F6D
:1000C00038034D00450047004E0035003400300035
:1000D00020004C0061006200200050006F006C00A6
:1000E0006F006C00750020005A0075006D006F00F5
:1000F00020004300610072000000320343006F00E3
:100100006C006F007200610064006F0020005300FB
:10011000630068006F006F006C0020006F006600D5
:1001200020004D0069006E006500730000000403AC
:10013000090409023E0002010080320904000001A6
:100140000202010005240010010424020605240611
:100150000001070583030800FF09040100020A00EB
:1001600000000705020210000507058102100005C6
:100170001201100102000008FB1F00230100010210
:10018000DC0111241FBECFEFDAE0DEBFCDBF11E0EE
:10019000A0E0B1E0E6EEF3E202C005900D92A834D3
:1001A000B107D9F725E0A8E4B1E001C01D92AB3C4E
:1001B000B207E1F761D00C94F11122CF0E944709F8
:1001C0000E946A0A10D17ED02EED30E040E050E06F
:1001D00060E87FEB8AE895E00E94E3092DE735E0CF
:1001E0004FE852EC65EF7CE38DE795E00E94E30970
:1001F00026EC34E040E050E060E87FEB83E693E0FB
:100200000E94E30924E534E040E050E060E87FEB41
:1002100083E695E00E94E30923E537E040E050E003
:1002200068EC72E480E793E00E94E30924EE34E096
:1002300040E050E060E87FEB86E595E00E94E3094E
:1002400029E035E040E050E060E87FEB81EB95E0AD
:100250000E94E30923E235E04FE652E163E07BE3ED
:1002600084EA95E00E94E3098DE795E00E94F20997
:1002700084EA95E00C94F20960E070E0CB019EDF27
:100280001FD786E595E00E941F0A81EB95E00E944A
:100290001F0A84EA95E00E941F0A83E693E00E9409
:1002A0001F0A83E695E00E941F0A8AE895E00E94F3
:1002B0001F0A8DE795E00E941F0A80E793E00E94E5
:1002C0001F0ADECFCF93DF93CDB7DEB7A8970FB667
:1002D000F894DEBF0FBECDBFEAE7F0E08081876013
:1002E0008083808180688083ECE7F0E08081808378
:1002F000808186608083808180648083EEE7F0E087
:1003000080818064808384E1E9E0F1E0DE0155963C
:1003100001900D928A95E1F784E1EDE1F1E0DE01D3
:10032000119601900D928A95E1F724E0AE014F5F9E
:100330005F4FBE016B5E7F4F81EC94E074D1A89655
:100340000FB6F894DEBF0FBECDBFDF91CF910895F9
:10035000CF92DF92EF92FF9280917A008064809337
:100360007A0080917A0086FDFCCF80917800682F1A
:1003700080917900782F80E090E00E94D81020E0F2
:1003800030E040E25CE30E948E116B017C018091C1
:10039000000190910101892B49F010920101109206
:1003A0000001B701A60181EC94E09FD1B701A6013D
:1003B00081EC94E0FF90EF90DF90CF90CAC181EC88
:1003C00094E06EC29CB18FB196FB992790F9817031
:1003D0008927089583B19CB192FB992790F9829562
:1003E0008170892708957894EE98EAE6F0E080819C
:1003F0008F7D8083808180618083E69AEE9AE8E633
:10040000F0E0808181608083EBE6F0E080818061B4
:100410008083D89A6E98769A8098889A24982C9A95
:100420006A98729ACFDF809354018FB18170809364
:100430005301D0DF809352018CB182FB882780F971
:100440008093510183B18295817080935001109205
:100450004C0110924D0110924E0110924F011092DA
:1004600048011092490110924A0110924B010895DF
:10047000F89460914C0170914D0180914E019091E2
:100480004F0178940895F894609148017091490162
:1004900080914A0190914B0178940895E9DF0E9480
:1004A000DA1024E133E542EE5BE30C948E11EBDFCE
:1004B0000E94DA1024E133E542EE5BE30C948E11E6
:1004C0001F920F920FB60F9211242F933F934F93C9
:1004D0005F936F937F938F939F93AF93BF93EF93AC
:1004E000FF9383B190915001829581709817A1F18B
:1004F00071DF90915101209152013CB140914C012A
:1005000050914D0160914E0170914F01892790E00B
:1005100032FB332730F92327821B9109092E000C67
:10052000AA0BBB0B840F951FA61FB71F80934C010E
:1005300090934D01A0934E01B0934F0183B18295EA
:1005400081708093500146DF809352018CB182FB11
:10055000882780F980935101FF91EF91BF91AF916E
:100560009F918F917F916F915F914F913F912F91CB
:100570000F900FBE0F901F9018951F920F920FB6FD
:100580000F9211241F932F933F934F935F936F9379
:100590007F938F939F93AF93BF93CF93DF93EF930B
:1005A000FF9310DF182FC0915301D09154010ADF3F
:1005B000409148015091490160914A0170914B016D
:1005C000C1272C2F30E08D27F901E81BF109CF015D
:1005D000092E000CAA0BBB0B840F951FA61FB71F7B
:1005E0008093480190934901A0934A01B0934B0135
:1005F000E9DE809354018FB1817080935301FF91A4
:10060000EF91DF91CF91BF91AF919F918F917F91AA
:100610006F915F914F913F912F911F910F900FBE5E
:100620000F901F9018953F924F925F926F927F921A
:100630008F929F92AF92BF92CF92DF92EF92FF92F2
:100640000F931F93CF93DF938C015B014A01422EDE
:100650008FD4380182E2680E711CC30189D47801FD
:1006600086E6E80EF11CC70183D4680184E4C80E55
:10067000D11CC6017DD4312C512CC32DD0E04C1699
:100680005D060CF1CC0FDD1FCC0FDD1FF501EC0F6B
:10069000FD1F4081518162817381C80183D4C80DDF
:1006A000D91D488159816A817B81C3017BD440E097
:1006B00050E0BA01C7019FD440E050E0BA01C60142
:1006C0009AD43394DACFDF91CF911F910F91FF909D
:1006D000EF90DF90CF90BF90AF909F908F907F90E2
:1006E0006F905F904F903F900895AF92BF92CF92DE
:1006F000DF92EF92FF921F93CF93DF93EC016A0199
:100700007B0110E05C0186E6A80EB11CC5013AD45D
:10071000181738F4A7019601612FC501C3D41F5FD4
:10072000F5CF10E0CC5BDF4FCE012CD4181738F496
:10073000A7019601612FCE01B5D41F5FF5CFDF91E0
:10074000CF911F91FF90EF90DF90CF90BF90AF902F
:1007500008952F923F924F925F926F927F928F9265
:100760009F92AF92BF92CF92DF92EF92FF920F9340
:100770001F93CF93DF9300D01F92CDB7DEB79B833B
:100780008A831C0186E6280E311CC10134D4C101C4
:1007900049D455245394812C912C54010A811B81F6
:1007A0000E5D1F4F6A807B8094E4690E711CC80146
:1007B000E9D35816C8F4652DC8015DD46B017C01DE
:1007C0006FEF650DC30157D49B01AC01C701B601A2
:1007D0000E948E119B01AC01C501B4010E9408105A
:1007E0004B015C015394E3CF1982C12CD12C7601CB
:1007F0008A819B81C7D399819817D8F469818A81AE
:100800009B8139D42B013C016981C10134D49B0106
:10081000AC01C301B2010E948E119B01AC01C70162
:10082000B6010E9408106B017C0189818F5F89836A
:10083000DFCFA5019401C701B6010E9407106B012B
:100840007C0160E0C80117D49B01AC01C701B6016F
:100850000E9470106B017C018A819B818C5B9F4F91
:100860009B838A83B701A601C6D38A819B81DAD391
:10087000C701B6010F900F900F90DF91CF911F919C
:100880000F91FF90EF90DF90CF90BF90AF909F902F
:100890008F907F906F905F904F903F902F90089532
:1008A00060E08C5B9F4FE7C38F929F92AF92BF92A5
:1008B000CF92DF92EF92FF92CF93DF9300D000D0E0
:1008C0001F92CDB7DEB74B015C01C0906405D0909C
:1008D0006505E0906605F090670520E030E0A9012D
:1008E000C701B6010E946C10882389F0C09255019F
:1008F000D0925601E0925701F0925801109264058F
:100900001092650510926605109267052FC08091C0
:10091000550190915601A0915701B09158018093D3
:10092000640590936505A0936605B093670581E320
:100930008983E7D56B017C012FE632E143E85AE376
:10094000C501B4010E948E119B01AC01C701B60123
:100950000E9407106A837B838C839D8325E0AE0110
:100960004F5F5F4F64E581E391E027D40F900F90D4
:100970000F900F900F90DF91CF91FF90EF90DF904D
:10098000CF90BF90AF909F908F900895CF93DF93BB
:1009900000D000D01F92CDB7DEB780E38983B1D5F8
:1009A0006A837B838C839D8325E0AE014F5F5F4F1D
:1009B00064E581E391E001D40F900F900F900F90C8
:1009C0000F90DF91CF910895CF93DF93CDB7DEB72E
:1009D00028970FB6F894DEBF0FBECDBF5FDD6983E9
:1009E0007A838B839C8363DD6D837E838F8398877B
:1009F00028E0AE014F5F5F4F65E485E391E0DDD312
:100A000028960FB6F894DEBF0FBECDBFDF91CF9111
:100A10000895CF93DF9300D000D0CDB7DEB7CFDC01
:100A200069837A838B839C8324E0AE014F5F5F4FA1
:100A300062E48BE391E0C1D30F900F900F900F9081
:100A4000DF91CF910895CF92DF92EF92FF92CF93F3
:100A5000DF93CDB7DEB72B970FB6F894DEBF0FBE8E
:100A6000CDBF76DC6B017C0120E030E040E850E453
:100A70000E946C1018163CF18091590190915A0116
:100A8000843F914004F110925A011092590182E47E
:100A9000898381E48A8384E58B8380E28C838CE480
:100AA0008D838FE48E8387E58F83C886D986EA8617
:100AB000FB862BE0AE014F5F5F4F61E289E391E07F
:100AC0007CD380E0F1D18091590190915A01843F0B
:100AD00021E092072CF4019690935A0180935901DA
:100AE0002B960FB6F894DEBF0FBECDBFDF91CF912E
:100AF000FF90EF90DF90CF9008950F931F93CF93C7
:100B0000DF93CDB7DEB72D970FB6F894DEBF0FBEDB
:100B1000CDBF75D3882309F4BBC174D3182F8FE3DD
:100B20008D87133509F44FC1E8F41F3209F44FC023
:100B300050F41B3209F45EC01D3209F46EC01A3243
:100B400009F099C131C0153409F4DAC020F4123427
:100B500009F4F4C090C1103509F417C1113509F436
:100B60005DC189C1103709F401C178F4123609F466
:100B7000DFC020F4143509F488C07DC1143609F4AF
:100B800066C1153609F4B6C076C1133709F41BC126
:100B900020F4113709F423C16EC1143709F457C08A
:100BA0001E3709F44DC067C12AD3893008F470C1DB
:100BB00035D368E0CE0101963BD32D813E814F8134
:100BC000588569817A818B819C8120D55EC117D33C
:100BD000893008F45DC122D368E0CE01019628D3A4
:100BE0002D813E814F81588569817A818B819C81DD
:100BF00027D54BC104D3893008F44AC10FD368E02C
:100C0000CE01019615D32D813E814F815885698192
:100C10007A818B819C812ED538C1F1D2893008F43C
:100C200037C1FCD268E0CE01019602D32D813E810E
:100C30004F81588569817A818B819C8135D525C109
:100C4000DED2882309F424C18AE895E0FEC0D7D219
:100C5000823008F41DC1E2D261E0CE010196E8D2F3
:100C60008981803339F0813351F480E090E0A0E84D
:100C7000BFEB2DC080E090E0A0E8BFEB1DC021E0FD
:100C8000AE01435F5F4F64E732C0B9D2863008F4EB
:100C9000FFC0C4D265E0CE010196CAD289818033FB
:100CA00039F08133F9F48A819B81AC81BD810FC019
:100CB0008A819B81AC81BD8180936403909365039D
:100CC000A0936603B093670383E693E0BEC080936E
:100CD000640590936505A0936605B093670583E668
:100CE00095E0B3C021E0AE01435F5F4F64E58EE362
:100CF00091E092C084D2882309F4CAC08FD215C073
:100D00007ED2853008F4C4C089D264E0CE01019659
:100D10008FD289819A81AB81BC8180935705909352
:100D20005805A0935905B0935A0586E595E08DC006
:100D300066D2882309F4ACC071D215C060D2853068
:100D400008F4A6C06BD264E0CE01019671D289810D
:100D50009A81AB81BC818093B2059093B305A09337
:100D6000B405B093B50581EB95E06FC048D28530EE
:100D700008F48EC053D264E0CE01019659D2898125
:100D80009A81A2D08B819C8128C039D2882309F412
:100D90007FC044D268E0CE0101964AD289819A810F
:100DA00093D08B819C81AFD08D819E81AF81B8859E
:100DB0008093710590937205A0937305B0937405A9
:100DC00080E795E042C01BD2882309F461C026D297
:100DD00080E090E079D080E090E095D056C00FD2CE
:100DE000882309F455C01AD28CD369837A838B8304
:100DF0009C83A0D09E838D83ACD098878F8338DB73
:100E00007A87698740DB7C876B872CE0AE014F5F78
:100E10005F4F61E781E491E0D0D137C0F0D18530F8
:100E200008F436C0FBD164E0CE01019601D289817D
:100E30009A81AB81BC818093980590939905A0938A
:100E40009A05B0939B0587E995E0CCD21EC0D7D117
:100E50008930F0F0E3D168E0CE010196E9D10D814F
:100E60001E812F81388549815A816B817C818DE774
:100E700093E07ED20AC0D2D121E0AE01435F5F4F42
:100E8000612F8EE391E099D103C080E793E0AAD26D
:100E90002D960FB6F894DEBF0FBECDBFDF91CF9178
:100EA0001F910F910895E8C1882321F0809181005E
:100EB000816003C0809181008E7F809381000895BE
:100EC0008091810081700895CF93DF93EC01892B8D
:100ED00051F0809181008160809381001C161D0675
:100EE0002CF42A9809C0ECDF882399F32A9AD7FFBB
:100EF00003C0D195C195D109D0938B00C0938A00CE
:100F0000DF91CF910895009751F0209181002160E9
:100F1000209381001816190614F4299806C0299AFE
:100F200097FF03C0919581959109909389008093D3
:100F3000880008952A9B08C080918A0090918B00B8
:100F4000919581959109089580918A0090918B00E7
:100F50000895299B08C080918800909189009195FF
:100F60008195910908958091880090918900089554
:100F7000FC0110A211A20895FC01F3951082319694
:100F800010820895FC0191A180A1981B892F877080
:100F90000895DC01AF5FBE4FFC01F3958C91908109
:100FA000891B0895FC0191A1DF0184E0989FA00DA9
:100FB000B11D11244D935D936D937C9313979F5FA7
:100FC000977091A380A1981303C09F5F977090A31F
:100FD0000895FC01EF5FFE4F2081DC01A20FB11DDF
:100FE0006C9331E0320F308331978081381302C027
:100FF0002E5F20830895FC0190A19150977090A3DB
:10100000DF0184E0989FA00DB11D11244D935D93E5
:101010006D937C93139781A1981303C0915097709F
:1010200091A30895FC0191A180A1981769F09150B6
:10103000977091A384E0989FE00DF11D11246081C9
:10104000718182819381089560E070E0CB01089501
:101050009C01FC01F3959081D901AF5FBE4F8C914B
:10106000891739F0D901A90FB11D8C919F5F908329
:10107000089580E00895FC0190A1690F677084E0F5
:10108000689FE00DF11D112460817181828193813F
:101090000895FC01F3952081620FFC01E60FF11D1C
:1010A00080810895FC0190A1690F677084E0689FBA
:1010B000E00DF11D11242083318342835383089571
:1010C0001F93CF93DF9376D48091BF058430F9F4DA
:1010D00082E08093E9008091E80082FF18C080914F
:1010E000F300C091F200D0E0D82B10E0812F90E007
:1010F0008C179D0738F46091F1008DE592E069DF6F
:101100001F5FF4CF8091E8008B778093E800809197
:10111000BF058430F9F481E08093E9008091E80014
:1011200080FF18C0C0E08BE591E033DFC81738F4CA
:101130008BE591E08DDF8093F100CF5FF4CF80915C
:10114000E8008E778093E800A3D48091E8008E7742
:101150008093E800DF91CF911F910895682F8BE570
:1011600091E037CF0F931F93CF93DF93EC018C0166
:10117000060F111DC017D10719F08991EFDFFACFC3
:10118000DF91CF911F910F9108951F93CF93DF931C
:10119000EC0180E011E0180FFE01E80FF11D8081E5
:1011A000DDDF812FFE01E10FF11D90819111F2CF62
:1011B00080E0DF91CF911F91D1CFEF92FF920F93FB
:1011C0001F93CF93DF93EC01062F7A01122FFC01BE
:1011D00001900020E9F73197E81BF90B82E0820FBC
:1011E0008E0FBCDFCE01D1DF802FB8DF612FC701AA
:1011F000DF91CF911F910F91FF90EF90B3CF8DE5CD
:1012000092E0C7CE8DE592E0C4DE882329F060919C
:101210005D038DE592E03DCF80E008958DE592E09D
:10122000B8DE882319F08DE592E012CF80E00895B2
:10123000FF920F931F93CF93DF93F82E092F162F52
:101240008DE592E0A6DE811780F0CF2DD02FCE0164
:10125000810F911D8C01C017D10729F08DE592E017
:10126000F7DE8993F8CF81E001C080E0DF91CF9174
:101270001F910F91FF90089582E08093E900E8EEBE
:10128000F0E080818B7780838DE592E075CE8DE5EF
:1012900092E072DE8BE591E06FDE84B7877F84BFDA
:1012A0000FB6F894A89580916000886180936000E3
:1012B000109260000FBE90E080E80FB6F894809323
:1012C0006100909361000FBE49D27894089508950B
:1012D000089542E161E881E087D342E160E882E07D
:1012E00083D342E061EC83E07FD31092020110923D
:1012F0000301109204011092050108958091C10527
:10130000813229F0823249F1803289F512C0809110
:10131000C005813A61F58091E800877F8093E800FD
:1013200067E070E082E091E0E6D38091E8008B779F
:1013300011C08091C0058132D1F48091E800877F8F
:101340008093E80067E070E082E091E032D4809121
:10135000E8008E778093E80008958091C00581327F
:1013600031F48091E800877F8093E80072C308958C
:101370000F931F93CF93DF93EC018C0104571F4F02
:1013800023EC35EF48E451E4F801608171818281FA
:1013900093813ED6F8016083718382839383CC5D11
:1013A000DE4F23EC35EF48E451E4688179818A818E
:1013B0009B812ED6688379838A839B83DF91CF912B
:1013C0001F910F910895FC01108241835283638322
:1013D00074831286118615821682178210863487CE
:1013E00023870895CF93DF93EC0181E08883C9D0F0
:1013F0009A878987BDD06D837E838F839887DF919D
:10140000CF910895CF93DF93EC0120E030E0A90164
:1014100069817A818B819C815FD687FD0AC0CE016C
:101420000596B5D029813A814B815C8173D787FDC0
:1014300002C0888101C080E0DF91CF9108958F9232
:101440009F92AF92BF92EF92FF921F93CF93DF9341
:10145000EC01D8DF182F882391F1EB84FC84E11490
:10146000F10461F169857A8580E090E0A1D62FE6EC
:1014700032E143E85AE352D74B015C016D817E8132
:101480008F81988595D69B01AC01C501B401C0D56B
:10149000F701099576D09A8789876AD06D837E8314
:1014A0008F83988720E030E0A90169817A818B8160
:1014B0009C8112D687FF03C0188201C010E0812FE3
:1014C000DF91CF911F91FF90EF90BF90AF909F90D1
:1014D0008F90089584B584BD85B5836085BD89EFFF
:1014E00087BD16BCEEE6F0E0808182608083789450
:1014F00010925F03109260031092610310926203D6
:1015000008958F929F92AF92BF92CF92DF92EF9207
:10151000FF9280905F0390906003A0906103B09071
:10152000620366B584E0689FB0011124072E000CA9
:10153000880B990B3FD62DEB37E346E855E3EED603
:101540006B017C01C501B40133D62FE632E143E8DB
:101550005AE3E4D69B01AC01C701B60159D5FF900F
:10156000EF90DF90CF90BF90AF909F908F900895B5
:1015700060915F03709160038091610390916203B9
:10158000089586B524E0829FC001112408950F9329
:101590001F93FC0180915F0390916003A091610310
:1015A000B09162030081118122813381BC01CD01A0
:1015B000601B710B820B930BFBD51F910F9108954C
:1015C0001F920F920FB60F9211248F939F93AF9398
:1015D000BF9316BC80915F0390916003A09161035B
:1015E000B09162030196A11DB11D80935F0390939A
:1015F0006003A0936103B0936203BF91AF919F9189
:101600008F910F900FBE0F901F901895CF93DF937F
:1016100000D000D0CDB7DEB781D669837A838B83C3
:101620009C8324E0AE014F5F5F4F6AE28BE391E061
:10163000C4DD0F900F900F900F90DF91CF91089520
:10164000CF93DF9300D000D0CDB7DEB749D5698303
:101650007A838B839C8324E0AE014F5F5F4F6FE200
:101660008BE391E0AADD0F900F900F900F90DF9128
:10167000CF910895CF93DF9300D000D0CDB7DEB7E0
:10168000C7D469837A838B839C8324E0AE014F5F48
:101690005F4F6BE28BE391E090DD0F900F900F9026
:1016A0000F90DF91CF910895CF93DF9300D000D0BA
:1016B000CDB7DEB7ACD469837A838B839C8324E077
:1016C000AE014F5F5F4F6DE28BE391E076DD0F90EF
:1016D0000F900F900F90DF91CF9108950F931F936C
:1016E000CF93DF934BD052D0C8EDD0E088818F7775
:1016F000888388818068888388818F7D888319BCEE
:101700001092BF051092C8051092CA051092C90523
:1017100000EE10E0F80180818B7F808388818160FA
:10172000888342E060E080E05FD1E1EEF0E080811C
:101730008E7F8083E2EEF0E0808181608083808113
:1017400088608083F80180818E7F808388818061BA
:101750008883DF91CF911F910F910895E8EDF0E01C
:1017600080818F7E8083E7EDF0E0808181608083DF
:1017700084E082BF81E08093BE05B0CFE8EDF0E069
:1017800080818E7F80831092E20008951092DA00AB
:101790001092E10008951F920F920FB60F9211243C
:1017A0002F933F934F935F936F937F938F939F9369
:1017B000AF93BF93EF93FF938091E10082FF0AC044
:1017C0008091E20082FF06C08091E1008B7F8093D0
:1017D000E100EFD08091DA0080FF1DC08091D80039
:1017E00080FF19C08091DA008E7F8093DA008091AB
:1017F000D90080FF0CC080E189BD82E189BD09B4B8
:1018000000FEFDCF81E08093BF0561DD04C019BCFF
:101810001092BF055DDD8091E10080FF18C08091CE
:10182000E20080FF14C08091E2008E7F8093E2008E
:101830008091E20080618093E2008091D800806214
:101840008093D80019BC85E08093BF05B2D0809109
:10185000E10084FF2FC08091E20084FF2BC080E173
:1018600089BD82E189BD09B400FEFDCF8091D80019
:101870008F7D8093D8008091E1008F7E8093E1007E
:101880008091E2008F7E8093E2008091E20081608F
:101890008093E2008091C805882311F084E007C09E
:1018A0008091E30087FD02C081E001C083E0809366
:1018B000BF057FD08091E10083FF27C08091E200C7
:1018C00083FF23C08091E100877F8093E10082E065
:1018D0008093BF051092C8058091E1008E7F8093B0
:1018E000E1008091E2008E7F8093E2008091E2002F
:1018F00080618093E20042E060E080E075D08091FA
:10190000F00088608093F00054D0FF91EF91BF9178
:10191000AF919F918F917F916F915F914F913F9187
:101920002F910F900FBE0F901F9018951F920F923E
:101930000FB60F9211242F933F934F935F936F93A2
:101940007F938F939F93AF93BF93CF93DF93EF9347
:10195000FF93C091E900CF708091EC00D82FD17037
:1019600080FDD0E81092E9008091F000877F80939D
:10197000F0007894BFD11092E9008091F000886067
:101980008093F000CD2BCF70C093E900FF91EF91D1
:10199000DF91CF91BF91AF919F918F917F916F9187
:1019A0005F914F913F912F910F900FBE0F901F901D
:1019B00018950895CF938091BF05882399F0C09121
:1019C000E900CF709091EC00892F817090FD80E844
:1019D000C82B1092E9008091E80083FD8BD1CF7075
:1019E000C093E900CF910895982F973068F59093B0
:1019F000E900981739F07091EC002091ED005091BA
:101A0000F00003C0242F762F50E021FD02C09F5F1D
:101A1000ECCF3091EB003E7F3093EB003091ED0046
:101A20003D7F3093ED003091EB0031603093EB005F
:101A30007093EC002093ED005093F0002091EE00A5
:101A400027FDE5CF80E008958F708093E90081E065
:101A500008958091C00587FF11C08091E80082FD44
:101A600005C08091BF058111F8CF11C08091E800B9
:101A70008B770BC08091BF05882349F08091E800E7
:101A800080FFF8CF8091E8008E778093E80008957A
:101A90002091E4003091E50095E64091EC00842F20
:101AA000817040FF23C08091E80080FD1DC08091BF
:101AB000BF05882399F0853099F08091EB0085FD72
:101AC00011C04091E4005091E5002417350729F337
:101AD000915011F09A01E1CF84E0089582E00895D9
:101AE00083E0089581E0089580E008954091E80042
:101AF00042FFDDCF08952091C6053091C705261716
:101B0000370748F06115710539F42091E8002E7708
:101B10002093E80001C0B901FC0120E061157105C6
:101B200079F18091BF058823F1F18530F1F1809141
:101B3000E80083FD3CC08091E80082FD2EC08091CA
:101B4000E80080FFEBCF2091F3008091F20090E05D
:101B5000922B6115710551F08830910538F421916F
:101B60002093F100615071090196F3CF21E00897AD
:101B700009F020E08091E8008E778093E800CECFD6
:101B80002111CFCF0AC08091BF05882361F0853035
:101B900061F08091E80083FD0AC08091E80082FF37
:101BA000F2CF80E0089582E0089583E0089581E017
:101BB00008956115710529F42091E8002B77209391
:101BC000E800FC016115710541F18091BF05882392
:101BD00061F1853061F18091E80083FD24C080913E
:101BE000E80082FFEFCF2091F3008091F20090E0B7
:101BF000922B892B31F08091F10081936150710912
:101C000091F78091E8008B778093E800DBCF80919B
:101C1000BF05882351F0853051F08091E80080FFA6
:101C2000F6CF80E0089581E0089582E0089583E092
:101C300008952091C6053091C7052617370748F04B
:101C40006115710539F42091E8002E772093E800A2
:101C500001C0B901FC0120E06115710591F180918D
:101C6000BF05882309F440C0853009F43FC0809146
:101C7000E80083FD3DC08091E80082FD2FC0809187
:101C8000E80080FFE9CF2091F3008091F20090E01E
:101C9000922B6115710559F08830910540F424911B
:101CA0002093F1003196615071090196F2CF21E045
:101CB000089709F020E08091E8008E778093E80093
:101CC000CBCF2111CCCF0AC08091BF05882361F012
:101CD000853061F08091E80083FD0AC08091E800C2
:101CE00082FFF2CF80E0089582E0089583E00895B6
:101CF00081E008951F93CF93DF93CDB7DEB7AA9706
:101D00000FB6F894DEBF0FBECDBFE0ECF5E08091DA
:101D1000F100819325E0E83CF207C9F7EFDA809102
:101D2000E80083FF26C18091C0059091C105492F2D
:101D300050E04A30510508F01CC1FA01EA5AFF4F41
:101D400060C1803821F0823809F013C108C0809149
:101D5000C9059091CA05992389F082600FC08091CE
:101D6000C4058F70873008F004C18093E90080912A
:101D7000EB0085FB882780F91092E9009091E8003C
:101D8000977F9093E8008093F1001092F100CCC00F
:101D9000282F2D7F09F0EDC0882319F0823061F0E3
:101DA000E8C08091C205813009F0E3C0933009F0AA
:101DB00080E08093CA052EC08091C20581112AC09F
:101DC0008091C4058F702FEF280F263008F0D1C006
:101DD0008093E9002091EB0020FF1CC0933021F498
:101DE0008091EB00806214C09091EB009061909321
:101DF000EB0021E030E0A90102C0440F551F8A9595
:101E0000E2F74093EA001092EA008091EB008860CC
:101E10008093EB001092E9008091E800877F809327
:101E2000E80017DEA6C08111A4C01091C2051F777B
:101E30008091E3008078812B8093E3008091E8001B
:101E4000877F8093E80005DE8091E80080FFFCCF6B
:101E50008091E30080688093E300111102C082E06A
:101E600001C083E08093BF0584C08058823008F0B1
:101E700080C08091C2059091C3058C3D53E09507C9
:101E800071F583E08A838AE289834FB7F894DE0193
:101E9000139620E03EE051E2E32FF0E0509357002C
:101EA000E49120FF03C0E295EF703F5FEF708E2F4B
:101EB00090E0EA3010F0C79601C0C0968D939D93D4
:101EC0002F5F243149F74FBF8091E800877F8093CF
:101ED000E8006AE270E0CE0101960DDE14C0609168
:101EE000C4057091C505AE014F5F5F4F5AD0BC016C
:101EF000892B09F43EC09091E800977F9093E80009
:101F000089819A8196DE8091E8008B778093E80042
:101F100030C0803871F58091E800877F8093E800B9
:101F20008091C8058093F1008091E8008E7777CF8B
:101F300081111FC08091C2059091C3059927029716
:101F4000C4F48091E800877F8093E8008091C20507
:101F50008093C8057EDD8091C805811106C08091FF
:101F6000E30087FD02C081E001C084E08093BF05EB
:101F7000B0D98091E80083FF0AC08091E800877F94
:101F80008093E8008091EB0080628093EB00AA963A
:101F90000FB6F894DEBF0FBECDBFDF91CF911F917A
:101FA0000895292F33272230310559F02330310588
:101FB00069F021303105E9F482E190E020E731E079
:101FC0001CC08EE390E022E331E017C099278130F6
:101FD000910549F028F0029761F4E0ECF0E005C0CB
:101FE000EEE2F1E002C0EAEFF0E0849190E09F01C0
:101FF00004C080E090E020E030E0FA0131832083EB
:102000000895EE0FFF1F0590F491E02D09945058AC
:10201000BB27AA270ED044C135D130F03AD120F0E9
:1020200031F49F3F11F41EF42AC10EF4E095E7FB52
:1020300020C1E92F46D180F3BA17620773078407DE
:10204000950718F071F49EF55EC10EF4E0950B2E25
:10205000BA2FA02D0B01B90190010C01CA01A001FA
:102060001124FF27591B99F0593F50F4503E68F155
:102070001A16F040A22F232F342F4427585FF3CF96
:10208000469537952795A795F0405395C9F77EF467
:102090001F16BA0B620B730B840BBAF09150A1F0B0
:1020A000FF0FBB1F661F771F881FC2F70EC0BA0F36
:1020B000621F731F841F48F4879577956795B795BE
:1020C000F7959E3F08F0B3CF9395880F08F09927B6
:1020D000EE0F979587950895A8D008F481E00895AC
:1020E0000CD0DEC0D6D040F0CDD030F021F45F3F30
:1020F00019F0BFC0511108C1C2C0E3D098F39923B1
:10210000C9F35523B1F3951B550BBB27AA276217BB
:102110007307840738F09F5F5F4F220F331F441F00
:10212000AA1FA9F333D00E2E3AF0E0E830D0915038
:102130005040E695001CCAF729D0FE2F27D0660F25
:10214000771F881FBB1F261737074807AB07B0E864
:1021500009F0BB0B802DBF01FF2793585F4F2AF07A
:102160009E3F510568F085C0CFC05F3FECF3983EBD
:10217000DCF3869577956795B795F7959F5FC9F7D7
:10218000880F911D9695879597F90895E1E0660F60
:10219000771F881FBB1F621773078407BA0720F0D9
:1021A000621B730B840BBA0BEE1F88F7E095089542
:1021B000E89409C097FB3EF49095809570956195E1
:1021C0007F4F8F4F9F4F9923A9F0F92F96E9BB2797
:1021D0009395F695879577956795B795F111F8CF13
:1021E000FAF4BB0F11F460FF1BC06F5F7F4F8F4F7E
:1021F0009F4F16C0882311F096E911C0772321F074
:102200009EE8872F762F05C0662371F096E8862F0B
:1022100070E060E02AF09A95660F771F881FDAF762
:10222000880F9695879597F90895990F0008550F8F
:10223000AA0BE0E8FEEF16161706E807F907C0F04C
:1022400012161306E407F50798F0621B730B840B54
:10225000950B39F40A2661F0232B242B252B21F42E
:1022600008950A2609F4A140A6958FEF811D811DCE
:10227000089597F99F6780E870E060E008959FEF08
:1022800080EC089500240A9416161706180609060D
:10229000089500240A9412161306140605060895DC
:1022A000092E0394000C11F4882352F0BB0F40F464
:1022B000BF2B11F460FF04C06F5F7F4F8F4F9F4FA4
:1022C000089557FD9058440F551F59F05F3F71F026
:1022D0004795880F97FB991F61F09F3F79F087958D
:1022E0000895121613061406551FF2CF4695F1DF16
:1022F00008C0161617061806991FF1CF86957105A6
:10230000610508940895E894BB2766277727CB01D9
:1023100097F908958ADF08F48FEF08950BD0C0CFA6
:10232000B1DF28F0B6DF18F0952309F0A2CFA7CFD0
:102330001124EACFC6DFA0F3959FD1F3950F50E0AB
:10234000551F629FF001729FBB27F00DB11D639F67
:10235000AA27F00DB11DAA1F649F6627B00DA11D0D
:10236000661F829F2227B00DA11D621F739FB00DB3
:10237000A11D621F839FA00D611D221F749F332723
:10238000A00D611D231F849F600D211D822F762FBC
:102390006A2F11249F5750408AF0E1F088234AF0B9
:1023A000EE0FFF1FBB1F661F771F881F9150504005
:1023B000A9F79E3F510570F05CCFA6CF5F3FECF3CD
:1023C000983EDCF3869577956795B795F795E795F1
:1023D0009F5FC1F7FE2B880F911D9695879597F902
:0623E0000895F894FFCF00
:1023E600010000000000000008C2D58238C2D58274
:1023F60039A340C439C2D58239C2D582380000809B
:102406003F927F60C046829440A0872FC0024C1C3A
:102416003F636366006366660063376366006363F3
:08242600006366686868680045
:00000001FF
