:10000000B0C00000C1C00000BFC00000BDC0000003
:10001000BBC00000B9C00000B7C00000B5C0000000
:10002000B3C00000B1C00000AFC00000ADC0000010
:10003000ABC00000A9C00000A7C00000A5C0000020
:10004000A3C00000A1C000009FC000009DC0000030
:100050009BC0000099C0000097C0000095C0000040
:1000600093C0000091C000008FC000008DC0000050
:100070008BC0000089C0000087C0000085C0000060
:1000800083C0000081C000007FC000007DC0000070
:100090007BC0000079C0000077C0000075C0000080
:1000A00073C0000071C000006FC000002E02240267
:1000B0002E022E022E022E022E022E022E022E02C0
:1000C0002E022E022E022E021F022E021A02ED0115
:1000D000F201F701FC01010206020B0210021502F7
:1000E0002E022E022E022E022E0229022E022E0295
:1000F0002E022E022E022E022E022E022E022E0280
:100100002E022E022E022E022E022E022E022E026F
:100110002E022E022E022E022E022E022E022E025F
:100120002E022E022E022E022E022E022E0271010D
:1001300076017F017601840189012E028E019301EF
:1001400098019D01A201A701AC01B101B601BB015B
:10015000C001C501CA01CF01D401D901DE01E3010B
:10016000E80111241FBECFEFDAE0DEBFCDBF11E002
:10017000A0E0B1E0E2ECF4E002C005900D92AA37F5
:10018000B107D9F702D09BC13BCF3F9A4AEF50E06D
:1001900060E070E083E594D04AEF50E060E070E00A
:1001A0008FE48ED04AEF50E060E070E083E588D0C5
:1001B0004AEF50E060E070E080E282D0E7CF0F933A
:1001C0001F93479A00E010E09801061717072807C9
:1001D000390759F0EFE9FFE03197F1F700C000006F
:1001E0000F5F1F4F2F4F3F4FF0CF1F910F9108957B
:1001F0000F931F93479800E010E098010617170728
:100200002807390759F0EFE9FFE03197F1F700C00F
:1002100000000F5F1F4F2F4F3F4FF0CF1F910F91E7
:100220000895CF92DF92EF92FF926B017C01C7DFBE
:10023000C701B601FF90EF90DF90CF90D9CFCF925A
:10024000DF92EF92FF926B017C01A3E0B0E09B0193
:10025000AC0114D1B4DFC701B601FF90EF90DF907D
:10026000CF90C6CF660F771F881F991FC1CFCF923F
:10027000DF92EF92FF920F931F93CF93DF936A0168
:100280007B01EC018C01075F1F4F8991882369F086
:10029000C017D10751F08E3221F4C701B601C1DF7A
:1002A000F4CFC701B601CBDFF0CFC701B601DF91B4
:1002B000CF911F910F91FF90EF90DF90CF90D2CF11
:1002C000CF92DF92EF92FF926A017B0190E0EFD034
:1002D00080978B35910508F0C1C08A5A9F4FFC0169
:1002E000C7C0B701A6018BE191E004C0B701A60128
:1002F0008DE491E0FF90EF90DF90CF90B8CFB70101
:10030000A60180E091E0F6CFB701A6018CE591E06F
:10031000F1CFB701A60185E091E0ECCFB701A601CE
:1003200087E491E0E7CFB701A60185E591E0E2CF50
:10033000B701A6018AE091E0DDCFB701A6018AE10D
:1003400091E0D8CFB701A6018FE091E0D3CFB701FC
:10035000A60181E691E0CECFB701A6018BE591E041
:10036000C9CFB701A60180E691E0C4CFB701A601CD
:1003700084E191E0BFCFB701A60189E191E0BACF56
:10038000B701A60181E091E0B5CFB701A6018EE4E7
:1003900091E0B0CFB701A60182E691E0ABCFB70103
:1003A000A60184E291E0A6CFB701A6018EE191E01B
:1003B000A1CFB701A6018EE691E09CCFB701A601BF
:1003C00083E291E097CFB701A6018DE691E092CF4D
:1003D000B701A60183E591E08DCFB701A60188E2C0
:1003E00091E088CFB701A6018EE291E083CFB701FB
:1003F000A60184E391E07ECFB701A6018AE391E0F4
:1004000079CFB701A60180E491E074CFB701A601CE
:1004100086E491E06FCFB701A6018CE491E06ACF4A
:10042000B701A60182E591E065CFB701A60188E595
:1004300091E060CFB701A6018EE591E05BCFB701F7
:10044000A60184E691E056CFB701A6018BE691E0C4
:1004500051CFB701A60182E791E04CCFA7E0B0E011
:10046000A70196010BD0FF90EF90DF90CF90C0CE08
:10047000EE0FFF1F0590F491E02D099409D0A59F80
:10048000900DB49F900DA49F800D911D112408958F
:10049000A29FB001B39FC001A39F700D811D1124C5
:1004A000911DB29F700D811D1124911D0895911110
:1004B000089581548A5108F4805E855A0895F8940D
:0204C000FFCF6C
:1004C2002D2E2D2E002E2E2D2E002E2D2D2D002EDA
:1004D2002D2E2E002E2D2D2E002D2D2E2D002E2ECA
:1004E2002E2D002D2E2E2D002E5F5F5F5F002E2EF3
:1004F2005F5F5F002E2E2E5F5F002E2E2E2E5F007E
:100502002E2E2E2E2E002D2E2E2E2E002D2D2E2E68
:100512002E002D2D2D2E2E002D2D2D2D2E002D2D8C
:100522002D2D2D002E2D2E2D2E2D002D2E2D2E2D4E
:0A0532002D002E2E2D2D2E2E000080
:00000001FF
