:10000000C0C00000DAC00000D8C00000D6C00000A8
:10001000D4C00000D2C00000D0C00000B6C30000B1
:10002000CCC0000055C300000C94030E0C94CE0EFF
:10003000C4C00000C2C00000C0C00000BEC00000BC
:10004000BCC00000BAC00000B8C00000B6C00000CC
:10005000B4C000000C94180DB0C00000AEC0000089
:10006000ACC00000AAC00000A8C00000A6C00000EC
:10007000A4C00000A2C00000A0C000009EC00000FC
:100080009CC000009AC0000098C0000096C000000C
:1000900094C0000092C0000090C000008EC000001C
:1000A0008CC000008AC0000088C00000D910001178
:1000B000F1110011F1114B116D11F111C111D0119C
:1000C00038034D00450047004E0035003400300035
:1000D00020004C0061006200200050006F006C00A6
:1000E0006F006C00750020005A0075006D006F00F5
:1000F00020004300610072000000320343006F00E3
:100100006C006F007200610064006F0020005300FB
:10011000630068006F006F006C0020006F006600D5
:1001200020004D0069006E006500730000000403AC
:10013000090409023E0002010080320904000001A6
:100140000202010005240010010424020605240611
:100150000001070583030800FF09040100020A00EB
:1001600000000705020210000507058102100005C6
:100170001201100102000008FB1F00230100010210
:10018000DC0111241FBECFEFDAE0DEBFCDBF11E0EE
:10019000A0E0B1E0E8EBF8E202C005900D92AE35C8
:1001A000B107D9F725E0AEE5B1E001C01D92A33E4D
:1001B000B207E1F7DBD00C945A1422CFAF92BF9272
:1001C000CF92DF92EF92FF920F931F930E94C00A8B
:1001D0000E94A20C10D209D180E991E00E9400098E
:1001E000E0900001F09001010091020110910301E3
:1001F00080EB98E09F938F9381E998E09F938F9392
:100200008FE593E09F938F9386E593E09F938F9381
:1002100083E48F9388EC8F931F921F9282E48F93D5
:100220008BEB8F9384EC8F938DE68F938FE9A82EC1
:100230008BEAB82E8DEAC82E8DE3D82E20910401CA
:1002400045E051E06DE071E085E993E00E94310BFB
:100250002EED30E040E050E060E87FEB82EA95E090
:100260000E941B0C2AEA36E04FE852EC65EF7CE373
:1002700085E995E00E941B0C2CEB35E040E050E056
:1002800060E87FEB8BE793E00E941B0C2AE435E0EB
:1002900040E050E060E87FEB8BE795E00E941B0CAC
:1002A00020E838E040E050E068EC72E488E893E051
:1002B0000E941B0C2AED35E040E050E060E87FEB47
:1002C0008EE695E00E941B0C2FEF35E040E050E0F9
:1002D00060E87FEB89EC95E00E941B0C29E136E099
:1002E0004FE652E163E07BE38CEB95E00E941B0C50
:1002F00023E736E040E050E060E87FEB88E895E0F7
:100300000E941B0C29E736E040E050E060E87FEBFC
:100310008FEA95E00E941B0C409100015091010171
:10032000609102017091030125EA36E081E695E0D3
:100330000E941B0C85E995E00E942A0C8CEB95E04D
:100340000E942A0C8DB79EB740960FB6F8949EBFB8
:100350000FBE8DBF81E695E01F910F91FF90EF904A
:10036000DF90CF90BF90AF900C942A0C60E070E0CB
:10037000CB0124DF40E050E0BA0185E993E029D1C8
:1003800040E050E0BA018DE294E023D10E94D90907
:1003900081E695E00E94570C88E895E00E94570C92
:1003A0008FEA95E00E94570C8EE695E00E94570C6C
:1003B00089EC95E00E94570C8CEB95E00E94570C5D
:1003C0008BE793E00E94570C8BE795E00E94570C57
:1003D00082EA95E00E94570C85E995E00E94570C4F
:1003E00088E893E00E94570CD1CFCF93DF93CDB72D
:1003F000DEB7A8970FB6F894DEBF0FBECDBFEAE711
:10040000F0E0808187608083808180688083ECE772
:10041000F0E0808180838081866080838081806439
:100420008083EEE7F0E080818064808384E1EEE108
:10043000F1E0DE01559601900D928A95E1F784E195
:10044000E2E3F1E0DE01119601900D928A95E1F769
:1004500024E0AE014F5F5F4FBE016B5E7F4F89EDC1
:1004600094E0E9D1A8960FB6F894DEBF0FBECDBFD9
:10047000DF91CF910895CF92DF92EF92FF9280911A
:100480007A00806480937A0080917A0086FDFCCFA8
:1004900080917800682F80917900782F80E090E03B
:1004A0000E94411320E030E040E25CE30E94F71339
:1004B0006B017C018091150190911601892B49F007
:1004C0001092160110921501B701A60189ED94E072
:1004D00009D2B701A60189ED94E0FF90EF90DF907B
:1004E000CF9034C289ED94E0D1C2AF92BF92CF9247
:1004F000DF92EF920F931F93CF93DF93EC01C9012B
:100500002E2DFE01E857FF4F408351836283738392
:100510003C96A082B182C282D38238971082118227
:100520001282138234961082118212821382A801E1
:10053000BC01CE0180D140E050E0BA01CE01DF9194
:10054000CF911F910F91EF90DF90CF90BF90AF9020
:10055000C9C10F931F93CF93DF93EC01F7D19B0198
:10056000AC01FE01E457FF4F60817181828193816C
:100570000E943F12C857DF4F288139814A815B8131
:100580000E94F7138B01D82FC92F20E030E048ECF0
:1005900053EC0E94A41287FD10C020E030E048EC2C
:1005A00053E4B8018D2F9C2F0E94F31318164CF4BE
:1005B00000E010E0D8ECC3E404C000E010E0D8ECA8
:1005C000C3ECB8018D2F9C2FDF91CF911F910F911C
:1005D000089588C19CB18FB196FB992790F98170DD
:1005E0008927089583B19CB192FB992790F9829550
:1005F0008170892708957894EE98EAE6F0E080818A
:100600008F7D8083808180618083E69AEE9AE8E620
:10061000F0E0808181608083EBE6F0E080818061A2
:100620008083D89A6E98769A8098889A24982C9A83
:100630006A98729ACFDF80936A018FB1817080933C
:100640006901D0DF809368018CB182FB882780F933
:100650008093670183B182958170809366011092C7
:100660006201109263011092640110926501109270
:100670005E0110925F011092600110926101089575
:10068000F89460916201709163018091640190918E
:10069000650178940895F89460915E0170915F010E
:1006A000809160019091610178940895E9DF0E9442
:1006B000431324E133E542EE5BE30C94F713EBDFE5
:1006C0000E94431324E133E542EE5BE30C94F713FD
:1006D0001F920F920FB60F9211242F933F934F93B7
:1006E0005F936F937F938F939F93AF93BF93EF939A
:1006F000FF9383B190916601829581709817A1F163
:1007000071DF90916701209168013CB140916201D5
:10071000509163016091640170916501892790E0B7
:1007200032FB332730F92327821B9109092E000C55
:10073000AA0BBB0B840F951FA61FB71F80936201E6
:1007400090936301A0936401B093650183B1829596
:1007500081708093660146DF809368018CB182FBD3
:10076000882780F980936701FF91EF91BF91AF9146
:100770009F918F917F916F915F914F913F912F91B9
:100780000F900FBE0F901F9018951F920F920FB6EB
:100790000F9211241F932F933F934F935F936F9367
:1007A0007F938F939F93AF93BF93CF93DF93EF93F9
:1007B000FF9310DF182FC0916901D0916A010ADF01
:1007C00040915E0150915F01609160017091610103
:1007D000C1272C2F30E08D27F901E81BF109CF014B
:1007E000092E000CAA0BBB0B840F951FA61FB71F69
:1007F00080935E0190935F01A0936001B0936101CB
:10080000E9DE80936A018FB1817080936901FF9165
:10081000EF91DF91CF91BF91AF919F918F917F9198
:100820006F915F914F913F912F911F910F900FBE4C
:100830000F901F9018955F926F927F928F929F9268
:10084000AF92BF92CF92DF92EF92FF920F931F93DE
:10085000CF93DF934C018B01542E752E622E17D54A
:10086000740182E2E80EF11CC70111D56401E6E6CD
:10087000CE0ED11CC6010BD55401F4E4AF0EB11C51
:10088000C50105D5E801052D172D712C7614D1F081
:100890004991599169917991C40113D5F801419118
:1008A0005191619171918F01C7010BD540E050E0EA
:1008B000BA01C6012FD540E050E0BA01C5012AD5E2
:1008C0007394E4CFDF91CF911F910F91FF90EF9040
:1008D000DF90CF90BF90AF909F908F907F906F9060
:1008E0005F900895AF92BF92CF92DF92EF92FF9206
:1008F0001F93CF93DF93EC016A017B0110E05C0151
:1009000086E6A80EB11CC501CCD4181738F4A7018F
:100910009601612FC5013FD51F5FF5CF10E0CC5B7D
:10092000DF4FCE01BED4181738F4A7019601612F0E
:10093000CE0131D51F5FF5CFDF91CF911F91FF9091
:10094000EF90DF90CF90BF90AF9008952F923F929D
:100950004F925F926F927F928F929F92AF92BF92CF
:10096000CF92DF92EF92FF920F931F93CF93DF937B
:1009700000D01F92CDB7DEB79B838A831C0186E629
:10098000280E311CC101C6D455245394812C912CBE
:1009900054010A811B810E5D1F4F6A807B8094E4A5
:1009A000690E711CC8017DD45816C8F4652DC801A4
:1009B000DBD46B017C016FEF650DC301D5D49B01C6
:1009C000AC01C701B6010E94F7139B01AC01C50140
:1009D000B4010E9440124B015C015394E3CF198291
:1009E000C12CD12C76018A819B815BD49981981787
:1009F000D8F469818A819B81B7D42B013C0169813C
:100A0000C101B2D49B01AC01C301B2010E94F71332
:100A10009B01AC01C701B6010E9440126B017C0131
:100A200089818F5F8983DFCFA5019401C701B6015A
:100A30000E943F126B017C0160E0C80195D49B01CC
:100A4000AC01C701B6010E94A8126B017C01AB0189
:100A5000BC018A819B818C5B9F4F5CD4C701B6012E
:100A60000F900F900F90DF91CF911F910F91FF90FA
:100A7000EF90DF90CF90BF90AF909F908F907F903E
:100A80006F905F904F903F902F90089560E08C5B47
:100A90009F4F6AC48F929F92AF92BF92CF92DF9284
:100AA000EF92FF92CF93DF9300D000D01F92CDB78B
:100AB000DEB74B015C01C0907C05D0907D05E090D5
:100AC0007E05F0907F0520E030E0A901C701B60166
:100AD0000E94A412882389F0C0926B01D0926C010D
:100AE000E0926D01F0926E0110927C0510927D05EE
:100AF00010927E0510927F052FC080916B0190911E
:100B00006C01A0916D01B0916E0180937C05909372
:100B10007D05A0937E05B0937F0581E3898329D766
:100B20006B017C012FE632E143E85AE3C501B401D1
:100B30000E94F7139B01AC01C701B6010E943F124E
:100B40006A837B838C839D8325E0AE014F5F5F4F7B
:100B500064E586E491E0AAD40F900F900F900F9077
:100B60000F90DF91CF91FF90EF90DF90CF90BF90EB
:100B7000AF909F908F900895CF93DF9300D000D0D7
:100B80001F92CDB7DEB780E38983F3D66A837B8378
:100B90008C839D8325E0AE014F5F5F4F64E586E463
:100BA00091E084D40F900F900F900F900F90DF91F1
:100BB000CF910895CF93DF93CDB7DEB728970FB6C7
:100BC000F894DEBF0FBECDBF71DD69837A838B835E
:100BD0009C8375DD6D837E838F83988728E0AE01CB
:100BE0004F5F5F4F65E48AE491E060D428960FB6CA
:100BF000F894DEBF0FBECDBFDF91CF910895CF93A4
:100C0000DF9300D000D0CDB7DEB76CDC69837A8388
:100C10008B839C8324E0AE014F5F5F4F62E480E5ED
:100C200091E044D40F900F900F900F90DF91CF91EF
:100C30000895CF92DF92EF92FF92CF93DF93CDB7DB
:100C4000DEB72B970FB6F894DEBF0FBECDBF13DC17
:100C50006B017C0120E030E040E850E40E94A412E7
:100C600018163CF180916F0190917001843F914082
:100C700004F11092700110926F0182E4898381E483
:100C80008A8384E58B8380E28C838CE48D838FE47C
:100C90008E8387E58F83C886D986EA86FB862BE01C
:100CA000AE014F5F5F4F61E28EE491E0FFD380E0E1
:100CB00028D280916F0190917001843F21E09207CA
:100CC0002CF401969093700180936F012B960FB6D0
:100CD000F894DEBF0FBECDBFDF91CF91FF90EF90B4
:100CE000DF90CF90089580E090E01BD280E090E00C
:100CF00037C2CF93DF93CDB7DEB72C970FB6F894FA
:100D0000DEBF0FBECDBF35D669837A838B839C83CC
:100D10003ED29E838D834AD298878F83B1DC7A87B7
:100D20006987B9DC7C876B872CE0AE014F5F5F4F32
:100D300061E783E591E0BAD32C960FB6F894DEBF55
:100D40000FBECDBFDF91CF910895AB01BC0185E906
:100D500093E047C50F931F93CF93DF93CDB7DEB7D3
:100D60002D970FB6F894DEBF0FBECDBFC1D3882339
:100D700009F4BBC1C0D3182F8FE38D87133509F455
:100D80004FC1E8F41F3209F44FC050F41B3209F48C
:100D90005EC01D3209F46EC01A3209F099C131C02B
:100DA000153409F4DAC020F4123409F4F4C090C107
:100DB000103509F417C1113509F45DC189C1103727
:100DC00009F401C178F4123609F4DFC020F41435B7
:100DD00009F488C07DC1143609F466C1153609F4DA
:100DE000B6C076C1133709F41BC120F4113709F4DA
:100DF00023C16EC1143709F457C01E3709F44DC022
:100E000067C176D3893008F470C181D368E0CE0120
:100E1000019687D32D813E814F81588569817A81E2
:100E20008B819C812BD65EC163D3893008F45DC170
:100E30006ED368E0CE01019674D32D813E814F813F
:100E4000588569817A818B819C8132D64BC150D380
:100E5000893008F44AC15BD368E0CE01019661D3C2
:100E60002D813E814F81588569817A818B819C815A
:100E700039D638C13DD3893008F437C148D368E04A
:100E8000CE0101964ED32D813E814F8158856981D7
:100E90007A818B819C8140D625C12AD3882309F48D
:100EA00024C182EA95E0FEC023D3823008F41DC13C
:100EB0002ED361E0CE01019634D38981803339F09D
:100EC000813351F480E090E0A0E8BFEB2DC080E0DA
:100ED00090E0A0E8BFEB1DC021E0AE01435F5F4F93
:100EE00064E732C005D3863008F4FFC010D365E054
:100EF000CE01019616D38981803339F08133F9F41C
:100F00008A819B81AC81BD810FC08A819B81AC812C
:100F1000BD8180937C0390937D03A0937E03B09367
:100F20007F038BE793E0BEC080937C0590937D05A3
:100F3000A0937E05B0937F058BE795E0B3C021E0D9
:100F4000AE01435F5F4F64E58AE591E092C0D0D285
:100F5000882309F4CAC0DBD215C0CAD2853008F490
:100F6000C4C0D5D264E0CE010196DBD289819A81DA
:100F7000AB81BC8180936F0590937005A093710540
:100F8000B09372058EE695E08DC0B2D2882309F445
:100F9000ACC0BDD215C0ACD2853008F4A6C0B7D263
:100FA00064E0CE010196BDD289819A81AB81BC817A
:100FB0008093CA059093CB05A093CC05B093CD0543
:100FC00089EC95E06FC094D2853008F48EC09FD232
:100FD00064E0CE010196A5D289819A81A2D08B814D
:100FE0009C8128C085D2882309F47FC090D268E014
:100FF000CE01019696D289819A8193D08B819C8172
:10100000AFD08D819E81AF81B88580938905909303
:101010008A05A0938B05B0938C0588E895E042C0C3
:1010200067D2882309F461C072D280E090E079D061
:1010300080E090E095D056C05BD2882309F455C07B
:1010400066D297D469837A838B839C83A0D09E8356
:101050008D83ACD098878F8313DB7A8769871BDBFE
:101060007C876B872CE0AE014F5F5F4F61E783E5C4
:1010700091E01CD237C03CD2853008F436C047D24C
:1010800064E0CE0101964DD289819A81AB81BC8109
:101090008093B0059093B105A093B205B093B305CA
:1010A0008FEA95E0D7D31EC023D28930F0F02FD23B
:1010B00068E0CE01019635D20D811E812F813885E1
:1010C00049815A816B817C8185E993E05FD30AC0B5
:1010D0001ED221E0AE01435F5F4F612F8AE591E0B0
:1010E000E5D103C088E893E0B5D32D960FB6F89408
:1010F000DEBF0FBECDBFDF91CF911F910F9108953D
:1011000034C2882321F080918100816003C08091E6
:1011100081008E7F8093810008958091810081708D
:101120000895CF93DF93EC01892B51F080918100DA
:101130008160809381001C161D062CF42A9809C03A
:10114000ECDF882399F32A9AD7FF03C0D195C19584
:10115000D109D0938B00C0938A00DF91CF9108957D
:10116000009751F020918100216020938100181692
:10117000190614F4299806C0299A97FF03C091957F
:1011800081959109909389008093880008952A9B06
:1011900008C080918A0090918B009195819591096A
:1011A000089580918A0090918B000895299B08C032
:1011B0008091880090918900919581959109089579
:1011C000809188009091890008959C01E1E8F0E009
:1011D00090819E7F9083F8948FB71FBE30937201E9
:1011E0002093710110928500109284003093870043
:1011F000209386008FBF78948081816080830895DA
:101200009C01909372018093710185B18F7985B9AA
:1012100084B1806684B985B1866085B984B1866001
:1012200084B9E1E8F0E080818E7F808380818D7FCA
:10123000808380818B7F8083A0E8B0E08C918F7B5E
:101240008C938C9180688C938C918F7E8C938C91F5
:1012500080628C939C919B7F9C939C91977F9C93A5
:101260009081906190839081977F908390819D7F02
:10127000908390819E7F9083C901A7DF10928B009D
:1012800010928A0010928900109288000895FC0143
:1012900010A211A20895FC01F395108231961082DC
:1012A0000895FC0191A180A1981B892F8770089552
:1012B000DC01AF5FBE4FFC01F3958C919081891BDF
:1012C0000895FC0191A1DF0184E0989FA00DB11D5C
:1012D00011244D935D936D937C9313979F5F97704B
:1012E00091A380A1981303C09F5F977090A3089566
:1012F000FC01EF5FFE4F2081DC01A20FB11D6C935A
:1013000031E0320F308331978081381302C02E5F75
:1013100020830895FC0190A19150977090A3DF0164
:1013200084E0989FA00DB11D11244D935D936D93A2
:101330007C93139781A1981303C09150977091A348
:1013400008959C01FC01F3959081D901AF5FBE4FD8
:101350008C91891739F0D901A90FB11D8C919F5F2C
:101360009083089580E00895FC0190A1690F677053
:1013700084E0689FE00DF11D1124608171818281FC
:1013800093810895FC01F3952081620FFC01E60F23
:10139000F11D80810895FC0190A1690F677084E0C0
:1013A000689FE00DF11D1124208331834283538314
:1013B00008951F93CF93DF9335D58091D70584305F
:1013C000F9F482E08093E9008091E80082FF18C080
:1013D0008091F300C091F200D0E0D82B10E0812F73
:1013E00090E08C179D0738F46091F10085E792E05A
:1013F0007FDF1F5FF4CF8091E8008B778093E80058
:101400008091D7058430F9F481E08093E9008091E0
:10141000E80080FF18C0C0E083E791E049DFC8170B
:1014200038F483E791E08DDF8093F100CF5FF4CF54
:101430008091E8008E778093E80062D58091E80083
:101440008E778093E800DF91CF911F910895682FE8
:1014500083E791E04DCF0F931F93CF93DF93EC0180
:101460008C01060F111DC017D10719F08991EFDF0C
:10147000FACFDF91CF911F910F9108951F93CF93D2
:10148000DF93EC0180E011E0180FFE01E80FF11D81
:101490008081DDDF812FFE01E10FF11D908191112F
:1014A000F2CF80E0DF91CF911F91D1CFEF92FF92E9
:1014B0000F931F93CF93DF93EC01062F7A01122F26
:1014C000FC0101900020E9F73197E81BF90B82E05D
:1014D000820F8E0FBCDFCE01D1DF802FB8DF612FEE
:1014E000C701DF91CF911F910F91FF90EF90B3CF84
:1014F00085E792E0DDCE85E792E0DADE882329F009
:101500006091750385E792E03DCF80E0089585E71F
:1015100092E0CEDE882319F085E792E012CF80E0DA
:101520000895FF920F931F93CF93DF93F82E092F07
:10153000162F85E792E0BCDE811780F0CF2DD02FEB
:10154000CE01810F911D8C01C017D10729F085E7CD
:1015500092E0F7DE8993F8CF81E001C080E0DF916F
:10156000CF911F910F91FF90089582E08093E90041
:10157000E8EEF0E080818B77808385E792E08BCE88
:1015800085E792E088DE83E791E085DE84B7877F98
:1015900084BF0FB6F894A89580916000886180930D
:1015A0006000109260000FBE90E080E80FB6F894E3
:1015B00080936100909361000FBE08D378940895E2
:1015C0000895089542E161E881E046D442E160E88F
:1015D00082E042D442E061EC83E03ED410921701F5
:1015E000109218011092190110921A010895809119
:1015F000D905813229F0823249F1803289F512C051
:101600008091D805813A61F58091E800877F8093C9
:10161000E80067E070E087E191E0A5D48091E80000
:101620008B7711C08091D8058132D1F48091E80088
:10163000877F8093E80067E070E087E191E0F1D474
:101640008091E8008E778093E80008958091D80516
:10165000813231F48091E800877F8093E80031C4C3
:1016600008952F923F924F925F926F927F928F9246
:101670009F92AF92BF92CF92DF92EF92FF920F9321
:101680001F93CF93DF93CDB7DEB729970FB6F894AA
:10169000DEBF0FBECDBF1C017A8369835C834B83A1
:1016A0002D83AE82BF82C886D98657016801E22E9B
:1016B0008A019B014E8D5F8D68A179A10E94750200
:1016C000410188E9880E911CED800B811C812981E4
:1016D0003A814E8D5F8D68A179A1C4010E94750287
:1016E00040E050E0BA01C1010E94E90240E050E050
:1016F000BA01C4010E94E902F101E05DFE4F8E8152
:101700009F81A885B98580839183A283B383349612
:101710008E8D9F8DA8A1B9A180839183A283B3836D
:1017200034968AA19BA1ACA1BDA180839183A283A1
:10173000B38334968EA19FA191838083329688A52E
:1017400099A59183808332968AA59BA591838083F6
:1017500032968CA59DA59183808329960FB6F89427
:10176000DEBF0FBECDBFDF91CF911F910F91FF90D4
:10177000EF90DF90CF90BF90AF909F908F907F9031
:101780006F905F904F903F902F9008950F931F930D
:10179000CF93DF93EC018C0104571F4F23EC35EFFF
:1017A00048E451E4F801608171818281938168D6B7
:1017B000F8016083718382839383CC5DDE4F23ECD9
:1017C00035EF48E451E4688179818A819B8158D65C
:1017D000688379838A839B83DF91CF911F910F91D7
:1017E0000895CF92DF92EF92FF920F931F93CF93C2
:1017F000DF93EC016A017B01FC01E25CFE4F01908A
:10180000F081E02D0995AB01BC0197018601CE0165
:1018100088569F4F0E94A90203D7CE5BDE4FE88116
:10182000F981CB01DF91CF911F910F91FF90EF9044
:10183000DF90CF900994FC0110824183528363832F
:101840007483128611861582168217821086348759
:1018500023870895CF93DF93EC0181E08883C9D07B
:101860009A878987BDD06D837E838F839887DF9128
:10187000CF910895CF93DF93EC0120E030E0A901F0
:1018800069817A818B819C815FD687FD0AC0CE01F8
:101890000596B5D029813A814B815C81A4D787FD1B
:1018A00002C0888101C080E0DF91CF9108958F92BE
:1018B0009F92AF92BF92EF92FF921F93CF93DF93CD
:1018C000EC01D8DF182F882391F1EB84FC84E1141C
:1018D000F10461F169857A8580E090E0D2D62FE647
:1018E00032E143E85AE383D74B015C016D817E818D
:1018F0008F819885C6D69B01AC01C501B401C0D5C6
:10190000F701099576D09A8789876AD06D837E839F
:101910008F83988720E030E0A90169817A818B81EB
:101920009C8112D687FF03C0188201C010E0812F6E
:10193000DF91CF911F91FF90EF90BF90AF909F905C
:101940008F90089584B584BD85B5836085BD89EF8A
:1019500087BD16BCEEE6F0E08081826080837894DB
:1019600010927703109278031092790310927A0301
:1019700008958F929F92AF92BF92CF92DF92EF9293
:10198000FF928090770390907803A0907903B090B5
:101990007A0366B584E0689FB0011124072E000C1D
:1019A000880B990B70D62DEB37E346E855E31FD72C
:1019B0006B017C01C501B40164D62FE632E143E836
:1019C0005AE315D79B01AC01C701B60159D5FF9069
:1019D000EF90DF90CF90BF90AF909F908F90089541
:1019E00060917703709178038091790390917A03E5
:1019F000089586B524E0829FC001112408950F93B5
:101A00001F93FC018091770390917803A091790353
:101A1000B0917A030081118122813381BC01CD0113
:101A2000601B710B820B930B2CD61F910F910895A5
:101A30001F920F920FB60F9211248F939F93AF9323
:101A4000BF9316BC8091770390917803A09179039E
:101A5000B0917A030196A11DB11D809377039093F5
:101A60007803A0937903B0937A03BF91AF919F91CC
:101A70008F910F900FBE0F901F901895CF93DF930B
:101A800000D000D0CDB7DEB7B2D669837A838B831E
:101A90009C8324E0AE014F5F5F4F6AE280E591E0F6
:101AA00005DD0F900F900F900F90DF91CF9108956B
:101AB000CF93DF9300D000D0CDB7DEB749D569838F
:101AC0007A838B839C8324E0AE014F5F5F4F6FE28C
:101AD00080E591E0EBDC0F900F900F900F90DF917D
:101AE000CF910895CF93DF9300D000D0CDB7DEB76C
:101AF000C7D469837A838B839C8324E0AE014F5FD4
:101B00005F4F6BE280E591E0D1DC0F900F900F907A
:101B10000F90DF91CF910895CF93DF9300D000D045
:101B2000CDB7DEB7ACD469837A838B839C8324E002
:101B3000AE014F5F5F4F6DE280E591E0B7DC0F9043
:101B40000F900F900F90DF91CF9108950F931F93F7
:101B5000CF93DF934BD052D0C8EDD0E088818F7700
:101B6000888388818068888388818F7D888319BC79
:101B70001092D7051092E0051092E2051092E1054F
:101B800000EE10E0F80180818B7F80838881816086
:101B9000888342E060E080E05FD1E1EEF0E08081A8
:101BA0008E7F8083E2EEF0E080818160808380819F
:101BB00088608083F80180818E7F80838881806146
:101BC0008883DF91CF911F910F910895E8EDF0E0A8
:101BD00080818F7E8083E7EDF0E08081816080836B
:101BE00084E082BF81E08093D605B0CFE8EDF0E0DD
:101BF00080818E7F80831092E20008951092DA0037
:101C00001092E10008951F920F920FB60F921124C7
:101C10002F933F934F935F936F937F938F939F93F4
:101C2000AF93BF93EF93FF938091E10082FF0AC0CF
:101C30008091E20082FF06C08091E1008B7F80935B
:101C4000E100EFD08091DA0080FF1DC08091D800C4
:101C500080FF19C08091DA008E7F8093DA00809136
:101C6000D90080FF0CC080E189BD82E189BD09B443
:101C700000FEFDCF81E08093D705A2DC04C019BC33
:101C80001092D7059EDC8091E10080FF18C0809102
:101C9000E20080FF14C08091E2008E7F8093E2001A
:101CA0008091E20080618093E2008091D8008062A0
:101CB0008093D80019BC85E08093D705B2D080917D
:101CC000E10084FF2FC08091E20084FF2BC080E1FF
:101CD00089BD82E189BD09B400FEFDCF8091D800A5
:101CE0008F7D8093D8008091E1008F7E8093E1000A
:101CF0008091E2008F7E8093E2008091E20081601B
:101D00008093E2008091E005882311F084E007C011
:101D10008091E30087FD02C081E001C083E08093F1
:101D2000D7057FD08091E10083FF27C08091E2003A
:101D300083FF23C08091E100877F8093E10082E0F0
:101D40008093D7051092E0058091E1008E7F80930B
:101D5000E1008091E2008E7F8093E2008091E200BA
:101D600080618093E20042E060E080E075D0809185
:101D7000F00088608093F00054D0FF91EF91BF9104
:101D8000AF919F918F917F916F915F914F913F9113
:101D90002F910F900FBE0F901F9018951F920F92CA
:101DA0000FB60F9211242F933F934F935F936F932E
:101DB0007F938F939F93AF93BF93CF93DF93EF93D3
:101DC000FF93C091E900CF708091EC00D82FD170C3
:101DD00080FDD0E81092E9008091F000877F809329
:101DE000F0007894BFD11092E9008091F0008860F3
:101DF0008093F000CD2BCF70C093E900FF91EF915D
:101E0000DF91CF91BF91AF919F918F917F916F9112
:101E10005F914F913F912F910F900FBE0F901F90A8
:101E200018950895CF938091D705882399F0C09194
:101E3000E900CF709091EC00892F817090FD80E8CF
:101E4000C82B1092E9008091E80083FD8BD1CF7000
:101E5000C093E900CF910895982F973068F590933B
:101E6000E900981739F07091EC002091ED00509145
:101E7000F00003C0242F762F50E021FD02C09F5FA9
:101E8000ECCF3091EB003E7F3093EB003091ED00D2
:101E90003D7F3093ED003091EB0031603093EB00EB
:101EA0007093EC002093ED005093F0002091EE0031
:101EB00027FDE5CF80E008958F708093E90081E0F1
:101EC00008958091D80587FF11C08091E80082FDB8
:101ED00005C08091D7058111F8CF11C08091E8002D
:101EE0008B770BC08091D705882349F08091E8005B
:101EF00080FFF8CF8091E8008E778093E800089506
:101F00002091E4003091E50095E64091EC00842FAB
:101F1000817040FF23C08091E80080FD1DC080914A
:101F2000D705882399F0853099F08091EB0085FDE5
:101F300011C04091E4005091E5002417350729F3C2
:101F4000915011F09A01E1CF84E0089582E0089564
:101F500083E0089581E0089580E008954091E800CD
:101F600042FFDDCF08952091DE053091DF05261771
:101F7000370748F06115710539F42091E8002E7794
:101F80002093E80001C0B901FC0120E06115710552
:101F900079F18091D7058823F1F18530F1F18091B5
:101FA000E80083FD3CC08091E80082FD2EC0809156
:101FB000E80080FFEBCF2091F3008091F20090E0E9
:101FC000922B6115710551F08830910538F42191FB
:101FD0002093F100615071090196F3CF21E0089739
:101FE00009F020E08091E8008E778093E800CECF62
:101FF0002111CFCF0AC08091D705882361F08530A9
:1020000061F08091E80083FD0AC08091E80082FFC2
:10201000F2CF80E0089582E0089583E0089581E0A2
:1020200008956115710529F42091E8002B7720931C
:10203000E800FC016115710541F18091D705882305
:1020400061F1853061F18091E80083FD24C08091C9
:10205000E80082FFEFCF2091F3008091F20090E042
:10206000922B892B31F08091F1008193615071099D
:1020700091F78091E8008B778093E800DBCF809127
:10208000D705882351F0853051F08091E80080FF1A
:10209000F6CF80E0089581E0089582E0089583E01E
:1020A00008952091DE053091DF052617370748F0A7
:1020B0006115710539F42091E8002E772093E8002E
:1020C00001C0B901FC0120E06115710591F1809119
:1020D000D705882309F440C0853009F43FC08091BA
:1020E000E80083FD3DC08091E80082FD2FC0809113
:1020F000E80080FFE9CF2091F3008091F20090E0AA
:10210000922B6115710559F08830910540F42491A6
:102110002093F1003196615071090196F2CF21E0D0
:10212000089709F020E08091E8008E778093E8001E
:10213000CBCF2111CCCF0AC08091D705882361F085
:10214000853061F08091E80083FD0AC08091E8004D
:1021500082FFF2CF80E0089582E0089583E0089541
:1021600081E008951F93CF93DF93CDB7DEB7AA9791
:102170000FB6F894DEBF0FBECDBFE8EDF5E080915D
:10218000F100819325E0E03EF207C9F730DA809153
:10219000E80083FF26C18091D8059091D905492F89
:1021A00050E04A30510508F01CC1FA01EA5AFF4FCD
:1021B00060C1803821F0823809F013C108C08091D5
:1021C000E1059091E205992389F082600FC080912A
:1021D000DC058F70873008F004C18093E90080919E
:1021E000EB0085FB882780F91092E9009091E800C8
:1021F000977F9093E8008093F1001092F100CCC09B
:10220000282F2D7F09F0EDC0882319F0823061F06E
:10221000E8C08091DA05813009F0E3C0933009F01D
:1022200080E08093E2052EC08091DA0581112AC0FA
:102230008091DC058F702FEF280F263008F0D1C079
:102240008093E9002091EB0020FF1CC0933021F423
:102250008091EB00806214C09091EB0090619093AC
:10226000EB0021E030E0A90102C0440F551F8A9520
:10227000E2F74093EA001092EA008091EB00886058
:102280008093EB001092E9008091E800877F8093B3
:10229000E80017DEA6C08111A4C01091DA051F77EF
:1022A0008091E3008078812B8093E3008091E800A7
:1022B000877F8093E80005DE8091E80080FFFCCFF7
:1022C0008091E30080688093E300111102C082E0F6
:1022D00001C083E08093D70584C08058823008F025
:1022E00080C08091DA059091DB058C3D53E0950725
:1022F00071F583E08A838AE289834FB7F894DE011F
:10230000139620E03EE051E2E32FF0E050935700B7
:10231000E49120FF03C0E295EF703F5FEF708E2FD6
:1023200090E0EA3010F0C79601C0C0968D939D935F
:102330002F5F243149F74FBF8091E800877F80935A
:10234000E8006AE270E0CE0101960DDE14C06091F3
:10235000DC057091DD05AE014F5F5F4F5AD0BC01C7
:10236000892B09F43EC09091E800977F9093E80094
:1023700089819A8196DE8091E8008B778093E800CE
:1023800030C0803871F58091E800877F8093E80045
:102390008091E0058093F1008091E8008E7777CFFF
:1023A00081111FC08091DA059091DB059927029772
:1023B000C4F48091E800877F8093E8008091DA057B
:1023C0008093E0057EDD8091E005811106C080915B
:1023D000E30087FD02C081E001C084E08093D7055F
:1023E000F1D88091E80083FF0AC08091E800877FE0
:1023F0008093E8008091EB0080628093EB00AA96C6
:102400000FB6F894DEBF0FBECDBFDF91CF911F9105
:102410000895292F33272230310559F02330310513
:1024200069F021303105E9F482E190E020E731E004
:102430001CC08EE390E022E331E017C09927813081
:10244000910549F028F0029761F4E0ECF0E005C056
:10245000EEE2F1E002C0EAEFF0E0849190E09F014B
:1024600004C080E090E020E030E0FA013183208376
:102470000895EE0FFF1F0590F491E02D0994505838
:10248000BB27AA270ED075C166D130F06BD120F0E2
:1024900031F49F3F11F41EF45BC10EF4E095E7FBAD
:1024A00051C1E92F77D180F3BA1762077307840708
:1024B000950718F071F49EF58FC10EF4E0950B2E80
:1024C000BA2FA02D0B01B90190010C01CA01A00186
:1024D0001124FF27591B99F0593F50F4503E68F1E1
:1024E0001A16F040A22F232F342F4427585FF3CF22
:1024F000469537952795A795F0405395C9F77EF4F3
:102500001F16BA0B620B730B840BBAF09150A1F03B
:10251000FF0FBB1F661F771F881FC2F70EC0BA0FC1
:10252000621F731F841F48F4879577956795B79549
:10253000F7959E3F08F0B3CF9395880F08F0992741
:10254000EE0F979587950895D9D008F481E0089506
:102550000CD00FC107D140F0FED030F021F45F3F26
:1025600019F0F0C0511139C1F3C014D198F3992377
:10257000C9F35523B1F3951B550BBB27AA27621747
:102580007307840738F09F5F5F4F220F331F441F8C
:10259000AA1FA9F333D00E2E3AF0E0E830D09150C4
:1025A0005040E695001CCAF729D0FE2F27D0660FB1
:1025B000771F881FBB1F261737074807AB07B0E8F0
:1025C00009F0BB0B802DBF01FF2793585F4F2AF006
:1025D0009E3F510568F0B6C000C15F3FECF3983EE6
:1025E000DCF3869577956795B795F7959F5FC9F763
:1025F000880F911D9695879597F90895E1E0660FEC
:10260000771F881FBB1F621773078407BA0720F064
:10261000621B730B840BBA0BEE1F88F7E0950895CD
:1026200004D06894B111D9C00895BCD088F09F57E8
:1026300090F0B92F9927B751A0F0D1F0660F771F0E
:10264000881F991F1AF0BA95C9F712C0B13081F0EE
:10265000C3D0B1E00895C0C0672F782F8827B85F36
:1026600039F0B93FCCF3869577956795B395D9F74F
:102670003EF490958095709561957F4F8F4F9F4F59
:102680000895E89409C097FB3EF490958095709565
:1026900061957F4F8F4F9F4F9923A9F0F92F96E9AE
:1026A000BB279395F695879577956795B795F11123
:1026B000F8CFFAF4BB0F11F460FF1BC06F5F7F4FC0
:1026C0008F4F9F4F16C0882311F096E911C07723D2
:1026D00021F09EE8872F762F05C0662371F096E8DB
:1026E000862F70E060E02AF09A95660F771F881FAA
:1026F000DAF7880F9695879597F90895990F00084E
:10270000550FAA0BE0E8FEEF16161706E807F907C3
:10271000C0F012161306E407F50798F0621B730B5E
:10272000840B950B39F40A2661F0232B242B252BDF
:1027300021F408950A2609F4A140A6958FEF811D82
:10274000811D089597F99F6780E870E060E0089523
:102750009FEF80EC089500240A94161617061806B9
:102760000906089500240A94121613061406050695
:102770000895092E0394000C11F4882352F0BB0F26
:1027800040F4BF2B11F460FF04C06F5F7F4F8F4F89
:102790009F4F089557FD9058440F551F59F05F3FC4
:1027A00071F04795880F97FB991F61F09F3F79F073
:1027B00087950895121613061406551FF2CF4695F5
:1027C000F1DF08C0161617061806991FF1CF869577
:1027D0007105610508940895E894BB27662777275B
:1027E000CB0197F908958ADF08F48FEF08950BD095
:1027F000C0CFB1DF28F0B6DF18F0952309F0A2CFE3
:10280000A7CF1124EACFC6DFA0F3959FD1F3950F90
:1028100050E0551F629FF001729FBB27F00DB11D64
:10282000639FAA27F00DB11DAA1F649F6627B00DF4
:10283000A11D661F829F2227B00DA11D621F739FDD
:10284000B00DA11D621F839FA00D611D221F749FEB
:102850003327A00D611D231F849F600D211D822F32
:10286000762F6A2F11249F5750408AF0E1F0882379
:102870004AF0EE0FFF1FBB1F661F771F881F915086
:102880005040A9F79E3F510570F05CCFA6CF5F3F47
:10289000ECF3983EDCF3869577956795B795F795B9
:1028A000E7959F5FC1F7FE2B880F911D9695879541
:0828B00097F90895F894FFCF99
:1028B8006F12033B020000803FBB5615BF1E987D78
:1028C80040CDED62C0010000000000000008C2D544
:1028D8008238C2D58239A340C439C2D58239C2D51B
:1028E80082380000803F927F60C046829440A08773
:1028F8002FC0024C1C3F6363660063666600633743
:0E2908006366006366686868680063630000C9
:00000001FF
