:10000000C0C00000DAC00000D8C00000D6C00000A8
:10001000D4C00000D2C00000D0C0000022C3000045
:10002000CCC00000C1C200000C94CE0E0C94990FFD
:10003000C4C00000C2C00000C0C00000BEC00000BC
:10004000BCC00000BAC00000B8C00000B6C00000CC
:10005000B4C000000C94750DB0C00000AEC000002C
:10006000ACC00000AAC00000A8C00000A6C00000EC
:10007000A4C00000A2C00000A0C000009EC00000FC
:100080009CC000009AC0000098C0000096C000000C
:1000900094C0000092C0000090C000008EC000001C
:1000A0008CC000008AC0000088C00000A411CB11E1
:1000B000BD12CB11BD1216123812BD128C129B123A
:1000C00038034D00450047004E0035003400300035
:1000D00020004C0061006200200050006F006C00A6
:1000E0006F006C00750020005A0075006D006F00F5
:1000F00020004300610072000000320343006F00E3
:100100006C006F007200610064006F0020005300FB
:10011000630068006F006F006C0020006F006600D5
:1001200020004D0069006E006500730000000403AC
:10013000090409023E0002010080320904000001A6
:100140000202010005240010010424020605240611
:100150000001070583030800FF09040100020A00EB
:1001600000000705020210000507058102100005C6
:100170001201100102000008FB1F00230100010210
:10018000DC0111241FBECFEFDAE0DEBFCDBF11E0EE
:10019000A0E0B1E0E0E5FAE202C005900D92A835DA
:1001A000B107D9F725E0A8E5B1E001C01D92AD3D4A
:1001B000B207E1F7C9D00C94261522CFAF92BF92B7
:1001C000CF92DF92EF92FF920F931F930E94560AF5
:1001D0000E94FF0C7CD1EAD080E991E086D785E2CD
:1001E00098E09F938F9386E098E09F938F938BEC9A
:1001F00092E09F938F9382EC92E09F938F9383E49E
:100200008F9388EC8F931F921F92A12CB12C80E8C2
:10021000C82E8FE3D82E1FE9E12E1BEAF12E0DEA3E
:100220001DE322E040E051E068E071E08FE893E0F8
:100230000E94C70A2EED30E040E050E060E87FEB1E
:100240008CE995E00E94770C2FE136E04FE852EC04
:1002500065EF7CE38FE895E00E94770C21E335E0C1
:1002600040E050E060E87FEB85E793E00E94770C88
:100270002EEB34E040E050E060E87FEB85E795E06E
:100280000E94770C25EF37E040E050E068EC72E424
:1002900082E893E00E94770C2FE435E040E050E0E4
:1002A00060E87FEB88E695E00E94770C24E735E074
:1002B00040E050E060E87FEB83EC95E00E94770C33
:1002C0002EE835E04FE652E163E07BE386EB95E014
:1002D0000E94770C28EE35E040E050E060E87FEBCC
:1002E00082E895E00E94770C2EEE35E040E050E089
:1002F00060E87FEB89EA95E00E94770C2AE136E01E
:100300004FE652E163E87AE38BE595E00E94770CD3
:100310008FE895E00E94860C86EB95E00E94860CA3
:100320008DB79EB70C960FB6F8949EBF0FBE8DBFCB
:100330008BE595E01F910F91FF90EF90DF90CF90AC
:10034000BF90AF900C94860C60E070E0CB0136DF7C
:10035000C6D78BE595E00E94B40C82E895E00E9438
:10036000B40C89EA95E00E94B40C88E695E00E94FE
:10037000B40C83EC95E00E94B40C86EB95E00E94EF
:10038000B40C85E793E00E94B40C85E795E00E94E9
:10039000B40C8CE995E00E94B40C8FE895E00E94C3
:1003A000B40C82E893E00E94B40CD2CFCF93DF93D9
:1003B000CDB7DEB7A8970FB6F894DEBF0FBECDBF9E
:1003C000EAE7F0E0808187608083808180688083B5
:1003D000ECE7F0E08081808380818660808380818B
:1003E00080648083EEE7F0E080818064808384E134
:1003F000E9E1F1E0DE01559601900D928A95E1F771
:1004000084E1EDE2F1E0DE01119601900D928A9512
:10041000E1F724E0AE014F5F5F4FBE016B5E7F4F9F
:1004200083ED94E074D1A8960FB6F894DEBF0FBEAA
:10043000CDBFDF91CF910895CF92DF92EF92FF92DF
:1004400080917A00806480937A0080917A0086FDA2
:10045000FCCF80917800682F80917900782F80E020
:1004600090E00E940D1420E030E040E25CE30E9446
:10047000C3146B017C018091100190911101892BB3
:1004800049F01092110110921001B701A60183EDFD
:1004900094E09BD1B701A60183ED94E0FF90EF902B
:1004A000DF90CF90C4C183ED94E065C29CB18FB161
:1004B00096FB992790F981708927089583B19CB1A3
:1004C00092FB992790F982958170892708957894F5
:1004D000EE98EAE6F0E080818F7D80838081806104
:1004E0008083E69AEE9AE8E6F0E08081816080837E
:1004F000EBE6F0E0808180618083D89A6E98769AEE
:100500008098889A24982C9A6A98729ACFDF809360
:1005100064018FB1817080936301D0DF80936201A9
:100520008CB182FB882780F98093610183B1829529
:1005300081708093600110925C0110925D011092B5
:100540005E0110925F0110925801109259011092B1
:100550005A0110925B010895F89460915C017091CA
:100560005D0180915E0190915F0178940895F89407
:10057000609158017091590180915A0190915B01ED
:1005800078940895E9DF0E940F1424E133E542EEE8
:100590005BE30C94C314EBDF0E940F1424E133E5FA
:1005A00042EE5BE30C94C3141F920F920FB60F92AE
:1005B00011242F933F934F935F936F937F938F9368
:1005C0009F93AF93BF93EF93FF9383B1909160019B
:1005D000829581709817A1F171DF9091610120914E
:1005E00062013CB140915C0150915D0160915E01FE
:1005F00070915F01892790E032FB332730F9232780
:10060000821B9109092E000CAA0BBB0B840F951FAE
:10061000A61FB71F80935C0190935D01A0935E01BC
:10062000B0935F0183B1829581708093600146DF52
:10063000809362018CB182FB882780F980936101ED
:10064000FF91EF91BF91AF919F918F917F916F91AA
:100650005F914F913F912F910F900FBE0F901F9080
:1006600018951F920F920FB60F9211241F932F937C
:100670003F934F935F936F937F938F939F93AF932A
:10068000BF93CF93DF93EF93FF9310DF182FC091A9
:100690006301D09164010ADF4091580150915901E2
:1006A00060915A0170915B01C1272C2F30E08D279A
:1006B000F901E81BF109CF01092E000CAA0BBB0BB5
:1006C000840F951FA61FB71F80935801909359015F
:1006D000A0935A01B0935B01E9DE809364018FB16E
:1006E000817080936301FF91EF91DF91CF91BF9172
:1006F000AF919F918F917F916F915F914F913F91BA
:100700002F911F910F900FBE0F901F9018954F9231
:100710005F926F927F928F929F92AF92BF92CF9291
:10072000DF92EF92FF920F931F93CF93DF93EC0131
:100730007B014A01422E20D53E0182E2680E711CE7
:10074000C3011AD56E01E6E6CE0ED11CC60114D542
:100750005E01F4E4AF0EB11CC5010ED58701740132
:10076000812C912C512C48145904F4F0F80141913A
:100770005191619171918F01CE0118D5F70141918D
:100780005191619171917F01C30110D540E050E01A
:10079000BA01C6010BD540E050E0BA01C50106D54B
:1007A000FFEF8F1A9F0ADFCFDF91CF911F910F913B
:1007B000FF90EF90DF90CF90BF90AF909F908F9081
:1007C0007F906F905F904F9008958F929F92AF921D
:1007D000BF92EF92FF920F931F93CF93DF934A0143
:1007E0005B01C0E0D0E07C0126E6E20EF11C8C014A
:1007F0000C5B1F4FC701CAD490E0C817D90764F437
:10080000A50194016C2FC7015CD5A50194016C2F43
:10081000C80157D52196EECFDF91CF911F910F914F
:10082000FF90EF90BF90AF909F908F9008952F9280
:100830003F924F925F926F927F928F929F92AF9270
:10084000BF92CF92DF92EF92FF920F931F93CF93BD
:10085000DF9300D000D000D0CDB7DEB79E838D836C
:100860001C0186E6280E311CC101C9D400E010E04D
:10087000812C912C5401750164018D819E818C5BCA
:100880009F4F9A8389838D819E8182969C838B83DF
:10089000C1017CD490E008171907B4F5602FC1019D
:1008A000F9D42B013C01602F8D819E81F3D49B01F3
:1008B000AC01C301B2010E94C3149B01AC01C7018A
:1008C000B6010E940C136B017C0101151105C9F0E2
:1008D0006FEF600F89819A81DDD42B013C01602F7D
:1008E0008B819C81D7D49B01AC01C301B2010E94D2
:1008F000C3149B01AC01C501B4010E940C134B0150
:100900005C010F5F1F4FC4CFA5019401C701B60161
:100910000E940B136B017C0160E08D819E818296A9
:10092000B9D49B01AC01C701B6010E9474136B01DD
:100930007C01AB01BC018D819E818C5B9F4F5FD49C
:10094000C701B60126960FB6F894DEBF0FBECDBF25
:10095000DF91CF911F910F91FF90EF90DF90CF909B
:10096000BF90AF909F908F907F906F905F904F90CF
:100970003F902F9008958C5B9F4F58C48F929F9209
:10098000AF92BF92CF92DF92EF92FF92CF93DF931D
:1009900000D000D01F92CDB7DEB74B015C01C090F4
:1009A0007605D0907705E0907805F090790520E005
:1009B00030E0A901C701B6010E947013882389F0B5
:1009C000C0926501D0926601E0926701F0926801E1
:1009D000109276051092770510927805109279059D
:1009E00030C08091650190916601A0916701B0913E
:1009F00068018093760590937705A0937805B0936E
:100A0000790581E389830E94160D6B017C012FE635
:100A100032E143E85AE3C501B4010E94C3149B01CB
:100A2000AC01C701B6010E940B136A837B838C83E0
:100A30009D8325E0AE014F5F5F4F64E581E491E067
:100A4000CBD40F900F900F900F900F90DF91CF911C
:100A5000FF90EF90DF90CF90BF90AF909F908F90DE
:100A60000895CF93DF9300D000D01F92CDB7DEB7AB
:100A700080E38983DBD76A837B838C839D8325E036
:100A8000AE014F5F5F4F64E581E491E0A5D40F9024
:100A90000F900F900F900F90DF91CF910895CF930B
:100AA000DF93CDB7DEB728970FB6F894DEBF0FBE41
:100AB000CDBF68DD69837A838B839C836CDD6D8316
:100AC0007E838F83988728E0AE014F5F5F4F65E498
:100AD00085E491E081D428960FB6F894DEBF0FBE6E
:100AE000CDBFDF91CF910895CF93DF9300D000D099
:100AF000CDB7DEB7D8DC69837A838B839C8324E00F
:100B0000AE014F5F5F4F62E48BE491E065D40F90DC
:100B10000F900F900F90DF91CF910895CF92DF92B9
:100B2000EF92FF92CF93DF93CDB7DEB72B970FB63F
:100B3000F894DEBF0FBECDBF7FDC6B017C0120E0EF
:100B400030E040E850E40E94701318163CF18091A8
:100B5000690190916A01843F914004F110926A0109
:100B60001092690182E4898381E48A8384E58B831E
:100B700080E28C838CE48D838FE48E8387E58F8382
:100B8000C886D986EA86FB862BE0AE014F5F5F4FB1
:100B900061E289E491E020D480E028D2809169016B
:100BA00090916A01843F21E092072CF40196909382
:100BB0006A01809369012B960FB6F894DEBF0FBED1
:100BC000CDBFDF91CF91FF90EF90DF90CF90089550
:100BD00080E090E01BD280E090E037C2CF93DF93BB
:100BE000CDB7DEB72C970FB6F894DEBF0FBECDBFE2
:100BF0001DD769837A838B839C833ED29E838D83AA
:100C00004AD298878F83A8DC7A876987B0DC7C8793
:100C10006B872CE0AE014F5F5F4F61E78EE491E0A0
:100C2000DBD32C960FB6F894DEBF0FBECDBFDF919D
:100C3000CF910895AB01BC018FE893E092C50F936B
:100C40001F93CF93DF93CDB7DEB72D970FB6F894F0
:100C5000DEBF0FBECDBFE2D3882309F4BBC1E1D311
:100C6000182F8FE38D87133509F44FC1E8F41F3235
:100C700009F44FC050F41B3209F45EC01D3209F470
:100C80006EC01A3209F099C131C0153409F4DAC0C6
:100C900020F4123409F4F4C090C1103509F417C1DE
:100CA000113509F45DC189C1103709F401C178F427
:100CB000123609F4DFC020F4143509F488C07DC170
:100CC000143609F466C1153609F4B6C076C1133777
:100CD00009F41BC120F4113709F423C16EC1143784
:100CE00009F457C01E3709F44DC067C197D3893046
:100CF00008F470C1A2D368E0CE010196A8D32D817B
:100D00003E814F81588569817A818B819C8181D711
:100D10005EC184D3893008F45DC18FD368E0CE0111
:100D2000019695D32D813E814F81588569817A81C5
:100D30008B819C8188D74BC171D3893008F44AC11B
:100D40007CD368E0CE01019682D32D813E814F8114
:100D5000588569817A818B819C818FD738C15ED318
:100D6000893008F437C169D368E0CE0101966FD3AA
:100D70002D813E814F81588569817A818B819C814B
:100D800096D725C14BD3882309F424C18CE995E07B
:100D9000FEC044D3823008F41DC14FD361E0CE01C0
:100DA000019655D38981803339F0813351F480E045
:100DB00090E0A0E8BFEB2DC080E090E0A0E8BFEBA2
:100DC0001DC021E0AE01435F5F4F64E732C026D310
:100DD000863008F4FFC031D365E0CE01019637D3E9
:100DE0008981803339F08133F9F48A819B81AC8128
:100DF000BD810FC08A819B81AC81BD8180937603C8
:100E000090937703A0937803B093790385E793E0F9
:100E1000BEC08093760590937705A0937805B09334
:100E2000790585E795E0B3C021E0AE01435F5F4FF0
:100E300064E585E591E092C0F1D2882309F4CAC047
:100E4000FCD215C0EBD2853008F4C4C0F6D264E001
:100E5000CE010196FCD289819A81AB81BC818093BD
:100E6000690590936A05A0936B05B0936C0588E6BD
:100E700095E08DC0D3D2882309F4ACC0DED215C072
:100E8000CDD2853008F4A6C0D8D264E0CE01019658
:100E9000DED289819A81AB81BC818093C405909315
:100EA000C505A093C605B093C70583EC95E06FC058
:100EB000B5D2853008F48EC0C0D264E0CE01019670
:100EC000C6D289819A81A2D08B819C8128C0A6D26A
:100ED000882309F47FC0B1D268E0CE010196B7D271
:100EE00089819A8193D08B819C81AFD08D819E81A5
:100EF000AF81B8858093830590938405A093850581
:100F0000B093860582E895E042C088D2882309F430
:100F100061C093D280E090E079D080E090E095D0FD
:100F200056C07CD2882309F455C087D27FD5698307
:100F30007A838B839C83A0D09E838D83ACD098874B
:100F40008F830ADB7A87698712DB7C876B872CE0CB
:100F5000AE014F5F5F4F61E78EE491E03DD237C055
:100F60005DD2853008F436C068D264E0CE010196C7
:100F70006ED289819A81AB81BC818093AA059093BE
:100F8000AB05A093AC05B093AD0589EA95E0BED45E
:100F90001EC044D28930F0F050D268E0CE010196F4
:100FA00056D20D811E812F81388549815A816B81EE
:100FB0007C818FE893E071D30AC03FD221E0AE017B
:100FC000435F5F4F612F85E591E006D203C082E861
:100FD00093E09CD42D960FB6F894DEBF0FBECDBF24
:100FE000DF91CF911F910F91089555C2882321F071
:100FF00080918100816003C0809181008E7F809309
:10100000810008958091810081700895CF93DF93CE
:10101000EC01892B51F080918100816080938100E7
:101020001C161D062CF42A9809C0ECDF882399F3BE
:101030002A9AD7FF03C0D195C195D109D0938B00CF
:10104000C0938A00DF91CF910895009751F02091CD
:1010500081002160209381001816190614F4299844
:1010600006C0299A97FF03C09195819591099093A5
:1010700089008093880008952A9B08C080918A0087
:1010800090918B00919581959109089580918A00A6
:1010900090918B000895299B08C0809188009091C1
:1010A000890091958195910908958091880090918A
:1010B000890008959C01E1E8F0E090819E7F908393
:1010C000F8948FB71FBE30936C0120936B01109280
:1010D00085001092840030938700209386008FBF94
:1010E000789480818160808308959C0190936C0145
:1010F00080936B0185B18F7985B984B1806684B99D
:1011000085B1866085B984B1866084B9E1E8F0E094
:1011100080818E7F808380818D7F808380818B7FA3
:101120008083A0E8B0E08C918F7B8C938C91806859
:101130008C938C918F7E8C938C9180628C939C91FC
:101140009B7F9C939C91977F9C93908190619083CF
:101150009081977F908390819D7F908390819E7FE7
:101160009083C901A7DF10928B0010928A00109221
:101170008900109288000895FC0110A211A2089520
:10118000FC01F3951082319610820895FC0191A123
:1011900080A1981B892F87700895DC01AF5FBE4F37
:1011A000FC01F3958C919081891B0895FC0191A11C
:1011B000DF0184E0989FA00DB11D11244D935D9334
:1011C0006D937C9313979F5F977091A380A1981361
:1011D00003C09F5F977090A30895FC01EF5FFE4FDF
:1011E0002081DC01A20FB11D6C9331E0320F3083FE
:1011F00031978081381302C02E5F20830895FC014F
:1012000090A19150977090A3DF0184E0989FA00D6A
:10121000B11D11244D935D936D937C93139781A120
:10122000981303C09150977091A30895FC0190A169
:1012300081A1891799F0DF0184E0989FA00DB11D6D
:1012400011245C9111964C91119712963C91129732
:1012500013962C919F5F977090A304C050E040E0DC
:1012600030E020E0652F742F832F922F08959C018A
:10127000FC01F3959081D901AF5FBE4F8C91891726
:1012800039F0D901A90FB11D8C919F5F908308950A
:1012900080E00895FC0190A1690F677084E0689F69
:1012A000E00DF11D11246081718182819381089587
:1012B000FC01F3952081620FFC01E60FF11D808196
:1012C0000895FC0190A1690F677084E0689FE00DAC
:1012D000F11D1124208331834283538308951F938A
:1012E000CF93DF936AD68091D1058430F9F482E000
:1012F0008093E9008091E80082FF18C08091F3009C
:10130000C091F200D0E0D82B10E0812F90E08C1734
:101310009D0738F46091F1008FE692E05EDF1F5F79
:10132000F4CF8091E8008B778093E8008091D1051D
:101330008430F9F481E08093E9008091E80080FF37
:1013400018C0C0E08DE691E028DFC81738F48DE6BC
:1013500091E08DDF8093F100CF5FF4CF8091E800C2
:101360008E778093E80097D68091E8008E778093FF
:10137000E800DF91CF911F910895682F8DE691E0ED
:101380002CCF0F931F93CF93DF93EC018C01060FAB
:10139000111DC017D10719F08991EFDFFACFDF9146
:1013A000CF911F910F9108951F93CF93DF93EC017D
:1013B00080E011E0180FFE01E80FF11D8081DDDFF4
:1013C000812FFE01E10FF11D90819111F2CF80E09C
:1013D000DF91CF911F91D1CFEF92FF920F931F9387
:1013E000CF93DF93EC01062F7A01122FFC010190BD
:1013F0000020E9F73197E81BF90B82E0820F8E0F8E
:10140000BCDFCE01D1DF802FB8DF612FC701DF91B4
:10141000CF911F910F91FF90EF90B3CF8FE692E0A5
:10142000BCCE8FE692E0B9DE882329F060916F038D
:101430008FE692E03DCF80E008958FE692E0ADDE4A
:10144000882319F08FE692E012CF80E00895FF9292
:101450000F931F93CF93DF93F82E092F162F8FE64C
:1014600092E09BDE811780F0CF2DD02FCE01810F2F
:10147000911D8C01C017D10729F08FE692E0F7DEAD
:101480008993F8CF81E001C080E0DF91CF911F9177
:101490000F91FF90089582E08093E900E8EEF0E07C
:1014A00080818B7780838FE692E06ACE8FE692E030
:1014B00067DE8DE691E064DE84B7877F84BF0FB678
:1014C000F894A895809160008861809360001092E4
:1014D00060000FBE90E080E80FB6F8948093610042
:1014E000909361000FBE3DD47894089508950895B7
:1014F00042E161E881E07BD542E160E882E077D5B6
:1015000042E061EC83E073D5109212011092130156
:10151000109214011092150108958091D305813223
:1015200029F0823249F1803289F512C08091D205CA
:10153000813A61F58091E800877F8093E80067E059
:1015400070E082E191E0DAD58091E8008B7711C0FC
:101550008091D2058132D1F48091E800877F809319
:10156000E80067E070E082E191E026D68091E80033
:101570008E778093E80008958091D205813231F40E
:101580008091E800877F8093E80066C508952F92D8
:101590003F924F925F926F927F928F929F92AF9203
:1015A000BF92CF92DF92EF92FF920F931F93CF9350
:1015B000DF93CDB7DEB727970FB6F894DEBF0FBE27
:1015C000CDBF4C017A8369832B83EC82FD820E832D
:1015D0001F83250136018FE6A82E82E1B82E83E80D
:1015E000C82E8AE3D82EE22E8A019B0149E251E1FE
:1015F00060E071E4C4019FD2EB8029813A8149E225
:1016000051E160E071E4C40188569F4F94D2F40127
:10161000E05DFE4F8C819D81AE81BF81808391838F
:10162000A283B3833496408251826282738234965D
:101630008C8D9D8DAE8DBF8D80839183A283B3836E
:10164000349688A199A19183808332968AA19BA127
:101650009183808332968CA19DA191838083329661
:101660008EA19FA19183808327960FB6F894DEBF49
:101670000FBECDBFDF91CF911F910F91FF90EF90E3
:10168000DF90CF90BF90AF909F908F907F906F90A2
:101690005F904F903F902F9008958F929F92AF92BE
:1016A000BF92CF92DF92EF92FF920F931F93CF934F
:1016B000DF93EC014A015B0168017901FC01E05D07
:1016C000FE4F20E030E040E05FE360817181828185
:1016D00093810E94C314A70196010E94C3146B0159
:1016E0007C018E0104571F4F9B01AC01C501B40161
:1016F00092D72EEC3AEC4FE452E40E94C3149B01C3
:10170000AC01F801608171818281938185D7F801F4
:101710006083718382839383CC5DDE4FA501940146
:10172000C701B60179D72EEC3AEC4FE452E40E949F
:10173000C3149B01AC01688179818A819B816CD73C
:10174000688379838A839B83DF91CF911F910F9167
:10175000FF90EF90DF90CF90BF90AF909F908F90D1
:1017600008952F923F924F925F926F927F928F9245
:101770009F92AF92BF92CF92DF92EF92FF920F9320
:101780001F93CF93DF93EC014A015B01FC01E45C02
:10179000FE4F0190F081E02D09956B017C01FE0167
:1017A000E25CFE4F0190F081E02D09952B013C0198
:1017B00095018401B701A601CE01E9D16B017C013D
:1017C00095018401B301A201CE0188569F4FDFD15C
:1017D000962EA72EB82E092F20E030E0A901B601E1
:1017E000C7010E94BF1418163CF0412C512C30E860
:1017F000632E3FEB732E06C0412C512C20E8622E45
:101800002FE3722EFE01E85CFE4F10818180328052
:101810002380212F382D432D522DB601C7010E9460
:10182000BF14181624F4C12ED82CE32CF22C9601E8
:10183000A701C301B2010E94C3142B013C0120E0A7
:1018400030E0A901692D7A2D8B2D902F0E94BF14B5
:1018500018163CF0C12CD12C90E8E92E9FEBF92E04
:1018600006C0C12CD12C80E8E82E8FE3F82E212F62
:10187000382D432D522D692D7A2D8B2D902F0E94BE
:10188000BF14181624F0192D8A2C3B2C202E212F42
:10189000382D432D522DC701B6010E94C3146B0190
:1018A0007C01C301B20188D7FE01E05CFE4F0190CC
:1018B000F081E02DCB010995C701B6017DD7CE5B44
:1018C000DE4FE881F981CB01DF91CF911F910F911C
:1018D000FF90EF90DF90CF90BF90AF909F908F9050
:1018E0007F906F905F904F903F902F900994FC01F4
:1018F000108241835283638374831286118615821A
:10190000168217821086348723870895CF93DF933A
:10191000EC0181E08883CAD09A878987BED06D8325
:101920007E838F839887DF91CF910895CF93DF9344
:10193000EC0120E030E0A90169817A818B819C81F2
:10194000CFD687FD0BC0CE010596B6D029813A814E
:101950004B815C810E94BF1487FD02C0888101C059
:1019600080E0DF91CF9108958F929F92AF92BF92C6
:10197000EF92FF921F93CF93DF93EC01D7DF182FE5
:10198000882391F1EB84FC84E114F10461F1698511
:101990007A8580E090E041D72FE632E143E85AE3D0
:1019A000F2D74B015C016D817E818F81988535D79F
:1019B0009B01AC01C501B4012FD6F701099576D082
:1019C0009A8789876AD06D837E838F83988720E08A
:1019D00030E0A90169817A818B819C8181D687FF62
:1019E00003C0188201C010E0812FDF91CF911F91B9
:1019F000FF90EF90BF90AF909F908F90089584B527
:101A000084BD85B5836085BD89EF87BD16BCEEE6D4
:101A1000F0E080818260808378941092710310924C
:101A20007203109273031092740308958F929F9221
:101A3000AF92BF92CF92DF92EF92FF9280907103AC
:101A400090907203A0907303B090740366B584E025
:101A5000689FB0011124072E000C880B990BDFD66C
:101A60002DEB37E346E855E38ED76B017C01C501CA
:101A7000B401D3D62FE632E143E85AE384D79B0181
:101A8000AC01C701B601C8D5FF90EF90DF90CF90B1
:101A9000BF90AF909F908F90089560917103709167
:101AA00072038091730390917403089586B524E0C6
:101AB000829FC001112408950F931F93FC01809110
:101AC000710390917203A0917303B091740300812C
:101AD000118122813381BC01CD01601B710B820B0E
:101AE000930B9BD61F910F9108951F920F920FB6E3
:101AF0000F9211248F939F93AF93BF9316BC809145
:101B0000710390917203A0917303B09174030196D5
:101B1000A11DB11D8093710390937203A093730371
:101B2000B0937403BF91AF919F918F910F900FBEAF
:101B30000F901F901895AF92BF92CF92DF92EF92C5
:101B40000F931F93CF93DF93EC01C9012E2DFE015C
:101B5000E857FF4F40835183628373833C96A08292
:101B6000B182C282D382A801BC01CE010E94870348
:101B700040E050E0BA01CE01DF91CF911F910F916B
:101B8000EF90DF90CF90BF90AF900C94E5038F92D1
:101B90009F92AF92BF92CF92DF92EF92FF920F93FC
:101BA0001F93CF93DF93EC01480159010E94170462
:101BB0006B017C01FE01E057FF4F208131814281A2
:101BC0005381C501B401DFD68E0104571F4FF801C0
:101BD00020813181428153811FD5F8016083718357
:101BE00082839383C857DF4FA701960114D52881BC
:101BF00039814A815B81C7D6DF91CF911F910F91C7
:101C0000FF90EF90DF90CF90BF90AF909F908F901C
:101C10000895CF93DF9300D000D0CDB7DEB7B3D611
:101C200069837A838B839C8324E0AE014F5F5F4F8F
:101C30006AE28BE491E0D0DB0F900F900F900F9051
:101C4000DF91CF910895CF93DF9300D000D0CDB72F
:101C5000DEB74AD569837A838B839C8324E0AE0107
:101C60004F5F5F4F6FE28BE491E0B6DB0F900F9018
:101C70000F900F90DF91CF910895CF93DF9300D015
:101C800000D0CDB7DEB7C8D469837A838B839C83B9
:101C900024E0AE014F5F5F4F6BE28BE491E09CDB91
:101CA0000F900F900F900F90DF91CF910895CF93E9
:101CB000DF9300D000D0CDB7DEB7ADD469837A838F
:101CC0008B839C8324E0AE014F5F5F4F6DE28BE41A
:101CD00091E082DB0F900F900F900F90DF91CF91EA
:101CE00008950F931F93CF93DF934BD052D0C8ED3D
:101CF000D0E088818F778883888180688883888115
:101D00008F7D888319BC1092D1051092DA0510924C
:101D1000DC051092DB0500EE10E0F80180818B7F7E
:101D2000808388818160888342E060E080E05FD1C9
:101D3000E1EEF0E080818E7F8083E2EEF0E0808152
:101D400081608083808188608083F80180818E7FBC
:101D50008083888180618883DF91CF911F910F916B
:101D60000895E8EDF0E080818F7E8083E7EDF0E07C
:101D700080818160808384E082BF81E08093D00590
:101D8000B0CFE8EDF0E080818E7F80831092E2009A
:101D900008951092DA001092E10008951F920F92B8
:101DA0000FB60F9211242F933F934F935F936F932E
:101DB0007F938F939F93AF93BF93EF93FF93809104
:101DC000E10082FF0AC08091E20082FF06C080919C
:101DD000E1008B7F8093E100EFD08091DA0080FFFB
:101DE0001DC08091D80080FF19C08091DA008E7FDD
:101DF0008093DA008091D90080FF0CC080E189BD1A
:101E000082E189BD09B400FEFDCF81E08093D10558
:101E10006DDB04C019BC1092D10569DB8091E10033
:101E200080FF18C08091E20080FF14C08091E20022
:101E30008E7F8093E2008091E20080618093E200D7
:101E40008091D80080628093D80019BC85E080938F
:101E5000D105B2D08091E10084FF2FC08091E200D3
:101E600084FF2BC080E189BD82E189BD09B400FEF9
:101E7000FDCF8091D8008F7D8093D8008091E100C4
:101E80008F7E8093E1008091E2008F7E8093E2005C
:101E90008091E20081608093E2008091DA058823DE
:101EA00011F084E007C08091E30087FD02C081E06B
:101EB00001C083E08093D1057FD08091E10083FF52
:101EC00027C08091E20083FF23C08091E100877FDB
:101ED0008093E10082E08093D1051092DA05809131
:101EE000E1008E7F8093E1008091E2008E7F8093FD
:101EF000E2008091E20080618093E20042E060E0D5
:101F000080E075D08091F00088608093F00054D01C
:101F1000FF91EF91BF91AF919F918F917F916F91C1
:101F20005F914F913F912F910F900FBE0F901F9097
:101F300018951F920F920FB60F9211242F933F9373
:101F40004F935F936F937F938F939F93AF93BF93C1
:101F5000CF93DF93EF93FF93C091E900CF7080910F
:101F6000EC00D82FD17080FDD0E81092E90080916C
:101F7000F000877F8093F0007894BFD11092E90041
:101F80008091F00088608093F000CD2BCF70C093DB
:101F9000E900FF91EF91DF91CF91BF91AF919F91B8
:101FA0008F917F916F915F914F913F912F910F9002
:101FB0000FBE0F901F9018950895CF938091D10573
:101FC000882399F0C091E900CF709091EC00892F9F
:101FD000817090FD80E8C82B1092E9008091E800A4
:101FE00083FD8BD1CF70C093E900CF910895982FD6
:101FF000973068F59093E900981739F07091EC00EC
:102000002091ED005091F00003C0242F762F50E076
:1020100021FD02C09F5FECCF3091EB003E7F3093FB
:10202000EB003091ED003D7F3093ED003091EB00FF
:1020300031603093EB007093EC002093ED005093EF
:10204000F0002091EE0027FDE5CF80E008958F702D
:102050008093E90081E008958091D20587FF11C047
:102060008091E80082FD05C08091D1058111F8CFF3
:1020700011C08091E8008B770BC08091D105882337
:1020800049F08091E80080FFF8CF8091E8008E77DA
:102090008093E80008952091E4003091E50095E6F2
:1020A0004091EC00842F817040FF23C08091E800B4
:1020B00080FD1DC08091D105882399F0853099F06D
:1020C0008091EB0085FD11C04091E4005091E50046
:1020D0002417350729F3915011F09A01E1CF84E0DC
:1020E000089582E0089583E0089581E0089580E0F6
:1020F00008954091E80042FFDDCF08952091D80572
:102100003091D9052617370748F06115710539F464
:102110002091E8002E772093E80001C0B901FC016E
:1021200020E06115710579F18091D1058823F1F1E5
:102130008530F1F18091E80083FD3CC08091E8009A
:1021400082FD2EC08091E80080FFEBCF2091F3004C
:102150008091F20090E0922B6115710551F088306A
:10216000910538F421912093F10061507109019695
:10217000F3CF21E0089709F020E08091E8008E7706
:102180008093E800CECF2111CFCF0AC08091D10536
:10219000882361F0853061F08091E80083FD0AC0FA
:1021A0008091E80082FFF2CF80E0089582E00895F8
:1021B00083E0089581E008956115710529F4209167
:1021C000E8002B772093E800FC016115710541F1CF
:1021D0008091D105882361F1853061F18091E8001B
:1021E00083FD24C08091E80082FFEFCF2091F300AF
:1021F0008091F20090E0922B892B31F08091F100D8
:1022000081936150710991F78091E8008B778093F9
:10221000E800DBCF8091D105882351F0853051F063
:102220008091E80080FFF6CF80E0089581E0089576
:1022300082E0089583E008952091D8053091D90572
:102240002617370748F06115710539F42091E80029
:102250002E772093E80001C0B901FC0120E0611550
:10226000710591F18091D105882309F440C0853032
:1022700009F43FC08091E80083FD3DC08091E800F3
:1022800082FD2FC08091E80080FFE9CF2091F3000C
:102290008091F20090E0922B6115710559F0883021
:1022A000910540F424912093F10031966150710919
:1022B0000196F2CF21E0089709F020E08091E80034
:1022C0008E778093E800CBCF2111CCCF0AC08091CC
:1022D000D105882361F0853061F08091E80083FDAD
:1022E0000AC08091E80082FFF2CF80E0089582E08A
:1022F000089583E0089581E008951F93CF93DF93BD
:10230000CDB7DEB7AA970FB6F894DEBF0FBECDBF2C
:10231000E2EDF5E08091F100819325E0EA3DF207DE
:10232000C9F7FBD88091E80083FF27C18091D205CF
:102330009091D305492F50E04A30510508F01DC156
:10234000FA01EA5AFF4F61C1803821F0823809F062
:1023500014C108C08091DB059091DC05992389F0B8
:1023600082600FC08091D6058F70873008F005C15C
:102370008093E9008091EB0085FB882780F910921B
:10238000E9009091E800977F9093E8008093F10036
:102390001092F100CCC0282F2D7F09F0EEC08823C9
:1023A00019F0823061F0E9C08091D405813009F0E4
:1023B000E4C0933009F080E08093DC052EC080916A
:1023C000D40581112AC08091D6058F702FEF280F78
:1023D000263008F0D2C08093E9002091EB0020FF66
:1023E0001CC0933021F48091EB00806214C0909166
:1023F000EB0090619093EB0021E030E0A90102C076
:10240000440F551F8A95E2F74093EA001092EA00C4
:102410008091EB0088608093EB001092E90080913E
:10242000E800877F8093E80017DEA7C08111A5C070
:102430001091D4051F778091E3008078812B8093E1
:10244000E3008091E800877F8093E80005DE8091BB
:10245000E80080FFFCCF8091E30080688093E30078
:10246000111102C082E001C083E08093D10585C0D4
:102470008058823008F081C08091D4059091D505B4
:102480008C3D53E0950771F583E08A838AE2898366
:102490004FB7F894DE01139620E03EE051E2E32FBF
:1024A000F0E050935700E49120FF03C0E295EF70F5
:1024B0003F5FEF708E2F90E0EA3010F0C79601C0BA
:1024C000C0968D939D932F5F243149F74FBF809124
:1024D000E800877F8093E8006AE270E0CE01019611
:1024E0000DDE14C06091D6057091D705AE014F5F27
:1024F0005F4F5BD0BC01892B09F43FC09091E8008D
:10250000977F9093E80089819A8196DE8091E80018
:102510008B778093E80031C0803879F58091E800AE
:10252000877F8093E8008091DA058093F1008091A5
:10253000E8008E7777CF811120C08091D4059091EB
:10254000D50599270297CCF48091E800877F809386
:10255000E8008091D4058093DA057EDD8091DA056C
:10256000811106C08091E30087FD02C081E001C0B7
:1025700084E08093D1050E94780A8091E80083FF6F
:102580000AC08091E800877F8093E8008091EB008B
:1025900080628093EB00AA960FB6F894DEBF0FBE60
:1025A000CDBFDF91CF911F910895292F332722307E
:1025B000310559F02330310569F021303105E9F456
:1025C00082E190E020E731E01CC08EE390E022E35E
:1025D00031E017C099278130910549F028F0029722
:1025E00061F4E0ECF0E005C0EEE2F1E002C0EAEFF9
:1025F000F0E0849190E09F0104C080E090E020E052
:1026000030E0FA01318320830895EE0FFF1F05901B
:10261000F491E02D09945058BB27AA270ED075C11C
:1026200066D130F06BD120F031F49F3F11F41EF4ED
:102630005BC10EF4E095E7FB51C1E92F77D180F340
:10264000BA17620773078407950718F071F49EF5AF
:102650008FC10EF4E0950B2EBA2FA02D0B01B901FE
:1026600090010C01CA01A0011124FF27591B99F008
:10267000593F50F4503E68F11A16F040A22F232F14
:10268000342F4427585FF3CF469537952795A79564
:10269000F0405395C9F77EF41F16BA0B620B730B0B
:1026A000840BBAF09150A1F0FF0FBB1F661F771F7C
:1026B000881FC2F70EC0BA0F621F731F841F48F431
:1026C000879577956795B795F7959E3F08F0B3CFB7
:1026D0009395880F08F09927EE0F979587950895A1
:1026E000D9D008F481E008950CD00FC107D140F093
:1026F000FED030F021F45F3F19F0F0C0511139C124
:10270000F3C014D198F39923C9F35523B1F3951B62
:10271000550BBB27AA2762177307840738F09F5F02
:102720005F4F220F331F441FAA1FA9F333D00E2E71
:102730003AF0E0E830D091505040E695001CCAF7DE
:1027400029D0FE2F27D0660F771F881FBB1F2617A3
:1027500037074807AB07B0E809F0BB0B802DBF0176
:10276000FF2793585F4F2AF09E3F510568F0B6C08F
:1027700000C15F3FECF3983EDCF386957795679553
:10278000B795F7959F5FC9F7880F911D9695879527
:1027900097F90895E1E0660F771F881FBB1F621746
:1027A00073078407BA0720F0621B730B840BBA0B04
:1027B000EE1F88F7E095089504D06894B111D9C050
:1027C0000895BCD088F09F5790F0B92F9927B75142
:1027D000A0F0D1F0660F771F881F991F1AF0BA95E5
:1027E000C9F712C0B13081F0C3D0B1E00895C0C0C4
:1027F000672F782F8827B85F39F0B93FCCF38695DB
:1028000077956795B395D9F73EF490958095709537
:1028100061957F4F8F4F9F4F0895E89409C097FBB4
:102820003EF490958095709561957F4F8F4F9F4FA7
:102830009923A9F0F92F96E9BB279395F6958795EB
:1028400077956795B795F111F8CFFAF4BB0F11F4AE
:1028500060FF1BC06F5F7F4F8F4F9F4F16C0882355
:1028600011F096E911C0772321F09EE8872F762F8B
:1028700005C0662371F096E8862F70E060E02AF0CC
:102880009A95660F771F881FDAF7880F96958795B8
:1028900097F90895990F0008550FAA0BE0E8FEEF8D
:1028A00016161706E807F907C0F012161306E40714
:1028B000F50798F0621B730B840B950B39F40A260D
:1028C00061F0232B242B252B21F408950A2609F4EB
:1028D000A140A6958FEF811D811D089597F99F67EF
:1028E00080E870E060E008959FEF80EC0895002498
:1028F0000A941616170618060906089500240A9465
:1029000012161306140605060895092E0394000CEA
:1029100011F4882352F0BB0F40F4BF2B11F460FF79
:1029200004C06F5F7F4F8F4F9F4F089557FD9058A2
:10293000440F551F59F05F3F71F04795880F97FB83
:10294000991F61F09F3F79F087950895121613063D
:102950001406551FF2CF4695F1DF08C0161617066C
:102960001806991FF1CF86957105610508940895A1
:10297000E894BB2766277727CB0197F908958ADF6C
:1029800008F48FEF08950BD0C0CFB1DF28F0B6DF89
:1029900018F0952309F0A2CFA7CF1124EACFC6DF04
:1029A000A0F3959FD1F3950F50E0551F629FF00162
:1029B000729FBB27F00DB11D639FAA27F00DB11DBB
:1029C000AA1F649F6627B00DA11D661F829F222744
:1029D000B00DA11D621F739FB00DA11D621F839FCB
:1029E000A00D611D221F749F3327A00D611D231FA1
:1029F000849F600D211D822F762F6A2F11249F57EF
:102A000050408AF0E1F088234AF0EE0FFF1FBB1F11
:102A1000661F771F881F91505040A9F79E3F5105B0
:102A200070F05CCFA6CF5F3FECF3983EDCF3869569
:102A300077956795B795F795E7959F5FC1F7FE2B5B
:102A4000880F911D9695879597F90895F894FFCF73
:102A50000000803FD27C74BF6E37803FADEB74BF07
:102A6000010000000000000008C2D58238C2D582F3
:102A700039A340C439C2D58239C2D582380000801A
:102A80003F927F60C046829440A0872FC0024C1CBA
:102A90003F63636600636666006337636600636670
:082AA0006868686800636300C8
:00000001FF
