:10000000C0C00000DAC00000D8C00000D6C00000A8
:10001000D4C00000D2C00000D0C000003FC4000027
:10002000CCC00000DEC300000C9441100C940C11F5
:10003000C4C00000C2C00000C0C00000BEC00000BC
:10004000BCC00000BAC00000B8C00000B6C00000CC
:10005000B4C000000C94560FB0C00000AEC0000049
:10006000ACC00000AAC00000A8C00000A6C00000EC
:10007000A4C00000A2C00000A0C000009EC00000FC
:100080009CC000009AC0000098C0000096C000000C
:1000900094C0000092C0000090C000008EC000001C
:1000A0008CC000008AC0000088C0000017133E13F7
:1000B00030143E1330148913AB133014FF130E1495
:1000C00038034D00450047004E0035003400300035
:1000D00020004C0061006200200050006F006C00A6
:1000E0006F006C00750020005A0075006D006F00F5
:1000F00020004300610072000000320343006F00E3
:100100006C006F007200610064006F0020005300FB
:10011000630068006F006F006C0020006F006600D5
:1001200020004D0069006E006500730000000403AC
:10013000090409023E0002010080320904000001A6
:100140000202010005240010010424020605240611
:100150000001070583030800FF09040100020A00EB
:1001600000000705020210000507058102100005C6
:100170001201100102000008FB1F00230100010210
:10018000DC0111241FBECFEFDAE0DEBFCDBF11E0EE
:10019000A0E0B1E0E6E3FDE202C005900D92A835D3
:1001A000B107D9F725E0A8E5B1E001C01D92AA3E4C
:1001B000B207E1F7DAD00C94991622CFAF92BF9232
:1001C000CF92DF92EF92FF920F931F930E94E50B65
:1001D0000E94B60E99D20CD180E991E00E94250AC6
:1001E00085ED99E09F938F9386EB99E09F938F9392
:1001F00088EE93E09F938F938FED93E09F938F937F
:1002000083E48F9388EC8F931F921F9282E48F93E5
:100210008BEB8F9384EC8F938DE68F938BE1A82EDD
:100220008DE0B82E80E6C82E8DE3D82E1FE6E12E95
:1002300012E1F12E03E01BE321E040E051E068E031
:1002400071E08CE993E00E94560C2EED30E040E026
:1002500050E060E87FEB89EA95E00E942C0E2DE3E8
:1002600037E04FE852EC65EF7CE38CE995E00E94C3
:100270002C0E28E436E040E050E060E87FEB85E7B4
:1002800093E00E942C0E25ED35E040E050E060E860
:100290007FEB82E895E00E942C0E25EA39E040E0F1
:1002A00050E068EC72E482E893E00E942C0E27E6AE
:1002B00036E040E050E060E87FEB85E795E00E94A3
:1002C0002C0E2CE836E040E050E060E87FEB80ED5B
:1002D00095E00E942C0E26EA36E0B801A70183ECD7
:1002E00095E00E942C0E20E037E040E050E060E80E
:1002F0007FEB8FE895E00E942C0E26E037E040E08F
:1003000050E060E87FEB86EB95E00E942C0E22E344
:1003100037E0B801A70188E695E00E942C0E27E39C
:1003200037E040E050E060E87FEB8FE893E00E9428
:100330002C0E8CE995E00E943B0E83EC95E00E9428
:100340003B0E8DB79EB740960FB6F8949EBF0FBE7A
:100350008DBF88E695E01F910F91FF90EF90DF90A1
:10036000CF90BF90AF900C943B0E60E070E0CB015B
:1003700025DF40E050E0BA018CE993E0B3D140E0E2
:1003800050E0BA0184E394E0ADD10E94FE0A88E611
:1003900095E00E946B0E8FE893E00E946B0E8FE851
:1003A00095E00E946B0E86EB95E00E946B0E85E750
:1003B00095E00E946B0E80ED95E00E946B0E83EC41
:1003C00095E00E946B0E85E793E00E946B0E82E839
:1003D00095E00E946B0E89EA95E00E946B0E8CE915
:1003E00095E00E946B0E82E893E00E946B0ECDCFE9
:1003F000CF93DF93CDB7DEB7A8970FB6F894DEBFE3
:100400000FBECDBFEAE7F0E0808187608083808106
:1004100080688083ECE7F0E0808180838081866063
:100420008083808180648083EEE7F0E08081806457
:10043000808384E1E9E1F1E0DE01559601900D92BF
:100440008A95E1F784E1EDE2F1E0DE011196019099
:100450000D928A95E1F724E0AE014F5F5F4FBE0138
:100460006B5E7F4F80EE94E066D2A8960FB6F8944C
:10047000DEBF0FBECDBFDF91CF910895CF92DF9247
:10048000EF92FF9280917A00806480937A0080914D
:100490007A0086FDFCCF80917800682F80917900EA
:1004A000782F80E090E00E94801520E030E040E26C
:1004B0005CE30E9436166B017C01809110019091E3
:1004C0001101892B49F01092110110921001B7010E
:1004D000A60180EE94E091D2B701A60180EE94E0EF
:1004E000FF90EF90DF90CF90BCC280EE94E059C3B4
:1004F000AF92BF92CF92DF92EF920F931F93CF9361
:10050000DF93EC01C9012E2DFE01E857FF4F408318
:100510005183628373833C96A082B182C282D3826C
:1005200038971082118212821382349610821182BF
:1005300012821382A801BC01CE01FDD140E050E03F
:10054000BA01CE01DF91CF911F910F91EF90DF9013
:10055000CF90BF90AF9051C22F923F924F925F9237
:100560006F927F928F929F92AF92BF92CF92DF92C3
:10057000EF92FF920F931F93CF93DF937C014A0179
:100580005B01280139016DD29B01AC0117018CE898
:10059000280E311CF10160817181828193810E945A
:1005A0007E14F701E857FF4F20813181428153814A
:1005B0000E9436168B01D82FC92FF701E057FF4F45
:1005C000C080D180E280F38020E030E0A901C70143
:1005D000B6010E94E314882379F0A3019201C701B8
:1005E000B6010E943616A50194010E947F14F10104
:1005F000608371838283938320E030E048EC53EC86
:10060000B8018D2F9C2F0E94E31487FD4CC020E081
:1006100030E048EC53E4B8018D2F9C2F0E94321635
:1006200018160CF445C020E030E0A901B8018D2F68
:100630009C2F0E9432161816DCF420E030E040EACD
:1006400050E4B8018D2F9C2F0E94E31487FD34C025
:1006500020E030E048EC52E4B8018D2F9C2F0E943E
:10066000E31487FF29C000E010E0D8ECC2E424C006
:1006700020E030E040EA50ECB8018D2F9C2F0E9422
:1006800032161816CCF020E030E048EC52ECB801FD
:100690008D2F9C2F0E943216181674F400E010E083
:1006A000D8ECC2EC09C000E010E0D8ECC3EC04C008
:1006B00000E010E0D8ECC3E4B8018D2F9C2FDF914F
:1006C000CF911F910F91FF90EF90DF90CF90BF904F
:1006D000AF909F908F907F906F905F904F903F90E2
:1006E0002F9008958AC19CB18FB196FB992790F9FC
:1006F00081708927089583B19CB192FB992790F965
:1007000082958170892708957894EE98EAE6F0E062
:1007100080818F7D8083808180618083E69AEE9ADC
:10072000E8E6F0E0808181608083EBE6F0E08081A4
:1007300080618083D89A6E98769A8098889A249857
:100740002C9A6A98729ACFDF809364018FB181707E
:1007500080936301D0DF809362018CB182FB882794
:1007600080F98093610183B18295817080936001EB
:1007700010925C0110925D0110925E0110925F0177
:10078000109258011092590110925A0110925B0177
:100790000895F89460915C0170915D0180915E0113
:1007A00090915F0178940895F89460915801709148
:1007B000590180915A0190915B0178940895E9DF85
:1007C0000E94821524E133E542EE5BE30C94361679
:1007D000EBDF0E94821524E133E542EE5BE30C94EB
:1007E00036161F920F920FB60F9211242F933F933C
:1007F0004F935F936F937F938F939F93AF93BF9329
:10080000EF93FF9383B19091600182958170981767
:10081000A1F171DF90916101209162013CB14091A1
:100820005C0150915D0160915E0170915F018927CB
:1008300090E032FB332730F92327821B9109092EE0
:10084000000CAA0BBB0B840F951FA61FB71F80932C
:100850005C0190935D01A0935E01B0935F0183B151
:10086000829581708093600146DF809362018CB134
:1008700082FB882780F980936101FF91EF91BF91FE
:10088000AF919F918F917F916F915F914F913F9128
:100890002F910F900FBE0F901F9018951F920F92DF
:1008A0000FB60F9211242F933F934F935F936F9343
:1008B0007F938F939F93AF93BF93EF93FF9313DF38
:1008C00090916301209164013FB140915801509192
:1008D000590160915A0170915B01892790E0317054
:1008E0002327821B9109092E000CAA0BBB0B840F36
:1008F000951FA61FB71F8093580190935901A0938D
:100900005A01B0935B01EFDE809364018FB1817077
:1009100080936301FF91EF91BF91AF919F918F9170
:100920007F916F915F914F913F912F910F900FBEEB
:100930000F901F9018953F924F925F926F927F9207
:100940008F929F92AF92BF92CF92DF92EF92FF92DF
:100950000F931F93CF93DF938C015B014A01422ECB
:10096000BBD5380182E2680E711CC301B5D5780190
:1009700086E6E80EF11CC701AFD5680184E4C80E15
:10098000D11CC601A9D5312C512CC32DD0E04C1659
:100990005D060CF1CC0FDD1FCC0FDD1FF501EC0F58
:1009A000FD1F4081518162817381C801AFD5C80D9F
:1009B000D91D488159816A817B81C301A7D540E057
:1009C00050E0BA01C701CBD540E050E0BA01C60102
:1009D000C6D53394DACFDF91CF911F910F91FF905D
:1009E000EF90DF90CF90BF90AF909F908F907F90CF
:1009F0006F905F904F903F900895AF92BF92CF92CB
:100A0000DF92EF92FF921F93CF93DF93EC016A0185
:100A10007B0110E05C0186E6A80EB11CC50166D51D
:100A2000181738F4A7019601612FC501D9D51F5FAA
:100A3000F5CF10E0CC5BDF4FCE0158D5181738F456
:100A4000A7019601612FCE01CBD51F5FF5CFDF91B6
:100A5000CF911F91FF90EF90DF90CF90BF90AF901C
:100A600008952F923F924F925F926F927F928F9252
:100A70009F92AF92BF92CF92DF92EF92FF920F932D
:100A80001F93CF93DF9300D01F92CDB7DEB79B8328
:100A90008A831C0186E6280E311CC10160D55524CD
:100AA0005394812C912C54010A811B810E5D1F4FA0
:100AB0006A807B8094E4690E711CC80117D55816B2
:100AC000C8F4652DC80175D56B017C016FEF650D0C
:100AD000C3016FD59B01AC01C701B6010E94361658
:100AE0009B01AC01C501B4010E947F144B015C0164
:100AF0005394E3CF1982C12CD12C76018A819B813A
:100B0000F5D499819817D8F469818A819B8151D550
:100B10002B013C016981C1014CD59B01AC01C30192
:100B2000B2010E9436169B01AC01C701B6010E94BA
:100B30007F146B017C0189818F5F8983DFCFA501E1
:100B40009401C701B6010E947E146B017C0160E034
:100B5000C8012FD59B01AC01C701B6010E94E71463
:100B60006B017C01AB01BC018A819B818C5B9F4F37
:100B7000F6D4C701B6010F900F900F90DF91CF917F
:100B80001F910F91FF90EF90DF90CF90BF90AF90AB
:100B90009F908F907F906F905F904F903F902F909D
:100BA000089560E08C5B9F4F04C58F929F92AF9237
:100BB000BF92CF92DF92EF92FF92CF93DF9300D05C
:100BC00000D01F92CDB7DEB74B015C01C09083050A
:100BD000D0908405E0908505F090860520E030E017
:100BE000A901C701B6010E94E314882389F0C092CD
:100BF0006501D0926601E0926701F092680110925F
:100C0000830510928405109285051092860530C0E8
:100C10008091650190916601A0916701B091680192
:100C20008093830590938405A0938505B0938605F2
:100C300081E389830E94CD0E6B017C012FE632E1B6
:100C400043E85AE3C501B4010E9436169B01AC018A
:100C5000C701B6010E947E146A837B838C839D83C7
:100C600025E0AE014F5F5F4F64E581E491E043D53D
:100C70000F900F900F900F900F90DF91CF91FF90FA
:100C8000EF90DF90CF90BF90AF909F908F9008959E
:100C9000CF93DF9300D000D01F92CDB7DEB780E3B3
:100CA00089830E94CD0E6A837B838C839D8325E09C
:100CB000AE014F5F5F4F64E581E491E01CD50F907A
:100CC0000F900F900F900F90DF91CF910895CF93D9
:100CD000DF93CDB7DEB728970FB6F894DEBF0FBE0F
:100CE000CDBF6DDD69837A838B839C8371DD6D83DA
:100CF0007E838F83988728E0AE014F5F5F4F65E466
:100D000085E491E0F8D428960FB6F894DEBF0FBEC4
:100D1000CDBFDF91CF910895CF93DF9300D000D066
:100D2000CDB7DEB7E2DB69837A838B839C8324E0D3
:100D3000AE014F5F5F4F62E48BE491E0DCD40F9033
:100D40000F900F900F90DF91CF910895CF92DF9287
:100D5000EF92FF92CF93DF93CDB7DEB72B970FB60D
:100D6000F894DEBF0FBECDBF89DB6B017C0120E0B4
:100D700030E040E850E40E94E31418163CF1809102
:100D8000690190916A01843F914004F110926A01D7
:100D90001092690182E4898381E48A8384E58B83EC
:100DA00080E28C838CE48D838FE48E8387E58F8350
:100DB000C886D986EA86FB862BE0AE014F5F5F4F7F
:100DC00061E289E491E097D480E0C0D2809169012A
:100DD00090916A01843F21E092072CF40196909350
:100DE0006A01809369012B960FB6F894DEBF0FBE9F
:100DF000CDBFDF91CF91FF90EF90DF90CF9008951E
:100E000080E090E0B3D280E090E0CFC2CF93DF9358
:100E1000CDB7DEB72C970FB6F894DEBF0FBECDBFAF
:100E2000BCD769837A838B839C83D6D29E838D8340
:100E3000E2D298878F83ADDC7A876987B5DC7C87BF
:100E40006B872CE0AE014F5F5F4F61E78EE491E06E
:100E500052D42C960FB6F894DEBF0FBECDBFDF91F3
:100E6000CF910895AB01BC018CE993E098C68CE961
:100E700093E06AD68FE893E00EC7CF92DF92EF92AD
:100E8000FF920F931F93CF93DF93CDB7DEB72D97CC
:100E90000FB6F894DEBF0FBECDBF4FD4882309F440
:100EA00045C24ED4182F8FE38D87143509F4BCC08A
:100EB00028F5123409F411C178F41B3209F469C021
:100EC00020F41A3209F43FC024C21D3209F474C060
:100ED0001F3209F44BC01DC2103509F425C138F486
:100EE000143409F497C1153409F4D9C012C211356C
:100EF00009F463C1133509F435C10BC2103709F485
:100F000004C178F4123609F4E2C020F4163509F46D
:100F1000B7C1FFC1143609F468C1153609F4B9C068
:100F2000F8C1143709F462C038F4113709F426C146
:100F3000133709F417C1EDC1163709F48CC11E37F8
:100F400009F44DC0E6C1F9D3893008F4EFC104D4E7
:100F500068E0CE0101960AD42D813E814F815885EB
:100F600069817A818B819C81C7D7DDC1E6D38930C5
:100F700008F4DCC1F1D368E0CE010196F7D32D81EE
:100F80003E814F81588569817A818B819C81CED742
:100F9000CAC1D3D3893008F4C9C1DED368E0CE0119
:100FA0000196E4D32D813E814F81588569817A81F4
:100FB0008B819C81D5D7B7C1C0D3893008F4B6C125
:100FC000CBD368E0CE010196D1D32D813E814F81F4
:100FD000588569817A818B819C81DCD7A4C1ADD38E
:100FE000882309F4A3C189EA95E091C1A6D3823090
:100FF00008F49CC1B1D361E0CE010196B7D38981D9
:10100000803339F0813351F480E090E0A0E8BFEB09
:101010002DC080E090E0A0E8BFEB1DC021E0AE0154
:10102000435F5F4F64E732C088D3863008F47EC1E7
:1010300093D365E0CE01019699D38981803339F04D
:101040008133F9F48A819B81AC81BD810FC08A8193
:101050009B81AC81BD818093760390937703A093AD
:101060007803B093790385E793E051C180938305BA
:1010700090938405A0938505B093860582E895E05A
:1010800046C121E0AE01435F5F4F64E585E591E035
:1010900092C053D3882309F449C15ED315C04DD300
:1010A000853008F443C158D364E0CE0101965ED385
:1010B00089819A81AB81BC81809376059093770575
:1010C000A0937805B093790585E795E020C135D3E5
:1010D000882309F42BC140D315C02FD3853008F4E1
:1010E00025C13AD364E0CE01019640D389819A812B
:1010F000AB81BC818093D1059093D205A093D30599
:10110000B093D40580ED95E002C117D3853008F483
:101110000DC122D364E0CE01019628D389819A8142
:1011200025D18B819C8128C008D3882309F4FEC077
:1011300013D368E0CE01019619D389819A8116D123
:101140008B819C8132D18D819E81AF81B8858093C6
:10115000900590939105A0939205B09393058FE825
:1011600095E0D5C0EAD2882309F4E0C0F5D280E04A
:1011700090E0FCD080E090E018D1D5C0DED288238A
:1011800009F4D4C0E9D209D669837A838B839C831E
:1011900023D19E838D832FD198878F83FADA7A8724
:1011A000698702DB7C876B872CE0AE014F5F5F4F66
:1011B00061E78EE491E09FD2B6C0BFD2853008F4DB
:1011C000B5C0CAD264E0CE010196D0D289819A819D
:1011D000AB81BC818093B7059093B805A093B90506
:1011E000B093BA0586EB95E092C0A7D2893008F497
:1011F0009DC0B2D268E0CE010196B8D20D811E81A9
:101200002F81388549815A816B817C818CE993E0FB
:10121000E2D389C092D28D3008F488C09DD26CE0B0
:10122000CE010196A3D20D811E812F81388549817F
:101230005A816B817C818CE993E0CDD389859A8535
:10124000AB85BC858093900390939103A093920308
:10125000B09393035AC071D2893008F467C07CD22E
:1012600068E0CE01019682D20D811E812F813885E2
:1012700049815A816B817C818CE993E016D453C0FB
:101280005CD28D3008F452C067D26CE0CE0101967A
:101290006DD227E137EB41ED57E36D817E818F8180
:1012A00098850E9436166B017C012FE632E143E0FF
:1012B0005AE369817A818B819C810E943616AB0149
:1012C000BC01970186018CE993E0EFD320E030E088
:1012D0004AE754E469857A858B859C850E94361699
:1012E0006093900370939103809392039093930380
:1012F0008BD520939403309395034093960350939A
:10130000970360939803709399038FE893E0B3D4A5
:101310000AC022D221E0AE01435F5F4F612F85E515
:1013200091E0E9D103C082E893E0A5D42D960FB6F1
:10133000F894DEBF0FBECDBFDF91CF911F910F910B
:10134000FF90EF90DF90CF90089534C2882321F072
:1013500080918100816003C0809181008E7F8093A5
:10136000810008958091810081700895CF93DF936B
:10137000EC01892B51F08091810081608093810084
:101380001C161D062CF42A9809C0ECDF882399F35B
:101390002A9AD7FF03C0D195C195D109D0938B006C
:1013A000C0938A00DF91CF910895009751F020916A
:1013B00081002160209381001816190614F42998E1
:1013C00006C0299A97FF03C0919581959109909342
:1013D00089008093880008952A9B08C080918A0024
:1013E00090918B00919581959109089580918A0043
:1013F00090918B000895299B08C08091880090915E
:101400008900919581959109089580918800909126
:10141000890008959C01E1E8F0E090819E7F90832F
:10142000F8948FB71FBE30936C0120936B0110921C
:1014300085001092840030938700209386008FBF30
:10144000789480818160808308959C0190936C01E1
:1014500080936B0185B18F7985B984B1806684B939
:1014600085B1866085B984B1866084B9E1E8F0E031
:1014700080818E7F808380818D7F808380818B7F40
:101480008083A0E8B0E08C918F7B8C938C918068F6
:101490008C938C918F7E8C938C9180628C939C9199
:1014A0009B7F9C939C91977F9C939081906190836C
:1014B0009081977F908390819D7F908390819E7F84
:1014C0009083C901A7DF10928B0010928A001092BE
:1014D0008900109288000895FC0110A211A20895BD
:1014E000FC01F3951082319610820895FC0191A1C0
:1014F00080A1981B892F87700895DC01AF5FBE4FD4
:10150000FC01F3958C919081891B0895FC0191A1B8
:10151000DF0184E0989FA00DB11D11244D935D93D0
:101520006D937C9313979F5F977091A380A19813FD
:1015300003C09F5F977090A30895FC01EF5FFE4F7B
:101540002081DC01A20FB11D6C9331E0320F30839A
:1015500031978081381302C02E5F20830895FC01EB
:1015600090A19150977090A3DF0184E0989FA00D07
:10157000B11D11244D935D936D937C93139781A1BD
:10158000981303C09150977091A308959C01FC019A
:10159000F3959081D901AF5FBE4F8C91891739F0D7
:1015A000D901A90FB11D8C919F5F9083089580E0B0
:1015B0000895FC0190A1690F677084E0689FE00DB9
:1015C000F11D112460817181828193810895FC0154
:1015D000F3952081620FFC01E60FF11D80810895D3
:1015E000FC0190A1690F677084E0689FE00DF11D18
:1015F0001124208331834283538308951F93CF9313
:10160000DF934ED68091DE058430F9F482E080933A
:10161000E9008091E80082FF18C08091F300C0913A
:10162000F200D0E0D82B10E0812F90E08C179D07BE
:1016300038F46091F1008FE692E07FDF1F5FF4CF16
:101640008091E8008B778093E8008091DE058430FC
:10165000F9F481E08093E9008091E80080FF18C0F0
:10166000C0E08DE691E049DFC81738F48DE691E0DF
:101670008DDF8093F100CF5FF4CF8091E8008E770B
:101680008093E8007BD68091E8008E778093E80015
:10169000DF91CF911F910895682F8DE691E04DCF96
:1016A0000F931F93CF93DF93EC018C01060F111D55
:1016B000C017D10719F08991EFDFFACFDF91CF91F1
:1016C0001F910F9108951F93CF93DF93EC0180E05A
:1016D00011E0180FFE01E80FF11D8081DDDF812F81
:1016E000FE01E10FF11D90819111F2CF80E0DF91B9
:1016F000CF911F91D1CFEF92FF920F931F93CF9372
:10170000DF93EC01062F7A01122FFC0101900020DB
:10171000E9F73197E81BF90B82E0820F8E0FBCDFEF
:10172000CE01D1DF802FB8DF612FC701DF91CF91CC
:101730001F910F91FF90EF90B3CF8FE692E0DDCE37
:101740008FE692E0DADE882329F060916F038FE65E
:1017500092E03DCF80E008958FE692E0CEDE8823D0
:1017600019F08FE692E012CF80E00895FF920F9378
:101770001F93CF93DF93F82E092F162F8FE692E059
:10178000BCDE811780F0CF2DD02FCE01810F911DAF
:101790008C01C017D10729F08FE692E0F7DE89931C
:1017A000F8CF81E001C080E0DF91CF911F910F91D0
:1017B000FF90089582E08093E900E8EEF0E08081F8
:1017C0008B7780838FE692E08BCE8FE692E088DE87
:1017D0008DE691E085DE84B7877F84BF0FB6F894ED
:1017E000A8958091600088618093600010926000ED
:1017F0000FBE90E080E80FB6F8948093610090935C
:1018000061000FBE21D4789408950895089542E1AF
:1018100061E881E05FD542E160E882E05BD542E0CB
:1018200061EC83E057D510921201109213011092CF
:1018300014011092150108958091E005813229F07C
:10184000823249F1803289F512C08091DF05813AF8
:1018500061F58091E800877F8093E80067E070E0A1
:1018600082E191E0BED58091E8008B7711C0809134
:10187000DF058132D1F48091E800877F8093E80012
:1018800067E070E082E191E00AD68091E8008E770F
:101890008093E80008958091DF05813231F48091D2
:1018A000E800877F8093E8004AC508952F923F9211
:1018B0004F925F926F927F928F929F92AF92BF9260
:1018C000CF92DF92EF92FF920F931F93CF93DF930C
:1018D000CDB7DEB729970FB6F894DEBF0FBECDBFE8
:1018E0001C017A8369835C834B832D83AE82BF8224
:1018F000C886D98657016801E22E8A019B014E8D68
:101900005F8D68A179A10E947802410188E9880E63
:10191000911CED800B811C8129813A814E8D5F8D58
:1019200068A179A1C4010E94780240E050E0BA01A8
:10193000C1010E94720340E050E0BA01C4010E945C
:101940007203F101E05DFE4F8E819F81A885B9850C
:1019500080839183A283B38334968E8D9F8DA8A1BB
:10196000B9A180839183A283B38334968AA19BA17A
:10197000ACA1BDA180839183A283B38334968EA151
:101980009FA191838083329688A599A591838083B6
:1019900032968AA59BA59183808332968CA59DA5BE
:1019A0009183808329960FB6F894DEBF0FBECDBF1A
:1019B000DF91CF911F910F91FF90EF90DF90CF902B
:1019C000BF90AF909F908F907F906F905F904F905F
:1019D0003F902F9008958F929F92AF92BF92CF9297
:1019E000DF92EF92FF920F931F93CF93DF93EC015F
:1019F0004A015B01C901B801FE01E05DFE4F208193
:101A00003181428153810E9436166B017C018E0127
:101A100004571F4F9B01AC01C501B4016FD722E0F1
:101A200038E84EE552E40E9436169B01AC01F801FD
:101A3000608171818281938162D7F80160837183B3
:101A40008283938308561F4FA5019401C701B601F5
:101A500056D722E038E84EE552E40E9436169B0144
:101A6000AC01F801608171818281938148D7F801CE
:101A70006083718382839383E459F1091082118218
:101A800012821382C85DDE4F188219821A821B826D
:101A9000DF91CF911F910F91FF90EF90DF90CF904A
:101AA000BF90AF909F908F9008958F929F92AF922A
:101AB000BF92CF92DF92EF92FF920F931F93CF933B
:101AC000DF93EC016A017B01480159018C01005749
:101AD0001F4FA5019401C701B60110D7F80160831B
:101AE00071838283938308561F4FA5019401C70118
:101AF000B60105D7F801608371838283938374965E
:101B00000190F081E02D0995FE01E457FF4F6083BD
:101B1000718382839383EE54FF4F0190F081E02D17
:101B20000995CC5DDE4F688379838A839B83DF913F
:101B3000CF911F910F91FF90EF90DF90CF90BF90CA
:101B4000AF909F908F900895CF93DF93EC01FC01AD
:101B5000E057FF4F1082118212821382E856FF4F26
:101B6000108211821282138274960190F081E02D0E
:101B70000995FE01E457FF4F60837183828393834D
:101B8000EE54FF4F0190F081E02D0995CC5DDE4FC2
:101B9000688379838A839B83DF91CF9108954F92E5
:101BA0005F926F927F928F929F92AF92BF92CF92ED
:101BB000DF92EF92FF920F931F93CF93DF93EC018D
:101BC0006A017B01FC01E45CFE4F0190F081E02D95
:101BD00009954B015C01FE01E25CFE4F0190F08132
:101BE000E02D09952B013C0197018601B501A40167
:101BF000CE010E94AC024B015C0197018601B3014A
:101C0000A201CE0188569F4F0E94AC026B017C015D
:101C1000C501B40144D7FE01E05CFE4F0190F081A4
:101C2000E02DCB010995C701B60139D7CE5BDE4F58
:101C3000E881F981CB01DF91CF911F910F91FF9046
:101C4000EF90DF90CF90BF90AF909F908F907F905C
:101C50006F905F904F900994FC01108241835283F2
:101C6000638374831286118615821682178210860A
:101C7000348723870895CF93DF93EC0181E0888335
:101C8000F6D09A878987EAD06D837E838F83988781
:101C9000DF91CF910895FC0110820895CF93DF93D7
:101CA000EC0120E030E0A90169817A818B819C817F
:101CB0008AD687FD0AC0CE010596DFD029813A81F8
:101CC0004B815C81CFD787FD02C0888101C080E055
:101CD000DF91CF9108958F929F92AF92BF92EF9232
:101CE000FF921F93CF93DF93EC01D8DF182F882347
:101CF00091F1EB84FC84E114F10461F169857A854A
:101D000080E090E0FDD62FE632E143E85AE3AED71B
:101D10004B015C016D817E818F819885F1D69B019D
:101D2000AC01C501B401EBD5F7010995A0D09A87A4
:101D3000898794D06D837E838F83988720E030E0FD
:101D4000A90169817A818B819C813DD687FF03C07F
:101D5000188201C010E0812FDF91CF911F91FF9079
:101D6000EF90BF90AF909F908F90089584B584BD01
:101D700085B5836085BD89EF87BD16BCEEE6F0E0D2
:101D80008081826080837894109271031092720334
:101D9000109273031092740308958F929F92AF92E2
:101DA000BF92CF92DF92EF92FF928090710390905A
:101DB0007203A0907303B090740366B584E0689FCB
:101DC000B0011124072E000C880B990B9BD62DEB2C
:101DD00037E346E855E34AD76B017C01C501B401FE
:101DE0008FD62FE632E143E85AE340D79B01AC019E
:101DF000C701B60184D5FF90EF90DF90CF90BF90E0
:101E0000AF909F908F900895CF93DF9300D000D034
:101E100000D0CDB7DEB78091710390917203A0918D
:101E20007303B091740366B589839A83AB83BC83D3
:101E300024E0629FB00111247E836D83282F3A81B4
:101E40004B815C817E8180E090E026960FB6F8940D
:101E5000DEBF0FBECDBFDF91CF91089560917103BA
:101E6000709172038091730390917403089586B505
:101E700024E0829FC001112408950F931F93FC0159
:101E80008091710390917203A0917303B0917403D8
:101E90000081118122813381BC01CD01601B710B56
:101EA000820B930B2DD61F910F9108951F920F92C5
:101EB0000FB60F9211248F939F93AF93BF9316BCCD
:101EC0008091710390917203A0917303B091740398
:101ED0000196A11DB11D8093710390937203A0938D
:101EE0007303B0937403BF91AF919F918F910F9043
:101EF0000FBE0F901F901895CF93DF9300D000D0A6
:101F0000CDB7DEB7B3D669837A838B839C8324E015
:101F1000AE014F5F5F4F6AE28BE491E0ECDB0F9024
:101F20000F900F900F90DF91CF910895CF93DF9393
:101F300000D000D0CDB7DEB74AD569837A838B83D2
:101F40009C8324E0AE014F5F5F4F6FE28BE491E032
:101F5000D2DB0F900F900F900F90DF91CF910895EB
:101F6000CF93DF9300D000D0CDB7DEB7C8D469835C
:101F70007A838B839C8324E0AE014F5F5F4F6BE2DB
:101F80008BE491E0B8DB0F900F900F900F90DF91F2
:101F9000CF910895CF93DF9300D000D0CDB7DEB7B7
:101FA000ADD469837A838B839C8324E0AE014F5F39
:101FB0005F4F6DE28BE491E09EDB0F900F900F90EE
:101FC0000F90DF91CF9108950F931F93CF93DF93DD
:101FD0004BD052D0C8EDD0E088818F77888388813C
:101FE0008068888388818F7D888319BC1092DE0584
:101FF0001092E7051092E9051092E80500EE10E056
:10200000F80180818B7F808388818160888342E0B2
:1020100060E080E05FD1E1EEF0E080818E7F808340
:10202000E2EEF0E08081816080838081886080833F
:10203000F80180818E7F8083888180618883DF9131
:10204000CF911F910F910895E8EDF0E080818F7E90
:102050008083E7EDF0E080818160808384E082BF4F
:1020600081E08093DD05B0CFE8EDF0E080818E7FE8
:1020700080831092E20008951092DA001092E1003D
:1020800008951F920F920FB60F9211242F933F9332
:102090004F935F936F937F938F939F93AF93BF9370
:1020A000EF93FF938091E10082FF0AC08091E200EC
:1020B00082FF06C08091E1008B7F8093E100EFD02A
:1020C0008091DA0080FF1DC08091D80080FF19C088
:1020D0008091DA008E7F8093DA008091D90080FFB2
:1020E0000CC080E189BD82E189BD09B400FEFDCF4D
:1020F00081E08093DE0589DB04C019BC1092DE0507
:1021000085DB8091E10080FF18C08091E20080FFB4
:1021100014C08091E2008E7F8093E2008091E20003
:1021200080618093E2008091D80080628093D80023
:1021300019BC85E08093DE05B2D08091E10084FF78
:102140002FC08091E20084FF2BC080E189BD82E135
:1021500089BD09B400FEFDCF8091D8008F7D8093AA
:10216000D8008091E1008F7E8093E1008091E200B1
:102170008F7E8093E2008091E20081608093E20094
:102180008091E705882311F084E007C08091E30087
:1021900087FD02C081E001C083E08093DE057FD02F
:1021A0008091E10083FF27C08091E20083FF23C07C
:1021B0008091E100877F8093E10082E08093DE05DB
:1021C0001092E7058091E1008E7F8093E10080917D
:1021D000E2008E7F8093E2008091E2008061809334
:1021E000E20042E060E080E075D08091F00088601D
:1021F0008093F00054D0FF91EF91BF91AF919F91E8
:102200008F917F916F915F914F913F912F910F909F
:102210000FBE0F901F9018951F920F920FB60F923E
:1022200011242F933F934F935F936F937F938F93DB
:102230009F93AF93BF93CF93DF93EF93FF93C0919F
:10224000E900CF708091EC00D82FD17080FDD0E8EC
:102250001092E9008091F000877F8093F0007894DD
:10226000BFD11092E9008091F00088608093F00067
:10227000CD2BCF70C093E900FF91EF91DF91CF910B
:10228000BF91AF919F918F917F916F915F914F918E
:102290003F912F910F900FBE0F901F9018950895AA
:1022A000CF938091DE05882399F0C091E900CF702B
:1022B0009091EC00892F817090FD80E8C82B1092DE
:1022C000E9008091E80083FD8BD1CF70C093E900D5
:1022D000CF910895982F973068F59093E90098175B
:1022E00039F07091EC002091ED005091F00003C0A6
:1022F000242F762F50E021FD02C09F5FECCF30915C
:10230000EB003E7F3093EB003091ED003D7F30934A
:10231000ED003091EB0031603093EB007093EC00F6
:102320002093ED005093F0002091EE0027FDE5CFC3
:1023300080E008958F708093E90081E00895809196
:10234000DF0587FF11C08091E80082FD05C0809104
:10235000DE058111F8CF11C08091E8008B770BC0AA
:102360008091DE05882349F08091E80080FFF8CF56
:102370008091E8008E778093E80008952091E40032
:102380003091E50095E64091EC00842F817040FF8C
:1023900023C08091E80080FD1DC08091DE05882368
:1023A00099F0853099F08091EB0085FD11C0409146
:1023B000E4005091E5002417350729F3915011F0FE
:1023C0009A01E1CF84E0089582E0089583E00895C2
:1023D00081E0089580E008954091E80042FFDDCF5C
:1023E00008952091E5053091E6052617370748F056
:1023F0006115710539F42091E8002E772093E800EB
:1024000001C0B901FC0120E06115710579F18091ED
:10241000DE058823F1F18530F1F18091E80083FD3C
:102420003CC08091E80082FD2EC08091E80080FFD2
:10243000EBCF2091F3008091F20090E0922B611598
:10244000710551F08830910538F421912093F10005
:10245000615071090196F3CF21E0089709F020E05F
:102460008091E8008E778093E800CECF2111CFCF06
:102470000AC08091DE05882361F0853061F080918B
:10248000E80083FD0AC08091E80082FFF2CF80E07F
:10249000089582E0089583E0089581E0089561152C
:1024A000710529F42091E8002B772093E800FC01C6
:1024B0006115710541F18091DE05882361F1853058
:1024C00061F18091E80083FD24C08091E80082FFE3
:1024D000EFCF2091F3008091F20090E0922B892BB6
:1024E00031F08091F10081936150710991F78091F1
:1024F000E8008B778093E800DBCF8091DE058823AE
:1025000051F0853051F08091E80080FFF6CF80E0F7
:10251000089581E0089582E0089583E00895209170
:10252000E5053091E6052617370748F06115710576
:1025300039F42091E8002E772093E80001C0B9011A
:10254000FC0120E06115710591F18091DE05882381
:1025500009F440C0853009F43FC08091E80083FD54
:102560003DC08091E80082FD2FC08091E80080FF8F
:10257000E9CF2091F3008091F20090E0922B611559
:10258000710559F08830910540F424912093F100B1
:102590003196615071090196F2CF21E0089709F058
:1025A00020E08091E8008E778093E800CBCF211166
:1025B000CCCF0AC08091DE05882361F0853061F0C0
:1025C0008091E80083FD0AC08091E80082FFF2CF8D
:1025D00080E0089582E0089583E0089581E0089501
:1025E0001F93CF93DF93CDB7DEB7AA970FB6F894BA
:1025F000DEBF0FBECDBFEFEDF5E08091F10081931E
:1026000025E0E73EF207C9F717D98091E80083FF7C
:1026100027C18091DF059091E005492F50E04A30B5
:10262000510508F01DC1FA01EA5AFF4F61C1803817
:1026300021F0823809F014C108C08091E80590911A
:10264000E905992389F082600FC08091E3058F70BE
:10265000873008F005C18093E9008091EB0085FB8D
:10266000882780F91092E9009091E800977F909375
:10267000E8008093F1001092F100CCC0282F2D7F4C
:1026800009F0EEC0882319F0823061F0E9C0809132
:10269000E105813009F0E4C0933009F080E08093D7
:1026A000E9052EC08091E10581112AC08091E305E2
:1026B0008F702FEF280F263008F0D2C08093E900EA
:1026C0002091EB0020FF1CC0933021F48091EB009F
:1026D000806214C09091EB0090619093EB0021E038
:1026E00030E0A90102C0440F551F8A95E2F74093DC
:1026F000EA001092EA008091EB0088608093EB0082
:102700001092E9008091E800877F8093E80017DE4F
:10271000A7C08111A5C01091E1051F778091E3004A
:102720008078812B8093E3008091E800877F8093FD
:10273000E80005DE8091E80080FFFCCF8091E30097
:1027400080688093E300111102C082E001C083E041
:102750008093DE0585C08058823008F081C080916A
:10276000E1059091E2058C3D53E0950771F583E01A
:102770008A838AE289834FB7F894DE01139620E0BA
:102780003EE051E2E32FF0E050935700E49120FF48
:1027900003C0E295EF703F5FEF708E2F90E0EA305C
:1027A00010F0C79601C0C0968D939D932F5F243182
:1027B00049F74FBF8091E800877F8093E8006AE285
:1027C00070E0CE0101960DDE14C06091E3057091BA
:1027D000E405AE014F5F5F4F5BD0BC01892B09F46C
:1027E0003FC09091E800977F9093E80089819A819B
:1027F00096DE8091E8008B778093E80031C08038C6
:1028000079F58091E800877F8093E8008091E70563
:102810008093F1008091E8008E7777CF811120C0FE
:102820008091E1059091E20599270297CCF480917F
:10283000E800877F8093E8008091E1058093E705B9
:102840007EDD8091E705811106C08091E30087FD60
:1028500002C081E001C084E08093DE050E94070C85
:102860008091E80083FF0AC08091E800877F809311
:10287000E8008091EB0080628093EB00AA960FB68F
:10288000F894DEBF0FBECDBFDF91CF911F910895A9
:10289000292F33272230310559F02330310569F0D3
:1028A00021303105E9F482E190E020E731E01CC0FD
:1028B0008EE390E022E331E017C099278130910543
:1028C00049F028F0029761F4E0ECF0E005C0EEE298
:1028D000F1E002C0EAEFF0E0849190E09F0104C0D3
:1028E00080E090E020E030E0FA0131832083089519
:1028F000EE0FFF1F0590F491E02D09945058BB276F
:10290000AA270ED075C166D130F06BD120F031F41A
:102910009F3F11F41EF45BC10EF4E095E7FB51C13B
:10292000E92F77D180F3BA176207730784079507F9
:1029300018F071F49EF58FC10EF4E0950B2EBA2FAE
:10294000A02D0B01B90190010C01CA01A0011124B5
:10295000FF27591B99F0593F50F4503E68F11A1661
:10296000F040A22F232F342F4427585FF3CF4695F2
:1029700037952795A795F0405395C9F77EF41F1614
:10298000BA0B620B730B840BBAF09150A1F0FF0FDE
:10299000BB1F661F771F881FC2F70EC0BA0F621FCA
:1029A000731F841F48F4879577956795B795F795BA
:1029B0009E3F08F0B3CF9395880F08F09927EE0F4C
:1029C000979587950895D9D008F481E008950CD0A3
:1029D0000FC107D140F0FED030F021F45F3F19F075
:1029E000F0C0511139C1F3C014D198F39923C9F340
:1029F0005523B1F3951B550BBB27AA276217730705
:102A0000840738F09F5F5F4F220F331F441FAA1FB8
:102A1000A9F333D00E2E3AF0E0E830D09150504078
:102A2000E695001CCAF729D0FE2F27D0660F771F26
:102A3000881FBB1F261737074807AB07B0E809F008
:102A4000BB0B802DBF01FF2793585F4F2AF09E3F9D
:102A5000510568F0B6C000C15F3FECF3983EDCF36F
:102A6000869577956795B795F7959F5FC9F7880F16
:102A7000911D9695879597F90895E1E0660F771F68
:102A8000881FBB1F621773078407BA0720F0621BF9
:102A9000730B840BBA0BEE1F88F7E095089504D0F2
:102AA0006894B111D9C00895BCD088F09F5790F0B8
:102AB000B92F9927B751A0F0D1F0660F771F881F63
:102AC000991F1AF0BA95C9F712C0B13081F0C3D07E
:102AD000B1E00895C0C0672F782F8827B85F39F01C
:102AE000B93FCCF3869577956795B395D9F73EF4C2
:102AF00090958095709561957F4F8F4F9F4F08956A
:102B0000E89409C097FB3EF4909580957095619587
:102B10007F4F8F4F9F4F9923A9F0F92F96E9BB273D
:102B20009395F695879577956795B795F111F8CFB9
:102B3000FAF4BB0F11F460FF1BC06F5F7F4F8F4F24
:102B40009F4F16C0882311F096E911C0772321F01A
:102B50009EE8872F762F05C0662371F096E8862FB2
:102B600070E060E02AF09A95660F771F881FDAF709
:102B7000880F9695879597F90895990F0008550F36
:102B8000AA0BE0E8FEEF16161706E807F907C0F0F3
:102B900012161306E407F50798F0621B730B840BFB
:102BA000950B39F40A2661F0232B242B252B21F4D5
:102BB00008950A2609F4A140A6958FEF811D811D75
:102BC000089597F99F6780E870E060E008959FEFAF
:102BD00080EC089500240A941616170618060906B4
:102BE000089500240A941216130614060506089583
:102BF000092E0394000C11F4882352F0BB0F40F40B
:102C0000BF2B11F460FF04C06F5F7F4F8F4F9F4F4A
:102C1000089557FD9058440F551F59F05F3F71F0CC
:102C20004795880F97FB991F61F09F3F79F0879533
:102C30000895121613061406551FF2CF4695F1DFBC
:102C400008C0161617061806991FF1CF869571054C
:102C5000610508940895E894BB2766277727CB0180
:102C600097F908958ADF08F48FEF08950BD0C0CF4D
:102C7000B1DF28F0B6DF18F0952309F0A2CFA7CF77
:102C80001124EACFC6DFA0F3959FD1F3950F50E052
:102C9000551F629FF001729FBB27F00DB11D639F0E
:102CA000AA27F00DB11DAA1F649F6627B00DA11DB4
:102CB000661F829F2227B00DA11D621F739FB00D5A
:102CC000A11D621F839FA00D611D221F749F3327CA
:102CD000A00D611D231F849F600D211D822F762F63
:102CE0006A2F11249F5750408AF0E1F088234AF060
:102CF000EE0FFF1FBB1F661F771F881F91505040AC
:102D0000A9F79E3F510570F05CCFA6CF5F3FECF373
:102D1000983EDCF3869577956795B795F795E79597
:102D20009F5FC1F7FE2B880F911D9695879597F9A8
:062D30000895F894FFCFA6
:102D36000000803FBB5615BF1E987D40CDED62C09A
:102D4600010000000000000008C2D58238C2D5820A
:102D560039A340C439C2D58239C2D5823800008031
:102D66003F927F60C046829440A0872FC0024C1CD1
:102D76003F63636600636666006337636600636687
:082D86006868686800636300DF
:00000001FF
