:10000000C0C00000DAC00000D8C00000D6C00000A8
:10001000D4C00000D2C00000D0C0000022C3000045
:10002000CCC00000C1C200000C94B90E0C94840F27
:10003000C4C00000C2C00000C0C00000BEC00000BC
:10004000BCC00000BAC00000B8C00000B6C00000CC
:10005000B4C000000C94600DB0C00000AEC0000041
:10006000ACC00000AAC00000A8C00000A6C00000EC
:10007000A4C00000A2C00000A0C000009EC00000FC
:100080009CC000009AC0000098C0000096C000000C
:1000900094C0000092C0000090C000008EC000001C
:1000A0008CC000008AC0000088C000008F11B6110B
:1000B000A812B611A81201122312A81277128612E2
:1000C00038034D00450047004E0035003400300035
:1000D00020004C0061006200200050006F006C00A6
:1000E0006F006C00750020005A0075006D006F00F5
:1000F00020004300610072000000320343006F00E3
:100100006C006F007200610064006F0020005300FB
:10011000630068006F006F006C0020006F006600D5
:1001200020004D0069006E006500730000000403AC
:10013000090409023E0002010080320904000001A6
:100140000202010005240010010424020605240611
:100150000001070583030800FF09040100020A00EB
:1001600000000705020210000507058102100005C6
:100170001201100102000008FB1F00230100010210
:10018000DC0111241FBECFEFDAE0DEBFCDBF11E0EE
:10019000A0E0B1E0E6E2FAE202C005900D92A036DE
:1001A000B107D9F725E0A0E6B1E001C01D92A53E58
:1001B000B207E1F7C9D00C94111522CFAF92BF92CC
:1001C000CF92DF92EF92FF920F931F930E94550AF6
:1001D0000E94EA0C7CD1EAD080E991E085D784E2E4
:1001E00098E09F938F9385E098E09F938F938BEC9B
:1001F00092E09F938F9382EC92E09F938F9383E49E
:100200008F9388EC8F931F921F92A12CB12C80E8C2
:10021000C82E8FE3D82E1FE9E12E1BEAF12E0DEA3E
:100220001DE322E040E051E068E071E087E993E0FF
:100230000E94C60A2EED30E040E050E060E87FEB1F
:1002400084EA95E00E94620C2EE136E04FE852EC21
:1002500065EF7CE387E995E00E94620C20E335E0DE
:1002600040E050E060E87FEB8DE793E00E94620C95
:100270002EEB34E040E050E060E87FEB8DE795E066
:100280000E94620C24EF37E040E050E068EC72E43A
:100290008AE893E00E94620C2EE435E040E050E0F2
:1002A00060E87FEB80E795E00E94620C23E735E091
:1002B00040E050E060E87FEB8BEC95E00E94620C40
:1002C0002DE835E04FE652E163E07BE38EEB95E00D
:1002D0000E94620C27EE35E040E050E060E87FEBE2
:1002E0008AE895E00E94620C2DEE35E040E050E097
:1002F00060E87FEB81EB95E00E94620C29E136E03B
:100300004FE652E163E87AE383E695E00E94620CEF
:1003100087E995E00E94710C8EEB95E00E94710CCC
:100320008DB79EB70C960FB6F8949EBF0FBE8DBFCB
:1003300083E695E01F910F91FF90EF90DF90CF90B3
:10034000BF90AF900C94710C60E070E0CB0136DF91
:10035000C5D783E695E00E949F0C8AE895E00E944D
:100360009F0C81EB95E00E949F0C80E795E00E9436
:100370009F0C8BEC95E00E949F0C8EEB95E00E9409
:100380009F0C8DE793E00E949F0C8DE795E00E9403
:100390009F0C84EA95E00E949F0C87E995E00E94FB
:1003A0009F0C8AE893E00E949F0CD2CFCF93DF93FB
:1003B000CDB7DEB7A8970FB6F894DEBF0FBECDBF9E
:1003C000EAE7F0E0808187608083808180688083B5
:1003D000ECE7F0E08081808380818660808380818B
:1003E00080648083EEE7F0E080818064808384E134
:1003F000E9E1F1E0DE01559601900D928A95E1F771
:1004000084E1EDE2F1E0DE01119601900D928A9512
:10041000E1F724E0AE014F5F5F4FBE016B5E7F4F9F
:100420008BED94E074D1A8960FB6F894DEBF0FBEA2
:10043000CDBFDF91CF910895CF92DF92EF92FF92DF
:1004400080917A00806480937A0080917A0086FDA2
:10045000FCCF80917800682F80917900782F80E020
:1004600090E00E94F81320E030E040E25CE30E945C
:10047000AE146B017C018091100190911101892BC8
:1004800049F01092110110921001B701A6018BEDF5
:1004900094E09BD1B701A6018BED94E0FF90EF9023
:1004A000DF90CF90C4C18BED94E065C29CB18FB159
:1004B00096FB992790F981708927089583B19CB1A3
:1004C00092FB992790F982958170892708957894F5
:1004D000EE98EAE6F0E080818F7D80838081806104
:1004E0008083E69AEE9AE8E6F0E08081816080837E
:1004F000EBE6F0E0808180618083D89A6E98769AEE
:100500008098889A24982C9A6A98729ACFDF809360
:100510006C018FB1817080936B01D0DF80936A0191
:100520008CB182FB882780F98093690183B1829521
:10053000817080936801109264011092650110929D
:100540006601109267011092600110926101109291
:100550006201109263010895F894609164017091B2
:100560006501809166019091670178940895F894EF
:1005700060916001709161018091620190916301CD
:1005800078940895E9DF0E94FA1324E133E542EEFE
:100590005BE30C94AE14EBDF0E94FA1324E133E525
:1005A00042EE5BE30C94AE141F920F920FB60F92C3
:1005B00011242F933F934F935F936F937F938F9368
:1005C0009F93AF93BF93EF93FF9383B19091680193
:1005D000829581709817A1F171DF90916901209146
:1005E0006A013CB1409164015091650160916601DE
:1005F00070916701892790E032FB332730F9232778
:10060000821B9109092E000CAA0BBB0B840F951FAE
:10061000A61FB71F8093640190936501A0936601A4
:10062000B093670183B1829581708093680146DF42
:1006300080936A018CB182FB882780F980936901DD
:10064000FF91EF91BF91AF919F918F917F916F91AA
:100650005F914F913F912F910F900FBE0F901F9080
:1006600018951F920F920FB60F9211241F932F937C
:100670003F934F935F936F937F938F939F93AF932A
:10068000BF93CF93DF93EF93FF9310DF182FC091A9
:100690006B01D0916C010ADF4091600150916101C2
:1006A0006091620170916301C1272C2F30E08D278A
:1006B000F901E81BF109CF01092E000CAA0BBB0BB5
:1006C000840F951FA61FB71F80936001909361014F
:1006D000A0936201B0936301E9DE80936C018FB156
:1006E000817080936B01FF91EF91DF91CF91BF916A
:1006F000AF919F918F917F916F915F914F913F91BA
:100700002F911F910F900FBE0F901F9018954F9231
:100710005F926F927F928F929F92AF92BF92CF9291
:10072000DF92EF92FF920F931F93CF93DF93EC0131
:100730007B014A01422E1FD53E0182E2680E711CE8
:10074000C30119D56E01E6E6CE0ED11CC60113D544
:100750005E01F4E4AF0EB11CC5010DD58701740133
:10076000812C912C512C48145904F4F0F80141913A
:100770005191619171918F01CE0117D5F70141918E
:100780005191619171917F01C3010FD540E050E01B
:10079000BA01C6010AD540E050E0BA01C50105D54D
:1007A000FFEF8F1A9F0ADFCFDF91CF911F910F913B
:1007B000FF90EF90DF90CF90BF90AF909F908F9081
:1007C0007F906F905F904F9008958F929F92AF921D
:1007D000BF92EF92FF920F931F93CF93DF934A0143
:1007E0005B01C0E0D0E07C0126E6E20EF11C8C014A
:1007F0000C5B1F4FC701C9D490E0C817D90764F438
:10080000A50194016C2FC7015BD5A50194016C2F44
:10081000C80156D52196EECFDF91CF911F910F9150
:10082000FF90EF90BF90AF909F908F9008952F9280
:100830003F924F925F926F927F928F929F92AF9270
:10084000BF92CF92DF92EF92FF920F931F93CF93BD
:10085000DF9300D000D000D0CDB7DEB79E838D836C
:100860001C0186E6280E311CC101C8D400E010E04E
:10087000812C912C5401750164018D819E818C5BCA
:100880009F4F9A8389838D819E8182969C838B83DF
:10089000C1017BD490E008171907B4F5602FC1019E
:1008A000F8D42B013C01602F8D819E81F2D49B01F5
:1008B000AC01C301B2010E94AE149B01AC01C7019F
:1008C000B6010E94F7126B017C0101151105C9F0F8
:1008D0006FEF600F89819A81DCD42B013C01602F7E
:1008E0008B819C81D6D49B01AC01C301B2010E94D3
:1008F000AE149B01AC01C501B4010E94F7124B017B
:100900005C010F5F1F4FC4CFA5019401C701B60161
:100910000E94F6126B017C0160E08D819E818296BF
:10092000B8D49B01AC01C701B6010E945F136B01F3
:100930007C01AB01BC018D819E818C5B9F4F5ED49D
:10094000C701B60126960FB6F894DEBF0FBECDBF25
:10095000DF91CF911F910F91FF90EF90DF90CF909B
:10096000BF90AF909F908F907F906F905F904F90CF
:100970003F902F9008958C5B9F4F57C48F929F920A
:10098000AF92BF92CF92DF92EF92FF92CF93DF931D
:1009900000D000D01F92CDB7DEB74B015C01C090F4
:1009A0007E05D0907F05E0908005F090810520E0E5
:1009B00030E0A901C701B6010E945B13882389F0CA
:1009C000C0926D01D0926E01E0926F01F0927001C1
:1009D00010927E0510927F0510928005109281057D
:1009E0002FC080916D0190916E01A0916F01B09127
:1009F000700180937E0590937F05A0938005B0934E
:100A0000810581E38983FDD76B017C012FE632E10B
:100A100043E85AE3C501B4010E94AE149B01AC0146
:100A2000C701B6010E94F6126A837B838C839D8383
:100A300025E0AE014F5F5F4F64E581E491E0CBD4E8
:100A40000F900F900F900F900F90DF91CF91FF902C
:100A5000EF90DF90CF90BF90AF909F908F900895D0
:100A6000CF93DF9300D000D01F92CDB7DEB780E3E5
:100A70008983C7D76A837B838C839D8325E0AE01FE
:100A80004F5F5F4F64E581E491E0A5D40F900F9034
:100A90000F900F900F90DF91CF910895CF93DF9338
:100AA000CDB7DEB728970FB6F894DEBF0FBECDBF27
:100AB00069DD69837A838B839C836DDD6D837E839F
:100AC0008F83988728E0AE014F5F5F4F65E485E430
:100AD00091E081D428960FB6F894DEBF0FBECDBF4B
:100AE000DF91CF910895CF93DF9300D000D0CDB7A1
:100AF000DEB7D9DC69837A838B839C8324E0AE01E3
:100B00004F5F5F4F62E48BE491E065D40F900F90EC
:100B10000F900F90DF91CF910895CF92DF92EF92D7
:100B2000FF92CF93DF93CDB7DEB72B970FB6F89434
:100B3000DEBF0FBECDBF80DC6B017C0120E030E06A
:100B400040E850E40E945B1318163CF1809171015B
:100B500090917201843F914004F1109272011092C1
:100B6000710182E4898381E48A8384E58B8380E256
:100B70008C838CE48D838FE48E8387E58F83C88696
:100B8000D986EA86FB862BE0AE014F5F5F4F61E2BC
:100B900089E491E020D480E028D280917101909185
:100BA0007201843F21E092072CF401969093720128
:100BB000809371012B960FB6F894DEBF0FBECDBFA8
:100BC000DF91CF91FF90EF90DF90CF90089580E07C
:100BD00090E01BD280E090E037C2CF93DF93CDB797
:100BE000DEB72C970FB6F894DEBF0FBECDBF09D786
:100BF00069837A838B839C833ED29E838D834AD282
:100C000098878F83A9DC7A876987B1DC7C876B87BB
:100C10002CE0AE014F5F5F4F61E78EE491E0DBD3E4
:100C20002C960FB6F894DEBF0FBECDBFDF91CF91EB
:100C30000895AB01BC0187E993E059C50F931F9359
:100C4000CF93DF93CDB7DEB72D970FB6F894DEBF05
:100C50000FBECDBFE2D3882309F4BBC1E1D3182F67
:100C60008FE38D87133509F44FC1E8F41F3209F47F
:100C70004FC050F41B3209F45EC01D3209F46EC03F
:100C80001A3209F099C131C0153409F4DAC020F4E0
:100C9000123409F4F4C090C1103509F417C11135AC
:100CA00009F45DC189C1103709F401C178F4123625
:100CB00009F4DFC020F4143509F488C07DC114366E
:100CC00009F466C1153609F4B6C076C1133709F4C4
:100CD0001BC120F4113709F423C16EC1143709F484
:100CE00057C01E3709F44DC067C197D3893008F447
:100CF00070C1A2D368E0CE010196A8D32D813E81B8
:100D00004F81588569817A818B819C816DD75EC1C5
:100D100084D3893008F45DC18FD368E0CE01019699
:100D200095D32D813E814F81588569817A818B8150
:100D30009C8174D74BC171D3893008F44AC17CD3EC
:100D400068E0CE01019682D32D813E814F81588586
:100D500069817A818B819C817BD738C15ED3893050
:100D600008F437C169D368E0CE0101966FD32D81B5
:100D70003E814F81588569817A818B819C8182D7A0
:100D800025C14BD3882309F424C184EA95E0FEC031
:100D900044D3823008F41DC14FD361E0CE010196E7
:100DA00055D38981803339F0813351F480E090E06C
:100DB000A0E8BFEB2DC080E090E0A0E8BFEB1DC035
:100DC00021E0AE01435F5F4F64E732C026D3863037
:100DD00008F4FFC031D365E0CE01019637D3898195
:100DE000803339F08133F9F48A819B81AC81BD81F4
:100DF0000FC08A819B81AC81BD8180937E039093DB
:100E00007F03A0938003B09381038DE793E0BEC07E
:100E100080937E0590937F05A0938005B093810514
:100E20008DE795E0B3C021E0AE01435F5F4F64E51D
:100E300085E591E092C0F1D2882309F4CAC0FCD2C2
:100E400015C0EBD2853008F4C4C0F6D264E0CE0100
:100E50000196FCD289819A81AB81BC818093710516
:100E600090937205A0937305B093740580E795E0A5
:100E70008DC0D3D2882309F4ACC0DED215C0CDD248
:100E8000853008F4A6C0D8D264E0CE010196DED247
:100E900089819A81AB81BC818093CC059093CD05EB
:100EA000A093CE05B093CF058BEC95E06FC0B5D283
:100EB000853008F48EC0C0D264E0CE010196C6D25F
:100EC00089819A81A2D08B819C8128C0A6D2882357
:100ED00009F47FC0B1D268E0CE010196B7D2898112
:100EE0009A8193D08B819C81AFD08D819E81AF817F
:100EF000B88580938B0590938C05A0938D05B09356
:100F00008E058AE895E042C088D2882309F461C042
:100F100093D280E090E079D080E090E095D056C008
:100F20007CD2882309F455C087D26BD569837A8334
:100F30008B839C83A0D09E838D83ACD098878F8336
:100F40000BDB7A87698713DB7C876B872CE0AE012C
:100F50004F5F5F4F61E78EE491E03DD237C05DD2D5
:100F6000853008F436C068D264E0CE0101966ED2B6
:100F700089819A81AB81BC818093B2059093B3053E
:100F8000A093B405B093B50581EB95E0AAD41EC03B
:100F900044D28930F0F050D268E0CE01019656D2AA
:100FA0000D811E812F81388549815A816B817C8119
:100FB00087E993E071D30AC03FD221E0AE01435FDD
:100FC0005F4F612F85E591E006D203C08AE893E088
:100FD00088D42D960FB6F894DEBF0FBECDBFDF913B
:100FE000CF911F910F91089555C2882321F08091D0
:100FF0008100816003C0809181008E7F8093810099
:1010000008958091810081700895CF93DF93EC0162
:10101000892B51F0809181008160809381001C16A2
:101020001D062CF42A9809C0ECDF882399F32A9A2C
:10103000D7FF03C0D195C195D109D0938B00C09340
:101040008A00DF91CF910895009751F0209181009F
:101050002160209381001816190614F4299806C0FF
:10106000299A97FF03C091958195910990938900E2
:101070008093880008952A9B08C080918A009091EF
:101080008B00919581959109089580918A009091A6
:101090008B000895299B08C0809188009091890059
:1010A000919581959109089580918800909189008A
:1010B00008959C01E1E8F0E090819E7F9083F89490
:1010C0008FB71FBE30937401209373011092850077
:1010D0001092840030938700209386008FBF78940D
:1010E00080818160808308959C0190937401809336
:1010F000730185B18F7985B984B1806684B985B172
:10110000866085B984B1866084B9E1E8F0E08081C9
:101110008E7F808380818D7F808380818B7F8083A1
:10112000A0E8B0E08C918F7B8C938C9180688C933D
:101130008C918F7E8C938C9180628C939C919B7F01
:101140009C939C91977F9C939081906190839081D8
:10115000977F908390819D7F908390819E7F9083E5
:10116000C901A7DF10928B0010928A0010928900AB
:10117000109288000895FC0110A211A20895FC01AC
:10118000F3951082319610820895FC0191A180A1FF
:10119000981B892F87700895DC01AF5FBE4FFC015B
:1011A000F3958C919081891B0895FC0191A1DF0139
:1011B00084E0989FA00DB11D11244D935D936D9314
:1011C0007C9313979F5F977091A380A1981303C09E
:1011D0009F5F977090A30895FC01EF5FFE4F208101
:1011E000DC01A20FB11D6C9331E0320F30833197D7
:1011F0008081381302C02E5F20830895FC0190A1E6
:101200009150977090A3DF0184E0989FA00DB11DCD
:1012100011244D935D936D937C93139781A1981343
:1012200003C09150977091A30895FC0190A181A1F2
:10123000891799F0DF0184E0989FA00DB11D11245A
:101240005C9111964C91119712963C9112971396BE
:101250002C919F5F977090A304C050E040E030E075
:1012600020E0652F742F832F922F08959C01FC019D
:10127000F3959081D901AF5FBE4F8C91891739F0FA
:10128000D901A90FB11D8C919F5F9083089580E0D3
:101290000895FC0190A1690F677084E0689FE00DDC
:1012A000F11D112460817181828193810895FC0177
:1012B000F3952081620FFC01E60FF11D80810895F6
:1012C000FC0190A1690F677084E0689FE00DF11D3B
:1012D0001124208331834283538308951F93CF9336
:1012E000DF9356D68091D9058430F9F482E080935B
:1012F000E9008091E80082FF18C08091F300C0915E
:10130000F200D0E0D82B10E0812F90E08C179D07E1
:1013100038F46091F10087E792E05EDF1F5FF4CF61
:101320008091E8008B778093E8008091D905843024
:10133000F9F481E08093E9008091E80080FF18C013
:10134000C0E085E791E028DFC81738F485E791E031
:101350008DDF8093F100CF5FF4CF8091E8008E772E
:101360008093E80083D68091E8008E778093E80030
:10137000DF91CF911F910895682F85E791E02CCFE1
:101380000F931F93CF93DF93EC018C01060F111D78
:10139000C017D10719F08991EFDFFACFDF91CF9114
:1013A0001F910F9108951F93CF93DF93EC0180E07D
:1013B00011E0180FFE01E80FF11D8081DDDF812FA4
:1013C000FE01E10FF11D90819111F2CF80E0DF91DC
:1013D000CF911F91D1CFEF92FF920F931F93CF9395
:1013E000DF93EC01062F7A01122FFC0101900020FF
:1013F000E9F73197E81BF90B82E0820F8E0FBCDF13
:10140000CE01D1DF802FB8DF612FC701DF91CF91EF
:101410001F910F91FF90EF90B3CF87E792E0BCCE82
:1014200087E792E0B9DE882329F06091770387E7A8
:1014300092E03DCF80E0089587E792E0ADDE88231B
:1014400019F087E792E012CF80E00895FF920F93A2
:101450001F93CF93DF93F82E092F162F87E792E083
:101460009BDE811780F0CF2DD02FCE01810F911DF3
:101470008C01C017D10729F087E792E0F7DE899346
:10148000F8CF81E001C080E0DF91CF911F910F91F3
:10149000FF90089582E08093E900E8EEF0E080811B
:1014A0008B77808387E792E06ACE87E792E067DEFA
:1014B00085E791E064DE84B7877F84BF0FB6F89438
:1014C000A895809160008861809360001092600010
:1014D0000FBE90E080E80FB6F8948093610090937F
:1014E00061000FBE29D4789408950895089542E1CB
:1014F00061E881E067D542E160E882E063D542E0DF
:1015000061EC83E05FD510921201109213011092EA
:1015100014011092150108958091DB05813229F0A4
:10152000823249F1803289F512C08091DA05813A20
:1015300061F58091E800877F8093E80067E070E0C4
:1015400082E191E0C6D58091E8008B7711C080914F
:10155000DA058132D1F48091E800877F8093E8003A
:1015600067E070E082E191E012D68091E8008E772A
:101570008093E80008958091DA05813231F48091FA
:10158000E800877F8093E80052C508952F923F922C
:101590004F925F926F927F928F929F92AF92BF9283
:1015A000CF92DF92EF92FF920F931F93CF93DF932F
:1015B000CDB7DEB727970FB6F894DEBF0FBECDBF0D
:1015C0004C017A8369832B83EC82FD820E831F8317
:1015D000250136018FE6A82E82E1B82E83E8C82EB9
:1015E0008AE3D82EE22E8A019B0146EC53E769E29A
:1015F0007CE4C4018BD2EB8029813A8146EC53E72D
:1016000069E27CE4C40188569F4F80D2F401E05D1A
:10161000FE4F8C819D81AE81BF8180839183A283A7
:10162000B3833496408251826282738234968C8D69
:101630009D8DAE8DBF8D80839183A283B3833496BD
:1016400088A199A19183808332968AA19BA19183DD
:10165000808332968CA19DA19183808332968EA146
:101660009FA19183808327960FB6F894DEBF0FBEAB
:10167000CDBFDF91CF911F910F91FF90EF90DF9041
:10168000CF90BF90AF909F908F907F906F905F9022
:101690004F903F902F9008950F931F93CF93DF9318
:1016A000EC018C0104571F4F27E732E04AE754E46E
:1016B000F801608171818281938199D7F8016083FB
:1016C000718382839383CC5DDE4F20E030E04AE774
:1016D00054E4688179818A819B8189D76883798381
:1016E0008A839B83DF91CF911F910F9108952F9251
:1016F0003F924F925F926F927F928F929F92AF92A2
:10170000BF92CF92DF92EF92FF920F931F93CF93EE
:10171000DF9300D000D000D0CDB7DEB79E838D839D
:101720004A015B01FC01E45CFE4F0190F081E02D79
:1017300009956B017C01ED81FE81E25CFE4F019019
:10174000F081E02D09952B013C0195018401B70141
:10175000A6018D819E8106D26B017C0195018401D9
:10176000B301A2018D819E8188569F4FFBD1698371
:101770007A838B839C8320E030E0A901B601C70106
:101780000E94AA1418163CF0812C912C30E8A32E4C
:101790003FEBB32E06C0812C912C20E8A22E2FE324
:1017A000B22EED81FE81E85CFE4F20803180028107
:1017B00013819101A801B601C7010E94AA1418164D
:1017C0002CF07C2D6D2D9E2D8F2D04C0722D632D40
:1017D000902F812F272F362F492F582FC501B40165
:1017E0000E94AE142B013C0120E030E0A901698188
:1017F0007A818B819C810E94AA1418163CF0812C5E
:10180000912C90E8A92E9FEBB92E06C0812C912C2B
:1018100080E8A82E8FE3B82E9101A80169817A8112
:101820008B819C810E94AA14181624F029803A808A
:101830000B811C819101A801C501B4010E94AE1465
:101840004B015C0120E030E048E452E4B601C701FE
:101850000E94AA1418161CF488E591E002C08CE5D9
:1018600091E0A1DDC301B20192D7ED81FE81E05C80
:10187000FE4F0190F081E02DCB010995C501B40127
:1018800086D72D813E812E5B3E4FD901ED91FC9193
:10189000CB0126960FB6F894DEBF0FBECDBFDF9109
:1018A000CF911F910F91FF90EF90DF90CF90BF905D
:1018B000AF909F908F907F906F905F904F903F90F0
:1018C0002F900994FC0110824183528363837483B7
:1018D0001286118615821682178210863487238716
:1018E0000895CF93DF93EC0181E08883CAD09A8773
:1018F0008987BED06D837E838F839887DF91CF9158
:101900000895CF93DF93EC0120E030E0A9016981D5
:101910007A818B819C81CFD687FD0BC0CE01059645
:10192000B6D029813A814B815C810E94AA1487FD3F
:1019300002C0888101C080E0DF91CF9108958F922D
:101940009F92AF92BF92EF92FF921F93CF93DF933C
:10195000EC01D7DF182F882391F1EB84FC84E1148C
:10196000F10461F169857A8580E090E041D72FE646
:1019700032E143E85AE3F2D74B015C016D817E818D
:101980008F81988535D79B01AC01C501B4012FD655
:10199000F701099576D09A8789876AD06D837E830F
:1019A0008F83988720E030E0A90169817A818B815B
:1019B0009C8181D687FF03C0188201C010E0812F6F
:1019C000DF91CF911F91FF90EF90BF90AF909F90CC
:1019D0008F90089584B584BD85B5836085BD89EFFA
:1019E00087BD16BCEEE6F0E080818260808378944B
:1019F0001092790310927A0310927B0310927C0369
:101A000008958F929F92AF92BF92CF92DF92EF9202
:101A1000FF928090790390907A03A0907B03B0901E
:101A20007C0366B584E0689FB0011124072E000C8A
:101A3000880B990BDFD62DEB37E346E855E38ED7BD
:101A40006B017C01C501B401D3D62FE632E143E836
:101A50005AE384D79B01AC01C701B601C8D5FF90FA
:101A6000EF90DF90CF90BF90AF909F908F900895B0
:101A70006091790370917A0380917B0390917C034C
:101A8000089586B524E0829FC001112408950F9324
:101A90001F93FC018091790390917A03A0917B03BD
:101AA000B0917C030081118122813381BC01CD0181
:101AB000601B710B820B930B9BD61F910F910895A6
:101AC0001F920F920FB60F9211248F939F93AF9393
:101AD000BF9316BC8091790390917A03A0917B0308
:101AE000B0917C030196A11DB11D80937903909361
:101AF0007A03A0937B03B0937C03BF91AF919F9136
:101B00008F910F900FBE0F901F901895AF92BF92BC
:101B1000CF92DF92EF920F931F93CF93DF93EC015D
:101B2000C9012E2DFE01E857FF4F40835183628388
:101B300073833C96A082B182C282D382A801BC0189
:101B4000CE010E94870340E050E0BA01CE01DF9150
:101B5000CF911F910F91EF90DF90CF90BF90AF90FA
:101B60000C94E5038F929F92AF92BF92CF92DF9237
:101B7000EF92FF920F931F93CF93DF93EC014801F5
:101B800059010E9417046B017C01FE01E057FF4FD1
:101B90002081318142815381C501B401DFD68E019C
:101BA00004571F4FF80120813181428153811FD595
:101BB000F8016083718382839383C857DF4FA70145
:101BC000960114D5288139814A815B81C7D6DF917E
:101BD000CF911F910F91FF90EF90DF90CF90BF902A
:101BE000AF909F908F900895CF93DF9300D000D057
:101BF000CDB7DEB7B3D669837A838B839C8324E029
:101C0000AE014F5F5F4F6AE28BE491E0E4DB0F903F
:101C10000F900F900F90DF91CF910895CF93DF93A6
:101C200000D000D0CDB7DEB74AD569837A838B83E5
:101C30009C8324E0AE014F5F5F4F6FE28BE491E045
:101C4000CADB0F900F900F900F90DF91CF91089506
:101C5000CF93DF9300D000D0CDB7DEB7C8D469836F
:101C60007A838B839C8324E0AE014F5F5F4F6BE2EE
:101C70008BE491E0B0DB0F900F900F900F90DF910D
:101C8000CF910895CF93DF9300D000D0CDB7DEB7CA
:101C9000ADD469837A838B839C8324E0AE014F5F4C
:101CA0005F4F6DE28BE491E096DB0F900F900F9009
:101CB0000F90DF91CF9108950F931F93CF93DF93F0
:101CC0004BD052D0C8EDD0E088818F77888388814F
:101CD0008068888388818F7D888319BC1092D9059C
:101CE0001092E2051092E4051092E30500EE10E078
:101CF000F80180818B7F808388818160888342E0C6
:101D000060E080E05FD1E1EEF0E080818E7F808353
:101D1000E2EEF0E080818160808380818860808352
:101D2000F80180818E7F8083888180618883DF9144
:101D3000CF911F910F910895E8EDF0E080818F7EA3
:101D40008083E7EDF0E080818160808384E082BF62
:101D500081E08093D805B0CFE8EDF0E080818E7F00
:101D600080831092E20008951092DA001092E10050
:101D700008951F920F920FB60F9211242F933F9345
:101D80004F935F936F937F938F939F93AF93BF9383
:101D9000EF93FF938091E10082FF0AC08091E200FF
:101DA00082FF06C08091E1008B7F8093E100EFD03D
:101DB0008091DA0080FF1DC08091D80080FF19C09B
:101DC0008091DA008E7F8093DA008091D90080FFC5
:101DD0000CC080E189BD82E189BD09B400FEFDCF60
:101DE00081E08093D90581DB04C019BC1092D9052C
:101DF0007DDB8091E10080FF18C08091E20080FFD0
:101E000014C08091E2008E7F8093E2008091E20016
:101E100080618093E2008091D80080628093D80036
:101E200019BC85E08093D905B2D08091E10084FF90
:101E30002FC08091E20084FF2BC080E189BD82E148
:101E400089BD09B400FEFDCF8091D8008F7D8093BD
:101E5000D8008091E1008F7E8093E1008091E200C4
:101E60008F7E8093E2008091E20081608093E200A7
:101E70008091E205882311F084E007C08091E3009F
:101E800087FD02C081E001C083E08093D9057FD047
:101E90008091E10083FF27C08091E20083FF23C08F
:101EA0008091E100877F8093E10082E08093D905F3
:101EB0001092E2058091E1008E7F8093E100809195
:101EC000E2008E7F8093E2008091E2008061809347
:101ED000E20042E060E080E075D08091F000886030
:101EE0008093F00054D0FF91EF91BF91AF919F91FB
:101EF0008F917F916F915F914F913F912F910F90B3
:101F00000FBE0F901F9018951F920F920FB60F9251
:101F100011242F933F934F935F936F937F938F93EE
:101F20009F93AF93BF93CF93DF93EF93FF93C091B2
:101F3000E900CF708091EC00D82FD17080FDD0E8FF
:101F40001092E9008091F000877F8093F0007894F0
:101F5000BFD11092E9008091F00088608093F0007A
:101F6000CD2BCF70C093E900FF91EF91DF91CF911E
:101F7000BF91AF919F918F917F916F915F914F91A1
:101F80003F912F910F900FBE0F901F9018950895BD
:101F9000CF938091D905882399F0C091E900CF7043
:101FA0009091EC00892F817090FD80E8C82B1092F1
:101FB000E9008091E80083FD8BD1CF70C093E900E8
:101FC000CF910895982F973068F59093E90098176E
:101FD00039F07091EC002091ED005091F00003C0B9
:101FE000242F762F50E021FD02C09F5FECCF30916F
:101FF000EB003E7F3093EB003091ED003D7F30935E
:10200000ED003091EB0031603093EB007093EC0009
:102010002093ED005093F0002091EE0027FDE5CFD6
:1020200080E008958F708093E90081E008958091A9
:10203000DA0587FF11C08091E80082FD05C080911C
:10204000D9058111F8CF11C08091E8008B770BC0C2
:102050008091D905882349F08091E80080FFF8CF6E
:102060008091E8008E778093E80008952091E40045
:102070003091E50095E64091EC00842F817040FF9F
:1020800023C08091E80080FD1DC08091D905882380
:1020900099F0853099F08091EB0085FD11C0409159
:1020A000E4005091E5002417350729F3915011F011
:1020B0009A01E1CF84E0089582E0089583E00895D5
:1020C00081E0089580E008954091E80042FFDDCF6F
:1020D00008952091E0053091E1052617370748F073
:1020E0006115710539F42091E8002E772093E800FE
:1020F00001C0B901FC0120E06115710579F1809101
:10210000D9058823F1F18530F1F18091E80083FD54
:102110003CC08091E80082FD2EC08091E80080FFE5
:10212000EBCF2091F3008091F20090E0922B6115AB
:10213000710551F08830910538F421912093F10018
:10214000615071090196F3CF21E0089709F020E072
:102150008091E8008E778093E800CECF2111CFCF19
:102160000AC08091D905882361F0853061F08091A3
:10217000E80083FD0AC08091E80082FFF2CF80E092
:10218000089582E0089583E0089581E0089561153F
:10219000710529F42091E8002B772093E800FC01D9
:1021A0006115710541F18091D905882361F1853070
:1021B00061F18091E80083FD24C08091E80082FFF6
:1021C000EFCF2091F3008091F20090E0922B892BC9
:1021D00031F08091F10081936150710991F7809104
:1021E000E8008B778093E800DBCF8091D9058823C6
:1021F00051F0853051F08091E80080FFF6CF80E00B
:10220000089581E0089582E0089583E00895209183
:10221000E0053091E1052617370748F06115710593
:1022200039F42091E8002E772093E80001C0B9012D
:10223000FC0120E06115710591F18091D905882399
:1022400009F440C0853009F43FC08091E80083FD67
:102250003DC08091E80082FD2FC08091E80080FFA2
:10226000E9CF2091F3008091F20090E0922B61156C
:10227000710559F08830910540F424912093F100C4
:102280003196615071090196F2CF21E0089709F06B
:1022900020E08091E8008E778093E800CBCF211179
:1022A000CCCF0AC08091D905882361F0853061F0D8
:1022B0008091E80083FD0AC08091E80082FFF2CFA0
:1022C00080E0089582E0089583E0089581E0089514
:1022D0001F93CF93DF93CDB7DEB7AA970FB6F894CD
:1022E000DEBF0FBECDBFEAEDF5E08091F100819336
:1022F00025E0E23EF207C9F70FD98091E80083FF9D
:1023000027C18091DA059091DB05492F50E04A30D2
:10231000510508F01DC1FA01EA5AFF4F61C180382A
:1023200021F0823809F014C108C08091E305909132
:10233000E405992389F082600FC08091DE058F70DB
:10234000873008F005C18093E9008091EB0085FBA0
:10235000882780F91092E9009091E800977F909388
:10236000E8008093F1001092F100CCC0282F2D7F5F
:1023700009F0EEC0882319F0823061F0E9C0809145
:10238000DC05813009F0E4C0933009F080E08093EF
:10239000E4052EC08091DC0581112AC08091DE0504
:1023A0008F702FEF280F263008F0D2C08093E900FD
:1023B0002091EB0020FF1CC0933021F48091EB00B2
:1023C000806214C09091EB0090619093EB0021E04B
:1023D00030E0A90102C0440F551F8A95E2F74093EF
:1023E000EA001092EA008091EB0088608093EB0095
:1023F0001092E9008091E800877F8093E80017DE63
:10240000A7C08111A5C01091DC051F778091E30062
:102410008078812B8093E3008091E800877F809310
:10242000E80005DE8091E80080FFFCCF8091E300AA
:1024300080688093E300111102C082E001C083E054
:102440008093D90585C08058823008F081C0809182
:10245000DC059091DD058C3D53E0950771F583E037
:102460008A838AE289834FB7F894DE01139620E0CD
:102470003EE051E2E32FF0E050935700E49120FF5B
:1024800003C0E295EF703F5FEF708E2F90E0EA306F
:1024900010F0C79601C0C0968D939D932F5F243195
:1024A00049F74FBF8091E800877F8093E8006AE298
:1024B00070E0CE0101960DDE14C06091DE057091D2
:1024C000DF05AE014F5F5F4F5BD0BC01892B09F484
:1024D0003FC09091E800977F9093E80089819A81AE
:1024E00096DE8091E8008B778093E80031C08038D9
:1024F00079F58091E800877F8093E8008091E2057C
:102500008093F1008091E8008E7777CF811120C011
:102510008091DC059091DD0599270297CCF480919C
:10252000E800877F8093E8008091DC058093E205D6
:102530007EDD8091E205811106C08091E30087FD78
:1025400002C081E001C084E08093D9050E94770A2F
:102550008091E80083FF0AC08091E800877F809324
:10256000E8008091EB0080628093EB00AA960FB6A2
:10257000F894DEBF0FBECDBFDF91CF911F910895BC
:10258000292F33272230310559F02330310569F0E6
:1025900021303105E9F482E190E020E731E01CC010
:1025A0008EE390E022E331E017C099278130910556
:1025B00049F028F0029761F4E0ECF0E005C0EEE2AB
:1025C000F1E002C0EAEFF0E0849190E09F0104C0E6
:1025D00080E090E020E030E0FA013183208308952C
:1025E000EE0FFF1F0590F491E02D09945058BB2782
:1025F000AA270ED075C166D130F06BD120F031F42E
:102600009F3F11F41EF45BC10EF4E095E7FB51C14E
:10261000E92F77D180F3BA1762077307840795070C
:1026200018F071F49EF58FC10EF4E0950B2EBA2FC1
:10263000A02D0B01B90190010C01CA01A0011124C8
:10264000FF27591B99F0593F50F4503E68F11A1674
:10265000F040A22F232F342F4427585FF3CF469505
:1026600037952795A795F0405395C9F77EF41F1627
:10267000BA0B620B730B840BBAF09150A1F0FF0FF1
:10268000BB1F661F771F881FC2F70EC0BA0F621FDD
:10269000731F841F48F4879577956795B795F795CD
:1026A0009E3F08F0B3CF9395880F08F09927EE0F5F
:1026B000979587950895D9D008F481E008950CD0B6
:1026C0000FC107D140F0FED030F021F45F3F19F088
:1026D000F0C0511139C1F3C014D198F39923C9F353
:1026E0005523B1F3951B550BBB27AA276217730718
:1026F000840738F09F5F5F4F220F331F441FAA1FCC
:10270000A9F333D00E2E3AF0E0E830D0915050408B
:10271000E695001CCAF729D0FE2F27D0660F771F39
:10272000881FBB1F261737074807AB07B0E809F01B
:10273000BB0B802DBF01FF2793585F4F2AF09E3FB0
:10274000510568F0B6C000C15F3FECF3983EDCF382
:10275000869577956795B795F7959F5FC9F7880F29
:10276000911D9695879597F90895E1E0660F771F7B
:10277000881FBB1F621773078407BA0720F0621B0C
:10278000730B840BBA0BEE1F88F7E095089504D005
:102790006894B111D9C00895BCD088F09F5790F0CB
:1027A000B92F9927B751A0F0D1F0660F771F881F76
:1027B000991F1AF0BA95C9F712C0B13081F0C3D091
:1027C000B1E00895C0C0672F782F8827B85F39F02F
:1027D000B93FCCF3869577956795B395D9F73EF4D5
:1027E00090958095709561957F4F8F4F9F4F08957D
:1027F000E89409C097FB3EF490958095709561959B
:102800007F4F8F4F9F4F9923A9F0F92F96E9BB2750
:102810009395F695879577956795B795F111F8CFCC
:10282000FAF4BB0F11F460FF1BC06F5F7F4F8F4F37
:102830009F4F16C0882311F096E911C0772321F02D
:102840009EE8872F762F05C0662371F096E8862FC5
:1028500070E060E02AF09A95660F771F881FDAF71C
:10286000880F9695879597F90895990F0008550F49
:10287000AA0BE0E8FEEF16161706E807F907C0F006
:1028800012161306E407F50798F0621B730B840B0E
:10289000950B39F40A2661F0232B242B252B21F4E8
:1028A00008950A2609F4A140A6958FEF811D811D88
:1028B000089597F99F6780E870E060E008959FEFC2
:1028C00080EC089500240A941616170618060906C7
:1028D000089500240A941216130614060506089596
:1028E000092E0394000C11F4882352F0BB0F40F41E
:1028F000BF2B11F460FF04C06F5F7F4F8F4F9F4F5E
:10290000089557FD9058440F551F59F05F3F71F0DF
:102910004795880F97FB991F61F09F3F79F0879546
:102920000895121613061406551FF2CF4695F1DFCF
:1029300008C0161617061806991FF1CF869571055F
:10294000610508940895E894BB2766277727CB0193
:1029500097F908958ADF08F48FEF08950BD0C0CF60
:10296000B1DF28F0B6DF18F0952309F0A2CFA7CF8A
:102970001124EACFC6DFA0F3959FD1F3950F50E065
:10298000551F629FF001729FBB27F00DB11D639F21
:10299000AA27F00DB11DAA1F649F6627B00DA11DC7
:1029A000661F829F2227B00DA11D621F739FB00D6D
:1029B000A11D621F839FA00D611D221F749F3327DD
:1029C000A00D611D231F849F600D211D822F762F76
:1029D0006A2F11249F5750408AF0E1F088234AF073
:1029E000EE0FFF1FBB1F661F771F881F91505040BF
:1029F000A9F79E3F510570F05CCFA6CF5F3FECF387
:102A0000983EDCF3869577956795B795F795E795AA
:102A10009F5FC1F7FE2B880F911D9695879597F9BB
:062A20000895F894FFCFB9
:102A26000000803F8B3B66BEDC08B140B83A98C0D8
:102A3600010000000000000008C2D58238C2D5821D
:102A460039A340C439C2D58239C2D5823800008044
:102A56003F927F60C046829440A0872FC0024C1CE4
:102A66003F6363660063666600633763660063669A
:102A7600686868680063630042494700534D4C002C
:00000001FF
